:020000021000EC
:1020000000000120752301005D230100E938010073
:10201000612301006323010065230100000000002B
:102020000000000000000000000000006723010025
:1020300069230100000000006B2301006D230100F3
:102040006F2301006F230100B5470100095801000B
:10205000195801006F2301006946010085510100F4
:102060006F2301006F2301006F2301006F23010024
:102070006F2301006F2301006F2301006F23010014
:102080006F230100D53801006F2301006F23010089
:102090006F2301006F230100ED6C01006F2301002D
:1020A0006F2301006F2301006F2301006F230100E4
:1020B0006F2301006F2301000000000000000000FA
:1020C0006F2301006F2301006F2301006F230100C4
:1020D0006F2301006F2301006F2301000000000047
:1020E00000000000000000000000000000000000F0
:1020F00000000000000000000000000000000000E0
:1021000000000000000000000000000000000000CF
:1021100000000000000000000000000000000000BF
:1021200000000000000000000000000000000000AF
:10213000000000000000000000000000000000009F
:10214000000000000000000000000000000000008F
:10215000000000000000000000000000000000007F
:10216000000000000000000000000000000000006F
:10217000000000000000000000000000000000005F
:10218000000000000000000000000000000000004F
:10219000000000000000000000000000000000003F
:1021A000000000000000000000000000000000002F
:1021B000000000000000000000000000000000001F
:1021C000000000000000000000000000000000000F
:1021D00000000000000000000000000000000000FF
:1021E00000000000000000000000000000000000EF
:1021F00000000000000000000000000000000000DF
:10220000354936480A1A02D0072291438D4634498F
:1022100034480A1A06D00722914381F30988022222
:1022200082F3148830483149314A00F044F831488B
:102230003149324A00F03FF831483249324A00F021
:102240003AF832483249334A00F035F832483349D7
:10225000334A00F030F833483349344A00F02BF861
:1022600033483449344A00F026F8344834490022CF
:1022700000F02CF833483449002200F027F83348A6
:102280003349091A082902DB002202604160314A01
:1022900090471F481F49884205D00268043003B4A4
:1022A000904703BCF7E700208646EC46002000215B
:1022B000294A9047FEE7884207D0521A05D0037892
:1022C00001300B700131013AF9D17047884202D0D8
:1022D00002700130FAE770470000012000E00020A2
:1022E000000001200000012060A10100800B0020FF
:1022F0006C0C0020D0230100D02301005C8E010073
:1023000060A10100800B0020800B0020008F0100E5
:10231000008F0100008F0100008F0100008F01007D
:10232000008F0100008F0100008F010060A10100FB
:102330004CA201006C0C00206C0C00206C0C0020E6
:10234000881800208818002088180020881800208D
:10235000883800209D2301003D630100FEE7FEE771
:10236000FEE7FEE7FEE7FEE7FEE7FEE7FEE7FEE745
:1023700000F002B8FFF7FCBF0F484FF00701884399
:1023800085460E4880470E48016841F4700101609F
:10239000BFF34F8FBFF36F8FFFF732BF09480A4972
:1023A0000A4A884207D0521A05D0037801300B70D0
:1023B0000131013AF9D17047000001200D69010097
:1023C00088ED00E0008F0100800B0020800B0020D2
:1023D000F0B595B01D46164608460C4601F0A8FE1D
:1023E0001A9B0D93CDE9086500252B46082205A907
:1023F00020460A958DF82C500C9501F0B5FE079BF0
:102400000293069B03939DF814308DF8115003F04E
:102410000302012A1DD1BDF81420059DC3F3C20398
:10242000C2F383168DF81030B20008230EA920469F
:1024300001F09AFEC5F3952508AB0093324602AB36
:102440000EA9284600F0BEFB204601F075FE15B02F
:10245000F0BD022AF8D1BDF81650C3F3C203C5F38C
:1024600089158DF810300827082D2E4628BF08261C
:102470003B4632460EA9204601F076FEAD1B08AB66
:1024800002AA31460EA8374400F000FC002DEBD123
:10249000DAE70000014B01221A707047AD0C0020F2
:1024A0007047000070B50E4D06460FCD88B06C46E3
:1024B0000FC495E80F00002E84E80F00094A0A486F
:1024C0004FF0060308BF00226946009301F05AFF4F
:1024D00008B100F035FE054B1E7008B070BD00BF9E
:1024E000008F010095240100800B00206C0C00205F
:1024F00007B5044B0093044A4023FFF769FF03B07C
:102500005DF804FB0D2501006D0C002038B50D4869
:102510000D4C0E4D002323700378EB5CD2B263B1F7
:10252000043002F0D5FD08B100F00AFE084B1A781D
:1025300012B12378002BFBD038BD0C3002F076FBB3
:10254000F1E700BF800B0020AD0C00201413002029
:102550006C0C002008B50848084A0378D35C3BB1EE
:10256000043002F019FDBDE808400020FFF79ABFD3
:102570000C3002F0E5FAF6E7800B0020141300207F
:102580000120FFF78FBF000008B5FFF7F9FF0448EF
:10259000042100F081FA034B01225A7108BD00BFEB
:1025A000DC8E0100940B0020037813F0040216D097
:1025B00003F00303012B03D0022B09D00120704745
:1025C0000A6800880232C0F3831002440A60F5E70B
:1025D0000B684288023303EB92130B60EEE7104660
:1025E000704700002DE9F04FDFF81CA187B00F46BF
:1025F00000230446861C0DF1070015468DF80730B0
:1026000000F0FAFFDAF804203A60DAF8083003F54F
:1026100080739B1A0AF21C470AF583690AF2144870
:10262000B3421AD30020002D69D004F00F039B01A0
:1026300043F0050363F30F00DAF80430DAB2033233
:1026400033444AF822009DF80700CAF8043000F02D
:10265000F7FF012007B0BDE8F08F0121384601F0F7
:1026600096FA484601F0ABFA404601F0A8FADAF8CB
:1026700008000290C0B203300AEB800002A9FFF705
:1026800093FF029B30BBDAB20AEB8202D16803915E
:102690009A1C0133DBB20AEB83030292D3F80CB02D
:1026A00001F00303012B22D0022B15D083464046B4
:1026B00001F088FA10B1029BCAF808305946384632
:1026C00001F065FADAF80830DAF8042003F58073CF
:1026D0009B1AA5E7D8B2CEE7BDF80E30C3F3891335
:1026E00003334FEA1B4B02EB93030293DFE7BDF882
:1026F0000C30C3F383134FEA1B4B1344F5E7A405D7
:1027000044F0060098E700BF800D0020064B074804
:1027100010B500221A7001F0C4FC044610B9044838
:1027200001F08EFD204610BD800D0020EC8E0100D2
:10273000548F010030B50A4C71B10A4A0A49121B84
:10274000D20800239A4201D1002030BD31F8235035
:10275000854202D00133F5E7034654F83300F4E72D
:10276000648E0100D48E0100800B0020094B0139DA
:1027700003EBC000032909D8DFE801F00A020406D0
:1027800004207047007970474079704700207047F7
:1027900002207047648E010070470000034BD3E9AC
:1027A0000130C31A58425841704700BF800D0020C5
:1027B0002DE9F04186B0FFF7F1FF0546002840F013
:1027C000ED80774CC4F81804BFF34F8FA3680293D1
:1027D000DBB2033304EB830002A9FFF7E5FE029BA3
:1027E00018B1D4F81824002A5AD0DAB2991C01334F
:1027F00004EB8202DBB204EB8303D268DB68049350
:1028000002F00303022B0392029154D1BDF80E3063
:102810006448C3F38917502F3E4628BF502606F15F
:10282000080166F38F13C1F30901ADF80E3001F012
:1028300050FC0546002800F09C8001F079FC002344
:10284000082203A9284601F085FC0299CB43DBB29C
:102850000133C9B20331B6EB830F4FEA830204EBB5
:10286000810125D95FFA82F80823A6EB08062846DD
:1028700001F070FCF6B208F108034B4903F0FC03C9
:102880003246284601F066FC029B033703EB9707AC
:102890000297D4F81834002B43D1D4F8106453E0D5
:1028A00062689A4294D8A260284606B0BDE8F081DA
:1028B00008233246E5E7012B5BD1BDF80C303948DF
:1028C000C3F38311062928BF062161F3891302315E
:1028D00001F00F018900ADF80C3001F0FAFB05465C
:1028E000002846D001F024FC0023082203A9284632
:1028F00001F030FC0026BDF80C20C2F38312B300B7
:10290000964203F10803C4D202994A1CC9B20331AA
:10291000029204EB81010422284601F01BFC0136DF
:10292000E9E7284601F008FCFFF738FF80F00100D6
:10293000C5B2B9E7F3685B7923B1336829461B68F0
:1029400030469847F3681E68002EF3D1284601F000
:10295000F3FB0DF107008DF8076000F04DFED4F891
:1029600018340BB9029BA3609DF8070000F068FEC5
:10297000DAE7D4F8104454B90C4B0D480D49C01A8D
:10298000C008000440F0020000F05EF8CCE72368C5
:1029900020469B689847E3681C68ECE7002583E7BE
:1029A000800D0020EC8E01008C0D0020648E010053
:1029B000948E01003D8F01002DE9F34704460E4639
:1029C000924601A9012218469946FFF70BFE1C4FBB
:1029D00010B3019D4FF00008AA1CC84508EB020186
:1029E00025D11848002101F0AFF880F31000000451
:1029F00040EA1440E4006B1C04F03804DBB2EDB292
:102A000044F0010407EB8303033544EA881444EAE5
:102A10008624D86047F825403B781BB1FFF7C8FEF5
:102A20000028FBD1FFF7B8FE02B0BDE8F087C9B2BD
:102A300007EB81015AF82830CB6008F10108CCE798
:102A4000800D00209C11002000231A46FFF7B4BF20
:102A500007B50123019201AAFFF7AEFF03B05DF8AD
:102A600004FB1FB5CDE90123069B039301AA0323B1
:102A7000FFF7A2FF05B05DF804FB1FB5CDE9002309
:102A8000069B0293079B03936A460423FFF794FF78
:102A900005B05DF804FB000030B50F4CD4F81024ED
:102AA00003460020114631B9D96808714AB9C4F803
:102AB00010340A6030BDC9680D79854206D00968B6
:102AC000F1E7D26814680C601360F3E701300A285C
:102AD000E8D14FF0FF30EDE7800D002038B5084B0E
:102AE0000125D3F810441D7004B938BDE3685D7149
:102AF000236820465B689847E3681C68F4E700BFDA
:102B0000800D002030B5C38885B004460D4633B132
:102B1000144A00921449154A284601F0B6F8217A61
:102B200005291DD0637A4BB1A088FFF71FFE104B1B
:102B3000104953F82020284601F0A7F8227A0E4BBE
:102B4000A08853F8222003920021FFF7F3FD039A97
:102B50000A490346284605B0BDE8304001F095B863
:102B600005B030BD808F0100688F0100608F0100CB
:102B7000EC8F0100858F010010900100888F01000B
:102B800007B503460846197A052911D05B7A2BB19F
:102B9000094A0A49019001F078F801980849019022
:102BA00001F073F8019803B05DF804EB01F062B82E
:102BB000002AF8D0F2E700BF808F0100858F010066
:102BC0007D8F01002DE9F04385B01F460C9D002349
:102BD00095F80C902B7306460C46904629463846CD
:102BE000FFF790FFB8F1060F09D8DFE808F00412EC
:102BF000181F283340003146284601F046F80022CD
:102C000029463846FFF7BCFF85F80C9005B0BDE8B3
:102C1000F08322683146284601F037F8EFE7D4E91F
:102C200000233146284601F030F8E8E7A368009316
:102C30003146D4E90023284601F027F8DFE7E368AE
:102C40000193A36800933146D4E90023284601F09C
:102C50001CF8D4E723690293E3680193A368009307
:102C60003146D4E90023284601F00FF8C7E763692D
:102C7000039323690293E3680193A36800933146A9
:102C8000D4E90023284601F000F8B8E708292DE927
:102C9000F74F80460E4617461C463DD800251B7B45
:102CA0002573214610460193FFF72CFFDFF88CA017
:102CB000DFF88CB0AE4232D918F8052059462046CC
:102CC00000F0E3FF0135082DF4D11B49DFF874A0B3
:102CD000DFF874B0204600F0D8FF4FF000094E45F1
:102CE00024D918F809507E2D1ED8284605F0CAFCB4
:102CF000002814BF2A462E225946204600F0C5FF60
:102D000009F10109B9F1080FE9D10122214638463C
:102D1000FFF736FF019B237303B0BDE8F08F5146E8
:102D2000204600F0B2FFCDE72E22E5E751462046CF
:102D300000F0ABFFE4E700BF9C8F0100988F01001B
:102D4000928F01009A8F01009E8F0100054A4FF07B
:102D5000A043105CD3F8043523FA00F0C04300F020
:102D60000100704724900100044B1A5C012393403A
:102D70004FF0A042C2F80C35704700BF249001000C
:102D8000044B1A5C012393404FF0A042C2F808356F
:102D9000704700BF2490010008B50020FFF7F0FF46
:102DA0000120FFF7EDFF0220FFF7EAFFBDE8084032
:102DB0000320FFF7E5BF08B50020FFF7D5FF01208E
:102DC000FFF7D2FF0220FFF7CFFFBDE80840032046
:102DD000FFF7CABF074A4FF0A041105CD1F8043595
:102DE0000122824022EA03001340C1F80805C1F81D
:102DF0000C357047249001000D2809D00E2809D009
:102E00000F2809D010280CBF03204FF0FF30704767
:102E1000002070470120704702207047C20708B5A4
:102E200001460CD54FF0A0430322C3F84427C3F852
:102E30004827C3F84C27C3F85027FFF7ADFF8B078F
:102E40000AD54FF0A0430C22C3F83427C3F8382723
:102E5000C3F83C27C3F8402708BD0000C30710B5DE
:102E600007D4F023054A4008145C23401943115449
:102E700010BD0901C9B20F23F4E700BF48120020BA
:102E800030B5094B1C78094B196800239C4202DCC1
:102E90000022104630BD11F83350854201EBC302C9
:102EA000F7D00133F2E700BF38120020581200209B
:102EB00013B504460191FFF7E3FF38B143682BB126
:102EC0000199204602B0BDE81040184702B010BD7D
:102ED000034B044819680022490800F055BA00BFA6
:102EE0003C120020A00B002010B5C0B2FFF7C8FFB5
:102EF0000446007801F0AEFB63785A1E53425341FA
:102F0000834208D1044BD3E90023134303D1BDE826
:102F10001040FFF7DDBF10BD4012002037B5430859
:102F2000374AD35CC2074CBF1B0903F00F030446AA
:102F30000D46042B25D8DFE803F003262F3C400084
:102F4000F9B10121FFF78AFF00230DF107008DF889
:102F5000073000F051FB0120A4F12003C4F120014F
:102F6000284A20FA01F100FA03F30B43A040D2E90A
:102F7000004120430B43C2E900039DF8070000F025
:102F80005FFB03B030BD002918BF0221204603B00B
:102F9000BDE83040FFF762BF49B10321FFF75EFF94
:102FA0000121204603B0BDE83040FFF781BF012179
:102FB000ECE70029E5D10421E8E709B10321E5E7C1
:102FC000FFF74CFF29462046FFF772FF0DF107007F
:102FD0008DF8075000F010FB0120A4F12003C4F18C
:102FE0002001084A20FA01F100FA03F30B43A04044
:102FF000D2E9004124EA000021EA0303BBE700BF55
:1030000048120020401200202DE9F041124E134FCB
:1030100000243378A34208DC114BD3E90023134387
:1030200018D0BDE8F041FFF753BF3D6805EBC40879
:1030300015F8340001F00EFB98F801305A1E534287
:103040005341181A4142414115F83400FFF766FF19
:103050000134DEE7BDE8F08138120020581200206C
:1030600040120020092AF7B505460C4616463ED9FF
:1030700001F028FAE8B11F4B1F481D601F4B204F7D
:103080001C70204B002110221E6005F060FB1E4BBF
:1030900000200021C3E90001013CE4B20326FF2C1B
:1030A0000DD11A4A1A48002103B0BDE8F04000F0E3
:1030B00059B901F0CFF90028DDD003B0F0BD9DF87B
:1030C000063015F834008DF8046005EBC40223F0D7
:1030D00007038DF8063001A993788DF805303A463C
:1030E00001F0FAF9013CE4B20028D8D0E5E7072066
:1030F000E3E700BF581200204812002038120020D9
:10310000E92E01003C12002040120020093001008D
:103110003490010070B5084D084E00242B789C4275
:1031200001D3002070BD3368012113F8340001F091
:103130004BFA0134F2E700BF381200205812002089
:103140001FB50021039001AA44F20100CDE901114D
:1031500000F004F805B05DF804FB000038B572B665
:10316000FFF7BCFCFFF724FB0028FBD1104B114CF0
:10317000114D1249E41AE408240444F00100FFF759
:1031800063FCD5F8F030DB0700D500BE0C4944F0F5
:103190000200FFF759FCBFF34F8FEA68094B02F4B6
:1031A000E0621343EB60BFF34F8F00BFFDE700BF4A
:1031B000648E0100948E010000ED00E03890010063
:1031C000449001000400FA0510B5D0E90243D1E9AA
:1031D0000202A04272EB03032CBF0120002010BDAD
:1031E00008B50A4800F05FFB094AD2E90031C0186F
:1031F000084BD3E9002341F10001904271EB030336
:1032000003D210F1807041F1000108BDC00B002015
:1032100060120020D812002037B505460C460A4837
:1032200001A900F01CFC60B10570446001A90648CA
:1032300000F03FFC18B1054800F03AFB002003B055
:1032400030BD0420FBE700BFC4120020C00B0020EB
:10325000294B73B51E7804461EB90026304602B0CD
:1032600070BD0028F9D0FFF7BBFFD4E902239042DC
:10327000994139D300230DF107008DF8073000F094
:10328000BBF923692BB94FF0FF324FF0FF33C4E98C
:1032900002239DF8070000F0D3F9D4E905309847E0
:1032A00000250DF107008DF8075000F0A5F92369FE
:1032B000C3B1D4E90212B2F1FF3F08BFB1F1FF3F41
:1032C00005D05B1842F10002C4E9023235469DF890
:1032D000070000F0B5F9002DBFD00848214600F0E6
:1032E000CEFFBBE71D46F2E7B3F1FF3F08BFB2F1E7
:1032F000FF3FB2D0F1E700BF6812002060900100EC
:1033000013B5114B11491868019008231048582231
:1033100000F092FB044698B90E4A0F4801A900F04C
:10332000B3F9044660B90C48012100F09FFA01236B
:103330000A4A0948194600F001FA094B01221A709D
:10334000204602B010BD00BF5C9001006C1200204E
:10335000C412002041340100C00B0020FFFF7F0099
:103360006812002030B56AB103684FF0FF344FF0A7
:10337000FF355A614A1E5142C3E902455141196164
:10338000002030BD0720FCE7F7B5044600250DF10D
:10339000070017460E468DF8075000F02DF9D4E9C6
:1033A0000223B3F1FF3F08BFB2F1FF3F07D1FFF7A0
:1033B00017FF301841F10001C4E9020101259DF811
:1033C000070000F03DF955B12369A76103B12661FB
:1033D0002146002003B0BDE8F040FFF71DBF28469E
:1033E00003B0F0BD37B5054600240DF107008DF898
:1033F000074000F001F9D5E90223B3F1FF3F08BF10
:10340000B2F1FF3F1FBF4FF0FF324FF0FF33C5E96E
:10341000022301249DF8070000F012F934B1294677
:10342000012003B0BDE83040FFF7F6BE204603B0F0
:1034300030BD0000014800F036BA00BFC00B0020CC
:103440002DE9F743064600F019FA40B1624AD2E985
:10345000003113F1807341F10001C2E90031002114
:10346000304600F01AFA38B15C4C236823B120686A
:10347000FFF7EEFE002323600121304600F00DFA35
:1034800020B1FFF7ADFE564BC3E900015548534C40
:1034900001A900F01EFB4FF0FF384FF0FF39A0B933
:1034A000DFF844814D4D404600F0FFFE002800F05B
:1034B0008580D0E90223B3F1FF3F08BFB2F1FF3F9F
:1034C00032D1404600F0EBFEEDE70378012B20D02F
:1034D000022B08D1444D284600F0E1FE002877D0A9
:1034E000C0E90289F7E75BB94168D1E90223B3F18A
:1034F000FF3F08BFB2F1FF3F02D03B4800F0BFFEE4
:1035000001A9384800F010FB01A9364800F0E1FAA3
:10351000C5E741682368994202D100232360EFE7A1
:10352000314800F0C5FEEBE7296891B12968D1E97F
:10353000020182428B412FD22B68D3E90223B3F1DF
:10354000FF3F08BFB2F1FF3F03D02968404600F0BB
:1035500096FE404600F0A3FED0E902490746FFF779
:103560003FFE201A69EB0109012879F1000318DBFD
:10357000B0F5350F13D3FFF75DFF1C4A02441C481A
:103580004FF49603002100F0F9F890B92B6813B9B5
:10359000304600F0CBF82F6003B0BDE8F083224640
:1035A000EDE71348002100F06EF93846FFF750FEB2
:1035B00001E00D28F9D000232B6074E7074B1B684E
:1035C000002BE9D1304603B0BDE8F04300F0B2B8BB
:1035D000084B01221A7093E760120020E0120020CD
:1035E000D8120020C412002060900100FFFFB40038
:1035F000C00B00206812002070B5EFF3108672B681
:103600000C4A946801239CB993600B4B0B4DD3F883
:10361000801029401160C3F88050D3F884105160A5
:103620004FF0FF32C3F88420047006B962B670BD53
:103630000370FAE7E412002000E100E0FC06FFBDA1
:10364000084B9A6810B55AB150B9EFF3108172B6B1
:10365000054A1C6814605C685460986001B962B6E1
:1036600010BD00BFE412002000E100E0435882B02A
:103670003BB10023435043580193019B012002B00A
:1036800070471846FBE70000F8B5204B4479204E00
:1036900043F824201F4A204B06EBC4049B1A2279CE
:1036A000DB081B0432B143F002001C49FFF7CCF9E0
:1036B0000820F8BD02680C88C2F8084590F904504B
:1036C0008A7804795201002DD2B219DB14494F19BE
:1036D00087F8002301226D0904F01F0402FA04F4A4
:1036E00041F82540427906EBC201012446F8320038
:1036F0000C7143F003000B49FFF7A6F90020D8E74F
:10370000094904F00F040A55ECE700BFF812002045
:10371000F0120020648E0100A48E01006C90010064
:1037200000E100E08E90010014ED00E0036801224A
:103730001A607047036801225A60704773B501F13F
:103740005005AD000068ADB24FF480348C400026C7
:10375000C0F80843C0F84843465101F5A8714559DF
:10376000019522F07F42019D40F82120C0F844439A
:103770000BB1C0F8044302B070BD00002DE9F74F53
:103780000D4622F07F4402684FF4803705F1500661
:103790008F408046B60002EB8500C2F84873B6B28F
:1037A000C2F80873D2F8041599464FF0000BD0F810
:1037B0004035C0F8401542F806B05B1A92590092A5
:1037C00023F07F43012B009A4FEA850A0CD1264B48
:1037D0004FF4806043F001039847D8F8003043F875
:1037E00006B09B590193019BD8F80010D1F80465ED
:1037F000C1F84473A31B23F07F43012B1CD11A4B48
:1038000005F5A875013443F0010341F825404FF454
:1038100080609847D8F80030D3F804359E4209D12B
:10382000D8F800300020C3F84473C3F8047303B021
:10383000BDE8F08F0D20FAE78A44C9F1FF13CAF8FA
:103840004045D1F80405221A013A22F07F4203F5DF
:103850007F439342EED3002AE2D10134CAF84045B7
:10386000D1F804359842DAE7A090010003680222FB
:10387000C3F8442309B1C3F80423704700684FF428
:103880008271FFF7F3BE4FF4803303FA01F103684E
:10389000C3F84813C3F80813704750318900006813
:1038A00089B2FFF7E3BE0368D3F804057047000050
:1038B00090F90430002B09DB5A09012103F01F03A2
:1038C00001FA03F34032024941F82230704700BF49
:1038D00000E100E0024B034A1B681068184700BF74
:1038E000F8120020F01200201EF0040F1CBFEFF3AE
:1038F00009800AE0EFF308800549064A884201D8AA
:10390000904202D88D464FF00000034B184700004C
:103910000000012000E0002041390100BFF34F8F7B
:103920000549064BCA6802F4E0621343CB60BFF35B
:103930004F8F00BFFDE700BF00ED00E00400FA0577
:103940002DE9F3470546FFF7C9F8FEF731FF0028D8
:10395000FBD12D4C2D482E4B241AE40824049F6AD9
:1039600044F00104002D49D0AA692A492046FFF7F6
:103970006FF8EB680193AB68274900932046D5E9BF
:103980000023FFF77AF8EB6900932449D5E9042373
:103990002046FFF766F81E4BDB6A990703D52049DE
:1039A0002046FFF751F8DFF88890DFF888A000265E
:1039B0004FF0010808FA06F33B4206D059F82620DA
:1039C0001AB151462046FFF743F801361A2EF1D1BD
:1039D0003A0605D50E4B13495A6B2046FFF738F8C7
:1039E0003B0405D50A4B10499A6B2046FFF730F887
:1039F0002846FFF793FF02B0BDE8F0870B49204649
:103A0000FFF722F8C7E700BFAC8E0100648E01000B
:103A100000ED00E0A6900100BB900100F0900100D5
:103A20004B9101009A910100BA9101001891010097
:103A3000949601008F91010010B561B1B2FBF3F4CF
:103A400003FB1424A4B244B9C0E900148460828149
:103A5000C381204610BD0E20FCE70920FAE737B5E8
:103A600050E8013F9DB2C48925448489A54228BFFE
:103A70002D1B0489A54202BFBFF32F8F002207E050
:103A8000C5EA030540E80154002CE9D14FF00102DA
:103A90008DF803200193019A0A609DF8031001F04C
:103AA000FF0321B1006810FA82F003B030BD184660
:103AB000FBE70A884B889A4209D150E8012FC2EAF5
:103AC000024240E80123002BF7D10120704700207B
:103AD000704737B550E8023F1FFAA3F5C488A542E6
:103AE00002BFBFF32F8F00220DE0C48925448489D3
:103AF000A54228BF2D1BC3EA054540E80254002C0F
:103B0000E8D14FF001028DF803200193019A0A6079
:103B10009DF8031001F0FF0321B1006800EB124093
:103B200003B030BD1846FBE70A884B889A4209D19A
:103B300050E8022FC2EA224240E80223002BF7D1CC
:103B4000012070470020704710B5034653E8000F6E
:103B50000A4643E8002494F0000FF7D110BD10B5D9
:103B6000034653E8002F42EA010043E8000494F0C2
:103B7000000FF6D110BD10B5034653E8000F00EA60
:103B8000010243E8002494F0000FF6D110BD10B5F7
:103B9000034653E8002F02EB010043E8000494F0D1
:103BA000000FF6D110BD10B5034653E8002FA2EB6D
:103BB000010043E8000494F0000FF6D110BD01218C
:103BC000FFF7CDBF0021FFF7D6BF10B590B1D0E908
:103BD000012301689B1ADBB20A60013BDBB2FF2BB9
:103BE000026802D10020107110BD11684C1C1460D5
:103BF0000B70F2E70E20F7E737B5054600240DF10C
:103C000007008DF80740FFF7F7FC2A686B6811681A
:103C100099420ED9481E106011F8013CEC68298ABF
:103C200001FB0344AB6811791B1ADBB2994238BF20
:103C300013719DF80700FFF703FD204603B030BD68
:103C400037B5054600230DF107000C468DF8073007
:103C5000FFF7D2FC2A681368591C1160E968641ADE
:103C6000298AB4FBF1F41C709DF80700FFF7E8FC0B
:103C700003B030BD826810B504462AB143690168BB
:103C8000006998470023A36010BD0EB403B50399E3
:103C900021B104AB01AA019300F076F802B05DF8FF
:103CA00004EB03B070470A2938B504460D4602D12B
:103CB0000D21FFF7F8FFA3682268591CA160D554B5
:103CC000D4E901329A4204D32046BDE83840FFF7D8
:103CD000D1BF38BD2DE9F84F9846DDE90A431546B6
:103CE00082460F460A464FF00109AA420FD2C1454B
:103CF00038BFC14613F0010B01D16CB90024012675
:103D0000B8F1010F1BD908F1FF386E43F8E709F14C
:103D10000109B2FBF5F2E8E79B070ED5B8F1000FF9
:103D20000CBF30262026A145E9D2013C3146504641
:103D3000FFF7B9FF002CF6D1E0E72026F3E7B7FB49
:103D4000F6F39D42E1D9DFF83C80B7FBF6F350462D
:103D500018F8031006FB1377FFF7A5FF3346AB42B5
:103D6000B6FBF5F6F1D2BBF1000F02D00CB1A145C4
:103D700001D3BDE8F88F20215046013CFFF793FFA7
:103D8000F4E700BFFC9601002DE9F74F0546174602
:103D90008846002900F03E8118F8011B49B92B7BA9
:103DA000002B00F03781284603B0BDE8F04FFFF745
:103DB00061BF252940F0B780002698F800302D2BF0
:103DC000424608F1010823D0302B24D02B2B25D0DC
:103DD00000242A2B02F1010123D13B681A1D1B6824
:103DE0003A601C440A4613782E2B26D101324FF03C
:103DF000000A104610F8011BA1F1300CBCF1090FAC
:103E00001DD80A2303FB0A13A3F1300A0246F0E788
:103E100046F00106D1E746F00206CEE746F004067A
:103E2000CBE711F8013CA3F130000928DBD80A22C6
:103E300002FB0434303C0A46CBE74FF0000A12F88C
:103E4000011B01F0FB0068289046F8D0782909D8BA
:103E50006F290CD8632962D022D8252963D058292C
:103E600000F0888098F80030002B95D197E77039E2
:103E70000829F7D801A353F821F000BFEF3F010054
:103E8000653E0100653E0100853F0100653E010081
:103E9000633F0100653E0100653E0100753F010082
:103EA000642901D06929DDD13A68D2F80090111D4A
:103EB00089EAE9723960A2EBE9724FF0010B092A35
:103EC00035DCD34538BFD3462CB1B9F1000F01DB47
:103ED000720700D5013CB30702D5BAF1000F03D039
:103EE000F00701D44CBB0024B9F1000F2DDAC9F161
:103EF00000092D212846FFF7D6FE06F00302022A0C
:103F000004D1BAF1000F01D11CBB0024CDE9004659
:103F100053460A2249462846FFF7DCFEA2E73B68E3
:103F20001A1D19783A602846FFF7BDFE9AE70A2362
:103F30000BF1010BB2FBF3F2C1E7A345D4D2202170
:103F40002846013CFFF7AFFECCE77107D5D52B2102
:103F5000D0E7A345DAD230212846013CFFF7A3FE83
:103F6000D2E73968CDE900460A1D3A6053460A2275
:103F70000968D0E739680A1D3A60CDE90046534622
:103F80001022F5E73B681A1D3A6016F00106D3F8D7
:103F9000009024D1B9F1000F03D0484604F02CFC66
:103FA0000646B4421DD809F1FF3919F8011F00294E
:103FB0003FF458AF2846FFF776FEF6E7284601366D
:103FC000FFF771FE19F806100029F7D1A642BFF4D9
:103FD00049AF20212846013CFFF765FEF6E70026A1
:103FE000F0E720212846013CFFF75DFED9E73B685A
:103FF0001A1D3A60302128461C68FFF754FE7821CC
:104000002846FFF750FE00220823CDE90032214662
:10401000102280E703B0BDE8F08F00BF2DE9F84F14
:10402000B0F806A04579D2F800B09DF828900AFBB8
:1040300005F5043D88460BEB0301A94203F1040496
:1040400088BFA5EB030BB4FBFAF607460AFB164440
:10405000C2F800B04EB9AAEB04055D4528BF5D4625
:10406000BBF1000F04D1BDE8F88F3F68013EF1E7D6
:10407000043408EB06003C442A46B9F1000F0DD089
:104080002146ABEB050B04F039FBDA452E443F68C3
:1040900055464FF0000428BF5D46E1E70146204643
:1040A000EFE7FFF792BDF8B546790146721E054667
:1040B000002393422D6803D30024A64202D8F8BD02
:1040C0000133F6E70F682846FFF7BAFD0134394699
:1040D000F3E72DE9F843068ACD1C0746FFF78CFD70
:1040E000043E35440446B5FBF6F5F0B14FF4807359
:1040F000EDB28380C680013D076081464FF0000825
:10410000A84512D23846FFF777FD064648B16379D5
:104110000133637108F10108C9F8000007608146A6
:10412000EEE72046FFF7BFFF34462046BDE8F883A0
:1041300001210430FFF72BBD10B5012104460430E6
:10414000FFF731FDC0B220B92046BDE81040FFF7AF
:10415000AABF10BD1FB503920022009203AAFFF769
:104160005DFF05B05DF804FB1FB5039201220092CC
:1041700003AAFFF753FF05B05DF804FB41DF70476A
:104180000D4B10B500241C700C4B1C60BFF35F8FEF
:104190000B490C4800F05DF80B4A136943F010031B
:1041A00013614FF0A0434FF08072C3F80C25032237
:1041B000C3F86027204610BD041300200813002018
:1041C00018970100FC12002000ED00E013B5002458
:1041D0000DF107008DF80740FFF70EFAF1EE103AE7
:1041E00023F09F03E1EE103ABFF35F8F134B4022A1
:1041F000C3F884219DF80700FFF722FA8DF80740E5
:104200000DF107004FF0A044FFF7F6F94FF080736F
:10421000C4F8083502F050FD58B1FFF7AFFF4FF07A
:104220008073C4F80C359DF80700FFF709FA02B057
:1042300010BD20BF40BF20BFF1E700BF00E100E09C
:10424000836800225A60C3E904229A60DA601A6027
:1042500070470B684A684360934208BF00230160BF
:1042600008BF43607047436843B102689168526871
:104270000B449342436004BF00234360704770B512
:10428000446806460D46206818B1B3682946984729
:1042900018B923682B60256070BD2468F3E7436874
:1042A000186808B102681A60704743681868704758
:1042B0004368186800B97047884203D102681A60E1
:1042C0000120704703460068F4E7000010B50D496F
:1042D000A1F59472914201D800200FE08C1AE30FEF
:1042E00003EBE4035B1002EBC30452F83330834268
:1042F00005D802D204F10802ECE7606810BD21463F
:10430000E8E700BF249C010008B5FFF7DFFF024B80
:10431000002808BF184608BDE79A01001FB50378BA
:104320008DF800304368019383688DF80830C368C6
:10433000054A0393054B684653F8213052F8211083
:10434000984705B05DF804FB0C1300201013002003
:104350001FB503788DF800304368019383688DF8AA
:104360000830C368054A0393054B684653F821306B
:1043700052F82110984705B05DF804FB0C1300209B
:1043800010130020F0B5194B90F800C091F81DE013
:1043900043F82C20164B16460A6943F82C20154B7F
:1043A00003F80CE00C4607460FCC89B06D460FC5EC
:1043B00094E80F0085E80F00CDF810C0BEF1000FA3
:1043C00009D0002E0C4A694608BF3246381D00F05D
:1043D00021FD09B0F0BD002E084A694608BF3246EB
:1043E00007F10C0000F0F8FAF3E700BF101300200B
:1043F0000C130020141300201D4301005143010041
:1044000000F1804000F5C040002382B003600368E3
:104410000193019B02B07047800000F1A040D0F8EA
:10442000002722F44032C0F80027D0F8003743EAD2
:104430000141C0F800177047054B4FF0FF320728C5
:1044400043F8202084BFC01880F84820704700BF80
:104450001813002010B5184991F8583053BB4FF08D
:10446000FF3222FA03F0C00748BFC81803F1010366
:1044700048BF80F83020202BF3D10024E0B2013473
:10448000FFF7DAFF0C2CF9D10C4B0022C0204A6553
:1044900083F80603402018604FF4BE70FFF7B0FFAA
:1044A000074B4FF00040C3F80403012381F8583054
:1044B000104610BD0820FCE71813002000E100E0C2
:1044C00000600040034B93F85800003818BF0120EB
:1044D000704700BF18130020F0B5394E331893F918
:1044E0003030002B69DA8D78C5F34005002D0BBF05
:1044F000082300230C240824A34201D10420F0BD8A
:1045000056F82370013743D137185CB246F82320A0
:1045100087F8304015B9F21882F848008A785507B4
:1045200016D4D70736D5820002F1A042D2F8005740
:1045300025F00205C2F80057224FC50800F0070C0D
:10454000012202FA0CF217F805C042EA0C027A5571
:104550008A780D7812F0020225D09B0003F1804387
:1045600003F5C0430002D3F8102522F4473222F4A9
:104570004072C3F810252D04D3F8102500F4F8502C
:1045800005F4403528431043C3F810050020B6E772
:104590000133B1E74D7800F5E0724FF0A047AD0070
:1045A00047F82250C8E7083C46FA84F494F85000D3
:1045B00040EA851584F85050E8E708209FE700BFDF
:1045C000181300206C13002038B5204C251895F9DD
:1045D0003020072A18DD083A44FA82F494F8503063
:1045E0009B09032B0BD14FF0A043D3F81015C1400A
:1045F00001F001010231BDE83840FFF70DBF012B8A
:104600000CBF02210321F6E7D3B2072B1DD893007C
:1046100003F1804303F5C043D3F8100540F00100D7
:10462000C3F8100502F1400040B2800080B2FFF7ED
:10463000E7FE51B195F9303054F823302BB1012306
:1046400003FA02F2024BC3F8042338BD181300200A
:10465000006000404FF0A043D3F8103523FA00F07B
:1046600000F00100704700002DE9F74F00244E4D87
:1046700001944FF48072012102F1804303F5C0439D
:1046800090B21B68012B06D1D5F804330B4202D03F
:10469000FFF7B6FE0C430432B2F5907F4FEA4101BA
:1046A000EAD1414BD3F87C31012B0CD14FF4BE70D1
:1046B000FFF7A6FE4FF0A04344F00044D3F82025B6
:1046C0000192C3F82025E3B2D3B1384F002501266B
:1046D000344210D0AB0003F1804303F5C043D3F85C
:1046E0001005D3F8101557F8253023B1C1F3014157
:1046F000C0F3042098470135082D4FEA4606E7D15C
:10470000002C48DA294D4FF0A048294E4FF00009FF
:10471000012716F9013B5A1C31D0C3F3C2020832FB
:104720006A44DCB212F8042C03F03F0A03F00703DA
:1047300007FA03F31A4222D00AF5E073504658F8FC
:104740002330C3F3014BBBF1020F0CBF0321022145
:10475000FFF762FE07FA0AF3C8F8203505EB0A03F3
:1047600093F9303055F823304BB1A109032904D017
:10477000BBF1020F12D1012901D15046984709F12E
:104780000109B9F1040FC4D1D8F820350193C8F854
:104790002035002BB9D103B0BDE8F08FBBF1030F7A
:1047A000EDD10229E8E700BF0060004018130020A7
:1047B00068130020014B1B68184700BF74130020CA
:1047C0000E4B984237B50C4602D0002003B030BDE6
:1047D00000230DF107008DF80730FEF70DFF084BA1
:1047E0001D7915B901221C601A719DF80700FEF7AA
:1047F00027FF002DE9D01120E8E700BF002000408E
:1048000074130020034B984201BF034B00221A602F
:104810001A71704700200040741300200023435099
:1048200082B043580193019B02B070470A4610B50D
:104830004FF48E71FFF7F2FF136A9168C95C136A37
:1048400001331362C0F81C1510BD8B690A4610B500
:104850004FF4847123B9FFF7E1FFD0F8183510BD8C
:10486000FFF7DCFF536AD168D0F81805C854536AC3
:1048700001335362F3E700001FB501238DF80030C8
:10488000044BCDE90110D3E900126846904705B00A
:104890005DF804FB7C13002030B54D4DD5F8043392
:1048A0009A0585B051D5D5F82431002B4DD04FF461
:1048B00092712846FFF7B2FF4FF40173C5F8083331
:1048C000444B93F829200AB901226A604049022228
:1048D0008DF80020D1F88024C1F8802403929A69D1
:1048E0000292DA6801920022C3E906226846D3E9FF
:1048F000001290473648D0F81C315BB1354A5169F7
:10490000136A99424DD992F82830002B49D11146AB
:10491000FFF78CFF2E48D0F84431002B56D04FF4CF
:10492000A271FFF77BFF2B4B93F829200AB10122DC
:1049300002609A69002A49D0586AD96800229A61AF
:1049400005B0BDE83040FFF797BFD5F804335B07EB
:10495000D0D5D5F80831002BCCD01E4C1C482146B0
:10496000FFF773FF636AA2699A42C3D1E369E16802
:104970004BB1A3612369E3600023606AE361636272
:10498000FFF77AFFB6E794F829300BB901236B6083
:104990000F4B4FF40172C3F808230023606AA36130
:1049A000EEE70B484FF48E71FFF738FF5369002B89
:1049B000B0D051690291002391688DF800300191C7
:1049C00053616846D2E900139847A3E705B030BDAC
:1049D000002000407C1300202DE9F843534D90F84F
:1049E00004802C2303FB0853064693F82A300C4618
:1049F0009146002B40F096804D490068FFF7E0FE9D
:104A00000746002840F0908022683068511C0BD087
:104A10004FF0A04101239340C1F8083502F5E0733F
:104A20004FF0030C41F823C061684B1C1FBF01F518
:104A3000E0734FF0A04C4FF0000E4CF823E0A36958
:104A4000C0F8243594F814C0637DBCF1010F4CEA22
:104A50000303C0F86C35C0F81415C0F80C251DD13F
:104A6000A268531C1FBF02F5E0734FF0A0414FF046
:104A7000000C41F823C0E368591C0BD04FF0A04C48
:104A800001219940CCF8081503F5E0714FF0030EB1
:104A90004CF821E0C0F80835C0F810252C2202FBA4
:104AA00008F2AB18C3F804902369AB50B9F1000FBA
:104AB00020D04FF48E71247FFFF7B0FE4FF4A27127
:104AC0003068FFF7ABFE32681A4BC2F80433130BA1
:104AD00042F307326101002AC9B21EDB164884186E
:104AE00084F800130121520903F01F0301FA03F3B4
:104AF00040F8223033680422C3F800252C2303FB3E
:104B000008530022C3E9062283F829205A610122B2
:104B100083F82A203846BDE8F883084A03F00F03DB
:104B2000D154E7E70827F5E71127F3E77C130020C6
:104B3000994801008000020000E100E014ED00E06F
:104B4000F8B503680579304C0022C3F800252C2203
:104B500002FB05425268A2B12C4AC3F808231A0B83
:104B600043F30733002B0CDB02F01F015B0901222A
:104B70008A402033264941F82320BFF34F8FBFF3EB
:104B80006F8F0068D0F80C65D0F81415D0F8083590
:104B9000D0F810254FF0FF37BE42C0F8147518BF8B
:104BA00006F5E076C0F80C75C0F80875C0F8107509
:104BB0001EBF4FF0A0474FF0020C47F826C04E1C16
:104BC0001FBF4FF0A04601F5E071022746F82170A3
:104BD000511C1FBF4FF0A04102F5E072022641F8C0
:104BE00022605A1C1FBF03F5E0734FF0A042022160
:104BF00042F82310FFF706FE2C2303FB0544002395
:104C000084F82A306360F8BD7C130020840202001F
:104C100000E100E00279044B2C2101FB02335869CA
:104C2000003818BF012070477C1300202DE9F84F91
:104C3000064690F8048089469246FFF7EBFF04464B
:104C400000283CD1204F2C2508FB057B4FF48E71AA
:104C5000CBF814A0CBF80890CBF820008BF82800F4
:104C60003068FFF7DBFD3068012383605946FFF7AA
:104C7000DDFDDBF804305D461BBB3068DBF814401B
:104C80002B6A9C4211D83368D3F81C21002AFBD030
:104C90000122DA6000202C2303FB087700237B61CC
:104CA000BDE8F88F95F828303BB9D0F81C31002BBF
:104CB000F8D05946FFF7BAFDE2E70F20EBE71120E5
:104CC000EEE72046ECE700BF7C13002000234350B2
:104CD00082B043580193019B02B070471FB5012376
:104CE0008DF80030044BCDE90110D3E9001268467D
:104CF000904705B05DF804FBA81300207FB5434A38
:104D0000D2F82461002E60D010464FF49271FFF764
:104D1000DDFF02238DF80030D2F88034C2F88034F1
:104D20000393D2F83C350293394BDA6801920022A2
:104D3000C3E906226846D3E9001290473348D0F809
:104D4000443173B14FF4A271FFF7C0FF304B9A6941
:104D50003AB10022C3E90622D968D0F83C05FFF732
:104D6000BDFF2A48D0F82031ABB14FF49071FFF766
:104D7000ADFF0123C360264B5A6962B1D0F84C15D0
:104D80000291002299688DF8002001915A616846CD
:104D9000D3E9001290471D48D0F858319BB14FF429
:104DA000AC71FFF793FF1A4B5A6962B1D0F84C15FA
:104DB0000291002299688DF8002001915A6168469D
:104DC000D3E90012904704B070BDD2F81031002B27
:104DD000B4D04FF488711046FFF778FF0C4BD2F82F
:104DE0003C0599698842A9D1DC69D96864B1D2F8D7
:104DF000005225F02005C2F800521A699C61DA6061
:104E0000DE61FFF76BFF99E79C61FAE70020004045
:104E1000A81300202DE9F8435A4E90F8048024236B
:104E200003FB0863044693F820300D469146002B9F
:104E300040F0A38054490068FFF7C2FC07460028F1
:104E400040F09D802A682068511C0BD04FF0A04193
:104E500001239340C1F8083502F5E0734FF0030CCD
:104E600041F823C069684B1C1FBF01F5E0734FF088
:104E7000A04C4FF0000E4CF823E0AB69C0F824358D
:104E800095F814C06B7DBCF1010F4CEA0303C0F828
:104E90006C35C0F80C25C0F814151DD1AA68531C38
:104EA0001FBF02F5E0734FF0A0414FF0000C41F836
:104EB00023C0EB68591C0BD04FF0A04C0121994046
:104EC000CCF8081503F5E0714FF0030E4CF821E023
:104ED000C0F80835C0F81025242202FB08F2B318E8
:104EE000C3F804902B69B350B9F1000F2FD04FF4E1
:104EF00088712A7FFFF7EAFE20684FF49071FFF770
:104F0000E5FE20684FF49271FFF7E0FE20684FF451
:104F1000A271FFF7DBFE4FF4AC712068FFF7D6FEFD
:104F200023681A49C3F80413190B43F307335201DA
:104F3000002BD2B21CDB1648C51885F800230122CD
:104F40005B0901F01F0102FA01F140F82310236808
:104F50000822C3F80025242303FB08660023C6E9C2
:104F600006337361012386F820303846BDE8F883A4
:104F7000084B01F00F015A54E9E70827F5E711271C
:104F8000F3E700BFA8130020FD4C0100100342000E
:104F900000E100E014ED00E0F8B5444C057924236D
:104FA00003FB054302465B680068ABB1404BC0F8A9
:104FB000083340F30733002B4FEA10310CDB01F0CC
:104FC0001F065B090121B14020333A4E46F82310F9
:104FD000BFF34F8FBFF36F8FD0F8003223F0200361
:104FE000C0F80032242303FB05439B692BB14FF427
:104FF000A271FFF76BFE012343604FF4AC71FFF722
:1050000065FE0123C360242303FB0543D0F8581138
:105010000029FBD0996919B1D0F844110029F5D0C5
:105020000023C0F800351368D3F80C75D3F8146565
:10503000D3F80825D3F810154FF0FF3C6745C3F8A7
:105040000CC518BF07F5E077C3F814C5C3F808C549
:10505000C3F810C51EBF4FF0A0434FF0020C43F839
:1050600027C0771C1FBF4FF0A04306F5E07602274C
:1050700043F826704E1C1FBF01F5E0714FF0A043AE
:10508000022643F82160531C1FBF4FF0A04302F5D6
:10509000E072022143F82210FFF7B4FB242303FB44
:1050A0000544002384F820306360F8BDA813002075
:1050B0001003420000E100E00279044B242101FBCF
:1050C00002335869003818BF01207047A813002028
:1050D00001F06043B3F1005F2DE9F04706468846D2
:1050E00092463BD190F80490FFF7E6FF0446002873
:1050F00036D11D4F3068242505FB09754FF490719A
:10510000C5F814A0C5F80880FFF7E0FD4FF4AC71B6
:105110003068FFF7DBFD33686A69A968C3F8441596
:10512000C3F8482501229A606A68DAB9D3F82021C9
:10513000D3F858011AB90028F8D00F2007E000284A
:10514000FBD10122DA60D3F85821002AFBD02423B6
:1051500003FB097700237B61BDE8F0871020FBE7A4
:105160001120F9E72046F7E7A813002000F180405E
:1051700000F5E040002382B0036003680193019BC7
:1051800002B07047F0B5524B524CD3F8043185B0A1
:10519000002B3DD094F82E204FF48270FFF7E6FFED
:1051A0002AB394F82F3013BB494AD2F80031002BB0
:1051B00032D04FF48070FFF7D9FF638B94F82D0045
:1051C000834250D921891B1A9BB289B26383CB1ABF
:1051D000616801EB4303C2F82C36C2F830064FF485
:1051E0008270FFF7C3FF3A4B01225A6014E06368F4
:1051F00002932389ADF80C30E36800218DF8041088
:1052000033BB2374236801A89847002384F82F3008
:1052100094F82E30002BC7D12D4BD3F810315BB151
:105220004FF48870FFF7A2FF0023237402238DF848
:10523000043001A823689847254BD3F81431EBB10B
:105240004FF48A70FFF792FF0023237405B0F0BD7E
:10525000208B608363602081E160002AD2D11C4BE7
:1052600001221A60CEE7BAD1E368012184F82F1039
:1052700013B100216183AEE76383B0E766694FF045
:1052800000470125002EE1D0B6FA86F227FA02F394
:105290004632920026EA030602F1804303F5E0431A
:1052A0001B68002BEED01046A2F58C72FFF75EFF54
:1052B000D30882F00402C2F380028DF808308DF822
:1052C000045023688DF8092001A89847DAE700BF49
:1052D00000700040CC13002038B5204A92F82C30E2
:1052E0000446002B37D111601D490078C1F8F00544
:1052F0006078C1F8F4050125E078137482F82D3048
:10530000536182F82F306FF0004382F82E0082F84C
:105310002C504FF48270C1F80833FFF727FF4FF489
:105320008070FFF723FF4FF48A70FFF71FFFA37809
:105330000C485B01DBB280F8073380230360022353
:10534000C1F8043392F82E300BB1C1F80453C1F800
:105350000055002038BD0820FCE700BFCC1300201A
:105360000070004000E100E070B52A4B1A7C02F0AA
:10537000FF05002A4BD10A79012A9CBF264CC4F8AC
:10538000005500F10C0503EB4504247924B993F88A
:105390002D40013483F82D4003EB4503CC790D7A81
:1053A0008E781C715D714B7836021B0106F4E06645
:1053B00003F0300333430E7806F003063343CE7810
:1053C000360306F480563343160406F4E0263343CE
:1053D0004E798979360506F480160906334301F0C3
:1053E00080710B430C4901EB0016000100F1804075
:1053F00000F5E040012AC6F81835C0F81455C0F889
:10540000104502D80123C1F80035002000E011202A
:1054100070BD00BFCC1300200070004070B5324A50
:10542000147C04F0FF03002C5CD1304C01250326D2
:105430001574C4F80863C4F82C16C4F8305692F8F2
:105440002D40AC420CD91D46190101F1804101F5F6
:10545000E0410133082BC1F81455C1F81055F3D1C0
:1054600000F10C03000102EB430300F1804000F562
:10547000E04019795B79C0F81435C0F810151B4964
:1054800001230B604B6042F21073D1F8040108B99C
:10549000013BFAD14FF48070FFF768FE4FF4827041
:1054A000FFF764FE012C11D90F4800210B0103F115
:1054B000804303F5E0430131047F457FC3F8145571
:1054C0000829C3F8104500F10200EFD192F82E1020
:1054D000064B29B103210020C3F80413107470BDDA
:1054E0000221F8E71120FAE7CC13002000700040F9
:1054F0001FB503788DF800308388ADF804308368D9
:105500008DF80630C3688DF807300369029343694C
:10551000054A0393054B684653F8213052F8211091
:10552000984705B05DF804FBFC130020041400202C
:10553000024B4FF4807043F001031847409C010078
:105540002DE9F047154690F80090324A42F829506C
:10555000314A42F829304B7B07460C466BB308684A
:10556000496882008B0002F1A04203F1A04340F29F
:105570000C66C2F800674FF0010AC3F800674FF0ED
:10558000A0460AFA00F00AFA01F1C6F80805C6F8C2
:10559000081540F20D61C2F80017C3F80017FFF7B5
:1055A000C7FF4FF00008D6F81025636822FA03F30E
:1055B000DB070DD5B8F1000F1DD1002D174A4B4662
:1055C00008BF2A462146381DBDE8F04700F02CB937
:1055D00023680AFA03F3C6F80C35FFF7A9FF23681E
:1055E0000AFA03F3C6F8083508F10108FFF7A0FF2F
:1055F000B8F1090FD7D1636801264FF0A04806FA29
:1056000003F3C8F80C35FFF793FF63689E40C8F8B2
:105610000865D2E704140020FC130020F1540100B7
:105620000023435082B043580193019B02B070475E
:105630000B7B032B2AD8DFE803F022261A028B68A3
:105640005A0304D5D0F84C350A699A4207D18B68C1
:105650005B031BD4D0F84C354A699A4216D000231C
:105660000622C0F80035C0F8002518467047D0F86B
:105670004C350A699A42F2D1D0F83C35ECE7D0F8C3
:105680004C350A69E9E7D0F83C35FAE70120704764
:10569000F0B5D0F8243187B004460D46EBB14FF495
:1056A0009271FFF7BDFFD0F80431B3B9AB68C0F811
:1056B00008330223AB60AB68C0F80433D0F8603124
:1056C0001BB1D0F800329B0502D401232362636131
:1056D000012385F82E3007B0F0BDD4F80431002B3B
:1056E00041D04FF482712046FFF79AFF2B6A5F0684
:1056F00009D495F82E3033B92946FFF799FF80F089
:10570000010085F82E002B6A5E073ED405F10C07D8
:105710000FCF01AE0FC63B6833604FF4B071204627
:10572000FFF77EFF4FF4AE71FFF77AFF95F8303048
:1057300013B195F82E3043B30023C4F80032AB60A8
:105740002F4BC4F8083344F30733002B4FEA1432CD
:105750001BDB02F01F015B0901228A4060332949EB
:1057600041F8232011E04FF4A4712046FFF758FFC1
:105770002B7B23BB05F10C070FCF01AE0FC63B6897
:10578000336095F83030002BD7D0D4F8C434C4F847
:10579000C434980725D501238DF8003095F83030B2
:1057A0000BB985F82F302B6A5B0703D595F82E309F
:1057B000002B90D0D5E90031684698478BE74FF42D
:1057C0000073C4F8003240F20223AB6003F1CE73E1
:1057D000C4F80833AB68C4F804330123A360236220
:1057E00079E7590701D50223D6E7DA0701D5032364
:1057F000D2E795F82E30002BCED00423CCE700BFA3
:1058000002029C0100E100E001490248FFF740BFAD
:105810000C1400200030004002494FF04020FFF7F8
:1058200037BF00BF401400202DE9F84F0679314DF5
:105830004FF0340A0AFB06FA05EB0A079B4697F875
:105840002D3080460C469146002B4FD12A4B0068E4
:1058500053F82610FEF7B4FF002849D12168637B76
:1058600087F8323001F5E0724FF0A043B860C7F816
:1058700004B087F82F0087F8300040F20C6745F835
:105880000A9043F82270626802F5E07C43F82C70BD
:10589000D8F80030C3F80815C3F80C25A268C3F87F
:1058A0002425B9F1000F14D0227B43F307315201B4
:1058B0000029C3F30733D2B213DB104C671887F803
:1058C00000230122490903F01F0302FA03F344F8FD
:1058D0002130342303FB0655012385F82D30BDE824
:1058E000F88F074903F00F03CA54F2E70820F6E7E0
:1058F0001120F4E70C1400204C9C010000E100E0B2
:1059000014ED00E0036802790621C3F80015044B8A
:10591000342101FB0233022283F82D20704700BF9F
:105920000C1400202DE9F843DFF8C88290F80490A9
:105930000468342606FB0986002386F82E30CB68DF
:1059400003F06043B3F1005F0D46174603D0102605
:105950003046BDE8F883A64BC4F8083396F82F30DC
:1059600023B1B368C4F804331126F1E712F0140F21
:105970000CBF0123002386F82F308E46BEE80F00AF
:1059800006F10C0CACE80F00DEF80030CCF800306B
:10599000C7F3001386F8303037626B78C4F8883567
:1059A00020464FF48271FFF73BFE4FF49271FFF7F0
:1059B00037FE4FF4B071FFF733FE4FF4A471FFF7D9
:1059C0002FFE17F0010318BF0123C4F8503517F05C
:1059D000020318BF0123C4F840352B78032B00F2D3
:1059E000B580DFE803F084A069022B6903F060430F
:1059F000B3F1005FABD14FF48073C4F80032EA68B2
:105A00006B68C4F844254FF4A871C4F84835FFF713
:105A100007FE01232362A360D4F85031002BFBD092
:105A20004FF4A8712046FFF7FBFDAB682A69C4F864
:105A30004425C4F84835342303FB09834FF48022FE
:105A40009A60082300263A0704D42A78032A1CBF48
:105A50000122E250342303FB09F308EB030258F858
:105A60000330002B75D10125D4F84821D4F8043136
:105A7000002B40F08980003A18BF0122D4F824316D
:105A8000002B00F088804FF492712046FFF7C8FD8C
:105A9000D4F86011D4F8003209B1980504D4256215
:105AA00065610029E0D00022D90574D54FF4A471B6
:105AB0002046FFF7B5FDD7E76B68EA68C4F84425D0
:105AC000C4F848352B6903F06042B2F1005F7FF4FF
:105AD0003EAFAA68C4F834354FF48453C4F838256F
:105AE000C4F80032342303FB0983022212E06B68FE
:105AF000EA68C4F8442517F0200FC4F848354FF081
:105B000034030BD04FF48072C4F8002203FB0983E6
:105B10004FF480229A600123236292E74FF40072CF
:105B2000C4F80022DFE76B68EA68C4F83425C4F8DB
:105B300038354FF48053C4F80032342303FB098313
:105B400002229A600123236200237BE708230726B1
:105B500079E77B0744BF002393607D0606D4342396
:105B600003FB09839A6842F002029A60342303FB24
:105B70000988D8F8083043F40073C8F80830D8F81A
:105B80000830C4F80433E3E64FF482712046FFF78F
:105B900047FD012272E7002A3FF466AF3421D4F8B2
:105BA000C434C4F8C43401FB0982002082F82F00F9
:105BB00093B113F0010F14BF4FF40246032648F2CD
:105BC000012213F0020F18BF164613F0040F48F21B
:105BD000022318BF1E46BBE67B063FF5B9AE09FBA4
:105BE00001812046FFF724FD002808BF0326AFE609
:105BF00002029C010C14002010B586B00024CDE9EF
:105C000002349DF820308DF80510A342CDE904241C
:105C100001A914BF202222468DF80440FFF782FE1E
:105C200006B010BD10B586B0012402930023CDE963
:105C300003328DF805101A4601A98DF8044005932A
:105C4000FFF770FE06B010BDC2DF7047CDDF7047B2
:105C5000D1DF7047D3DF704710B504468378827A6E
:105C600041780078FFF7F0FFA8B923796279E188DD
:105C70002078FFF7EFFF70B9E1782078FFF7E6FFB3
:105C800048B9A378DB0706D4218921B12078BDE883
:105C90001040FFF7DDBF10BD0220FDF79BB80000EC
:105CA0002DE9F04780460D46FDF7A6F80328044687
:105CB00010D8012D10D0022D30D05DB91A48FDF753
:105CC00091FB1A4B04EB440213449D78184B1B5D67
:105CD000AB4219D0BDE8F087144E00EB4003F21838
:105CE000F55C5378470053B1DFF84C900E484A46B4
:105CF0004FF48041FDF748FB08B989F8008027443C
:105D00003E440B4BB2781A55002DE3D0094B1B686B
:105D1000002BDFD02846BDE8F047184700EB4004D1
:105D2000024804446578EFE7E80B00207614002071
:105D3000911400208C14002074140020007802219B
:105D4000FFF7AEBF08B5094B1B7853B10020FDF734
:105D500017F80120FDF714F8BDE808400320FDF70F
:105D60000FB8BDE80840FDF717B800BF7514002054
:105D7000F8B57A4C237805461BB100232370FFF752
:105D8000E1FF172D00F28780DFE805F00C171742BE
:105D90005364757F878C878C949999999999C3C816
:105DA000D0D8E3E3FFF7CEFF6D48FDF71BFB6D4B4B
:105DB000002204461A702046F8BD0020FCF7C6FFFA
:105DC000F0B10020FCF7DCFF022D0CBF4FF4E164C2
:105DD0004FF47A64634B1D7000254FF400464FF476
:105DE0007A7029464FF4FA620023E4FB060102F0C0
:105DF0001DFB2A460146BDE8F8405948FDF7C4BAE4
:105E0000FCF7B2FF022D0CBFC8244FF4C874E1E7C1
:105E10000020FCF79BFF40B10020FCF7B1FF4FF4DE
:105E20004874504B03221A70D6E7FCF79DFFC82434
:105E3000F7E70020FCF78AFF38B10020FCF7A0FF4D
:105E40004FF47A64474B0422EDE7FCF78DFF4FF4E3
:105E5000C874F7E70020FCF779FF48B10020FCF791
:105E60008FFF404B05221A7040F6CD410022C2E759
:105E7000FCF77AFFF5E70020FCF7ACFF394B062270
:105E80001A70002240F26661B5E70020FCF76CFF53
:105E9000344B07221A7000248DE701202070FCF794
:105EA00099FFEEE701202070FCF794FF00224FF4E9
:105EB0000051A0E7FCF77FFF2A4B0C22EAE72A48B3
:105EC0002A4EFDF78FFAD5F1110504461CD0D8B93A
:105ED000012D13D0C820454321464FF400474FF40D
:105EE0007A704FF4FA620023C5FB070102F09EFAB4
:105EF000224601461C48FDF747FA04460220FCF7FB
:105F000033FF0123337056E70220FCF739FF0023EB
:105F1000F8E7FFF717FF134B1222BBE7FFF712FF5B
:105F20000020FCF721FF0F4B1322B3E7FFF70AFF16
:105F30000120FCF719FF0B4B1422ABE7FFF702FF20
:105F40000020FCF711FF0120FCF70EFF054B152286
:105F5000A0E7FCF730FF034B1D709CE7881400207E
:105F6000080C002090140020C80B0020751400209D
:105F7000044B1B68DB0703D5034B1878FFF7F8BE0B
:105F8000704700BF841400209014002038B51C4BCB
:105F900018601C4B10F00204054619601AD01A4B09
:105FA0001A480E221A700F22DA7010229A711122EA
:105FB0005A72042140F23332FDF754F8044648B9CE
:105FC000FDF7A8F8044628B90146114A1148FDF723
:105FD000C9F90446EB0711D50120FCF71FFF6CB986
:105FE00021460D4A0D48FDF7BDF9044630B9BDE81C
:105FF00038400B4A0B480121FDF7B4B9204638BDA3
:10600000841400208C14002076140020549C01007D
:106010003D5D0100789C0100715F01007C9C0100E6
:10602000995C0100749C0100C4DF7047C7DF7047B2
:10603000CADF7047CFDF7047704700002DE9F3419A
:1060400090F82C100546002958D16B4B1B78012B7A
:1060500054D190F82D30012B00F0C180802B4DD110
:1060600043784E2B4AD16548654F00F0F9FBEC1C94
:1060700005F10B0614F8011B384600F0F1FBB442A1
:10608000F8D10A2002F006FB4FF006336A460821D9
:106090000020CDE90033FFF7C9FF5A4E5A4B30605C
:1060A0005A485B49C01AC008000440F00300FCF7DE
:1060B000CBFCEB78062B10D1AC7AFCB921462046FC
:1060C000FFF7B6FF534B01221A70534B1878C0B933
:1060D000524A0821FFF7AAFF3060EC7874B9AB7A16
:1060E000802B0BD121462046FFF7A2FF494B1C70A5
:1060F0004B4B1C704B4B1C70474B1C7002B0BDE8E7
:10610000F081474F3B78012B37D1474ADFF83C817C
:1061100008212046FFF78AFF30604448424E00F0D5
:106120009FFB16F8011B4046013400F099FB082C38
:10613000F7D10A2002F0AEFA3A4A3B7811780133DF
:10614000DBB202293B7046D1042BC6D13848364910
:1061500003680B60436837484B60374903680B603E
:10616000436836484B60364903680B6043684B60B0
:106170000023137001233B70AFE7022B14D12E4A8A
:10618000DFF8C88008212046FFF750FF30602D4817
:10619000294E00F065FB16F8011B4046013400F063
:1061A0005FFB082CF7D1C4E7032BC5D1244ADFF8E5
:1061B0009C8008212046FFF739FF30602248204E9E
:1061C00000F04EFB16F8011B4046013400F048FB7E
:1061D000082CF7D1ADE7042B7FF47FAFCAE7084660
:1061E000FFF722FF074A1060002887D002B0BDE801
:1061F000F041FCF7A5BF00BFE9140020809C01001E
:106200008C9C0100E4140020648E0100948E010037
:106210008F9C010098140020E8140020480C0020F6
:10622000510C0020EA14002048150020B19C010008
:106230004015002050150020581500206015002042
:1062400068150020C09C0100CB9C0100BC9C010093
:1062500010B5114C23684FF0A04101332360D1F8F1
:106260000425D04300F0800002F08002DB07C1F873
:106270000805C1F80C2502D4084800F00EFB23687D
:10628000142293FBF2F102FB11331BB92360044B80
:1062900001221A7010BD00BF70150020D69C0100AD
:1062A000EA1400201FB513221223CDE900234FF07A
:1062B000CC710223CDE90213002307481A46694630
:1062C000FFF73EF908B1FCF73BFF0448FFF71AFB64
:1062D00005B05DF804FB00BF6C9D0100709D0100DE
:1062E0007FB5134B186859686A4603C2197A117052
:1062F000D3F80900D3F80D105B7C03AA03C20D4943
:106300000D481370FEF7E8FF08B1FCF719FF694666
:106310000020FFF729F808B1FCF712FF03A90220BB
:10632000FFF722F808B1FCF70BFF07B05DF804FB9C
:10633000369D010039600100549D01002DE9F04FA8
:10634000BC4885B000F0A9FA4FF0A0430322C3F87F
:106350001C278022C3F808254FF480410020FCF759
:10636000D5F908B1FCF7ECFEFCF70EF9FFF7B8FF22
:10637000FFF798FF00F060FC08B1FCF7E1FE00F0C9
:10638000E5FC08B1FCF7DCFEAB4AD2F81200D2F80B
:10639000161001AB03C3D2F81A00186001A8FFF76A
:1063A0005BFC08B1FCF7CCFE00210846FFF73CFE81
:1063B00008B1FCF7C5FEFCF7A3FF08B1FCF7C0FE6F
:1063C00000210120FFF7E2FD08B1FCF7B9FEFDF75F
:1063D000D7FE08B1FCF7B4FE002204211046FFF7F7
:1063E00029FEFCF78DFF954A9548964C0121FCF754
:1063F000B9FF206008B1FCF7A3FE4FF0A043802254
:10640000C3F80C25FDF7BCFE206008B1FCF798FE30
:106410008D4800F042FA8D4800224FF48041FCF78D
:10642000B3FF206008B1FCF78BFE894E337863B967
:1064300001258848256001F01BFA256001F0A2FAC9
:106440002060854800F029FA3570844B1B78012BB9
:1064500040F0EC80824B1B78012B40F0E78001F08C
:10646000A9FC804C01F030FC4FF47A7544F0010433
:106470004FF47A40A047013DFAD17B4801F045FC3A
:1064800001F036FC01F088FC01F009FB01F0DCFAB8
:1064900064254FF47A40A047013DFAD1734E744C05
:1064A000744FDFF800B206F10802311D304601F0EA
:1064B000AEFA01F0DFFA214628466F4DFEF7AEFF37
:1064C00023882B8021460220FEF7A8FF23886149FC
:1064D0006B80012000F0D6FE5E4A684C39460720EA
:1064E00001F0A0F9664800F0D8F9D7E902899BF8D5
:1064F00000A00AF1400349462370404601F04EFFD8
:1065000000F11E03637001F06FFF02460B46404628
:10651000494601F085FD5B4B002201F085FD01F04D
:106520003DFFD7E904890028B8BF4042A070494622
:10653000404601F033FFE07001F056FF02460B4683
:106540004046494601F06CFD4E4B002201F06CFDC7
:1065500001F024FF2071D7E9000101F01FFF0314AF
:10656000494F63710312A371AAF180033E493B7046
:10657000338891ED007AFB701B0AF2EE046A3B71DE
:106580002B887B7127EE267A6B88BB713F4DE071BB
:106590007B23FDEEC77AFB71AAF140032B700A231F
:1065A0006B7017EE903A01227A70BA70AB7091ED71
:1065B000017A374827EE267A1B12FDEEC77AEB7078
:1065C00017EE903AD1ED037A2B7167EEA67A1B1283
:1065D000FDEEE77A92446B715FFA8AFA17EE903A11
:1065E000BAF1400FAB7108BF8BF800204FEA2323AC
:1065F0001A4AEB714FF00203137018BF8BF800A01A
:1066000000F04BF9234A137883B9234923680B60C0
:1066100063684B6021493B680B607B684B60204995
:106620002B680B606B684B6001231370FDF7CEFD88
:1066300030BF0AE7DD9C0100369D01005162010078
:10664000689D0100E4140020E49C0100280C002057
:10665000E91400209C140020EA9C0100EA140020A8
:1066600098140020609D0100181500200C150020D2
:1066700096140020F014002008150020401500207A
:106680000E9D0100000059405015002060150020AB
:10669000169D0100E8140020481500205815002020
:1066A00068150020500C00200369C26893429CBF0B
:1066B00080681B18013B981A70472DE9F843D0E910
:1066C00002940546A9EB04084068904520440F4613
:1066D000144404D902F012F8EC60BDE8F883424695
:1066E000A4EB090402F00AF86868224607EB0801E7
:1066F000F0E72DE9F843C5680646894617464FF08E
:1067000000083469B3687068A54228BFE418013CEA
:10671000621B5C1BBC4228BF3C46944228BF144607
:1067200049462844224601F0E9FFB3682544AB42BC
:1067300008BF00253F1BA044A144F560E1D14046BD
:10674000BDE8F88310B5114C114AA2610223C4E9D7
:106750000433104BE361A2644FF400730E4A0F49F7
:106760002362E26400231022E01DA3626362E362FD
:10677000A3656365E365226502F01CF808492046BD
:1067800002F018F82023A37110BD00BF741500207B
:106790007C9D0100FC150020EC150020859D01006A
:1067A000899D010070B5164B182400FB04451D445B
:1067B00004FB00331646DC6A012C0ED0022C18D0E4
:1067C000E4B92846FFF770FF864204D832462846CF
:1067D000FFF773FF3446204670BD2846FFF764FF7D
:1067E0008642344628BF044622462846FFF765FF06
:1067F000F1E72846BDE87040FFF77BBF0024EAE7D9
:106800007415002073B50E4B1B7804460D461646D2
:106810000BB9FFF797FF00230DF107008DF8073044
:10682000FCF7EAFE324629462046FFF7BBFF044646
:106830009DF80700FCF704FF204602B070BD00BFC2
:106840007415002013B504460846019101F0D4FFE9
:1068500001990246204602B0BDE81040FFF7D2BFC2
:106860000FB410B5A2B024AB802153F8042B0193D0
:1068700002A801F033FF802804460ADD802202A925
:106880000020FFF7BFFF204622B0BDE8104004B053
:1068900070470028F7DD0246F1E701460020FFF7C8
:1068A000D1BF07B50122019001A90020FFF7AAFF7F
:1068B000019803B05DF804FB4FF08053D3F830012A
:1068C000421C04BF4FF0704393F8E00F831F5842FF
:1068D000584170474FF0704393F8E02F062A09D1D2
:1068E000D3F8E83FC3F30313033B042B02D8024A57
:1068F000D05C7047002070479F9D0100024AD2F88B
:106900000034002BFBD0704700E0014010B5FFF7CA
:10691000D3FF40B14FF08053944AD3F82433C3F3EC
:106920000423C2F84035FFF7D5FF10B1904B914AD0
:106930005A67FFF7C1FF48B14FF080534FF08042D4
:10694000D3F84432C3F34233C2F83C35FFF7C2FFF9
:1069500030B1894AD2F8FC3023F08073C2F8FC30A1
:10696000FFF7AAFF40B14FF080430022C3F80C218B
:10697000C3F81021C3F83825FFF7ACFF20B14FF062
:1069800080430322C3F8A025FFF7A4FF60B17B4B2F
:106990000522C3F810260122C3F888260022C3F876
:1069A00018263F22C3F814264FF08053D3F8302125
:1069B000511C09BF4FF07043D3F8343193F8E02FE6
:1069C000D3F8E83F08BFC3F30313062A4DD1033BB6
:1069D000042B03D86A4AD35C002B46D04FF0805278
:1069E000684BD2F80414C3F82015D2F80814C3F881
:1069F0002415D2F80C14C3F82815D2F81014C3F8D3
:106A00002C15D2F81414C3F83015D2F81814C3F8A2
:106A10003415D2F81C14C3F84015D2F82014C3F86A
:106A20004415D2F82414C3F84815D2F82814C3F832
:106A30004C15D2F82C14C3F85015D2F83014C3F802
:106A40005415D2F83414C3F86015D2F83814C3F8CA
:106A50006415D2F83C14C3F86815D2F84014C3F892
:106A60006C15D2F84424C3F87025FFF725FF48B110
:106A70004FF080534FF08042D3F8583203F04F0369
:106A8000C2F8E43EFFF718FF48B14FF08043D3F857
:106A90000024D20744BF6FF00102C3F800244FF076
:106AA0008053D3F83021062A0ED1D3F83431033B7A
:106AB000042B02D8344AD35C33B1344AD2F83C3781
:106AC00043F48063C2F83C372B4AD2F8883043F451
:106AD0007003C2F88830BFF34F8FBFF36F8F4FF052
:106AE0008053D3F83021062A0FD1D3F83431033B39
:106AF000042B02D8264AD35C3BB14FF01023D3F8C5
:106B000008224FF08043C3F858254FF01023D3F8E4
:106B10000022002A03DBD3F80432002B22DA1D49BD
:106B200001234FF01020C1F804351524FFF7E6FECD
:106B3000C0F80042FFF7E2FEC0F80442FFF7DEFEB5
:106B40000023C1F80435FFF7D9FEBFF34F8F0A4980
:106B5000114BCA6802F4E0621343CB60BFF34F8F5E
:106B600000BFFDE70D4B0E4A1A6010BD003001401A
:106B700000C007400DF0ADBA00ED00E0005000404D
:106B8000909D010000C00040959D01000010004054
:106B90009A9D010000E001400400FA05540C002019
:106BA0000090D00310DF704713B5044609496846CA
:106BB000FDF74FFB019808B902B010BDD0E90021E4
:106BC0002046904718B16846FDF74DFBF2E71120CB
:106BD000F2E700BFD89D010013B504460749684697
:106BE000FDF737FB019B0BB902B010BD2046D3E97E
:106BF000002190476846FDF736FBF3E7F09D010062
:106C00000B4991F816335A09EC231341DB0706D5DB
:106C1000084B9A683AB94FF480030B60704742F210
:106C20000200FCF78DBA1A6842F480021A607047BD
:106C300000E100E0E4120020F7B5194F3C786CBB8E
:106C4000184E012520463570FFF7AEFF112822D0DF
:106C50002046FFF7C1FF144B8DF8034018680190E0
:106C60000DF10300FCF7C8FC104A114901A8FFF719
:106C700099FF0446B0FA80F0400938709DF803008F
:106C8000FCF7DEFC3CB90B4B34701C70FFF7B8FF0F
:106C90002846FFF7A1FF204603B0F0BD0824FAE71D
:106CA000FD170020FC170020D49D0100A49D0100C9
:106CB0005D310100FE170020014B1878704700BFBE
:106CC000FD17002007B508496846FDF7C2FA019B89
:106CD00013B903B05DF804FBD3E900209047684680
:106CE000FDF7C1FAF3E700BFE49D0100FFF7EABF3B
:106CF000C1DF7047FADF704710B5124B1B788EB0BA
:106D0000EBB1114C02AA0DF135010DA8FFF7F0FF10
:106D100070B921466846FDF79CFA019B002BF1D023
:106D200002A8D3E9002190476846FDF79CFAF4E7F2
:106D3000052804D00EB0BDE81040FCF701BA0EB033
:106D400010BD00BF80180020349E01001FB50F4AFF
:106D500007CA01AB83E807001846FFF7CBFF0446DC
:106D600028B90B4B01221A70204604B010BDFDF764
:106D7000CBFA084B0849024608481B1ADB081B04DB
:106D800043F00100FBF764FEEEE700BF289E010020
:106D900080180020BC8E0100FC9D0100648E010063
:106DA00048B1C3683BB103692BB14069B0FA80F0C8
:106DB0004009404270474FF0FF3070477FB50C4E9E
:106DC0008DF80F0000230C46154600930DF10F02BD
:106DD000012376213046FEF70FFFEBB222467621E3
:106DE0003046FEF71FFF003818BF012004B070BD09
:106DF0004C9E0100C82A1FB5144613D88DF80C000C
:106E00000DF10D0001F07AFC0022631C009206488F
:106E1000DBB203AA7621FEF7EFFE003818BF01208F
:106E200004B010BD0120FBE74C9E010038B50446BC
:106E300038B1044D45F001054FF47A40A847013CB4
:106E4000FAD138BD409E010070B5054618461C4673
:106E5000FFF7A6FF80B979B1237AE668012B18BF46
:106E600045F0800563682846B047002884F845004F
:106E700018BF6FF0030070BD4FF0FF30FBE7F0B5B7
:106E80000A2A87B00546184616461C4628BF0A2619
:106E9000FFF786FF80BB7DB371B382B30B788DF8AB
:106EA0000430237A012B03D02B467719BB4217D12C
:106EB000012A08D001AA00230133D8B2864215D88E
:106EC0007200013A92B226696368287801A9B04736
:106ED000002884F8450018BF6FF0030007B0F0BD2C
:106EE000187800F07F0003F8010BDFE7E85C5070D2
:106EF000C85C02F8020FDFE74FF0FF30EEE76FF0FB
:106F00000200EBE77FB506460D461346F5200192D9
:106F10000DF10F0101228DF80E00FFF795FF00BB68
:106F200016F0080F019B0AD0EC789DF80F20A40002
:106F300004F01C0422F01C0214438DF80F40F206EA
:106F400008D59DF80F20297902F01F0242EA41126C
:106F50008DF80F2001220DF10F010DF10E00FFF74A
:106F60008EFF04B070BD30B50446600785B00D4695
:106F7000134652D58A780193F22102F007028DF868
:106F80000F108DF80D200DF10D0101220DF10F00F4
:106F9000FFF775FF019B88B9F42001220DF10E0166
:106FA0008DF80F00FFF750FF019B38B901220DF15A
:106FB0000E010DF10F00FFF762FF019BA1072AD020
:106FC000F42001220DF10F018DF80E000193FFF75F
:106FD0003BFF00BB14F0010F019B0AD02A789DF8FB
:106FE0000F10920002F01C0221F01C010A438DF8E0
:106FF0000F20A20708D59DF80F20697802F01F0224
:1070000042EA41128DF80F2001220DF10F010DF11E
:107010000E00FFF734FF05B030BD0120CEE713B5F9
:10702000044608460191FFF7BBFE60B95CB10B4610
:1070300001222146F420FFF707FF237803F0030322
:10704000237002B010BD4FF0FF30FAE737B5E023F0
:107050008DF8053000238DF80630B62304468DF8F0
:107060000730FFF79DFE28BB234601220DF10701E3
:107070000DF10500FFF703FFE0B9062563696168BC
:107080004FF4FA609847234601220DF10601F320E0
:10709000FFF7DAFE9DF8063038B9013D15F0FF051F
:1070A00003F0010201D0002AE8D113F0010F18BF4C
:1070B0006FF0050003B030BD30B589B00023044641
:1070C0008DF80330FFF76CFE00286AD105252346B2
:1070D00001220DF10301D020FFF7B6FE002862D196
:1070E0009DF80330582B5ED123702046FFF7AEFF8A
:1070F000002856D101460190162202A801F027FB74
:1071000023461A2201A98820FFF79EFE002848D1B5
:10711000BDF804302383BDF806306383BDF8083022
:10712000A383BDF80A30E383BDF80C302384BDF897
:107130000E306384BDF81030A384BDF81230E384B0
:10714000BDF814302385BDF816306385BDF81830BE
:10715000A385BDF81A30E3859DF81D3084F83030E2
:107160000722234601A9E120FFF76EFEC8B9BDF84A
:10717000043063869DF8063084F834309DF808307A
:107180009DF9071003F00F0242EA0112E2869DF911
:1071900009201B0943EA021323879DF80A3084F86B
:1071A0003A3009B030BD636961684FF47A70013DCF
:1071B000984715F0FF058AD16FF00100F1E71FB580
:1071C0000422044603460DEB0201F220FFF73CFEC9
:1071D00030BB9DF8043003F007038DF80A309DF8AA
:1071E0000630C3F382025B098DF809309DF8073041
:1071F0008DF808202046C3F382025B098DF80B202E
:107200008DF80C30FFF722FF50B9224602A91F204B
:10721000FFF7A9FE20B9224602A91F20FFF772FE40
:1072200004B010BD73B506460846FFF7B9FD0D461C
:10723000044668B90DF10700FFF7F1FE044638B9BE
:107240009DF807303BB973070CD116F0180F12D117
:10725000204602B070BD2846FFF7B1FF0028F2D0EB
:107260000446F5E72A4605F140013046FFF77BFE6C
:107270000028F5D1E9E72A4605F140013046FFF73D
:1072800041FEEDE737B5054608460C46FFF788FD99
:1072900040BB0DF10500FFF7C2FE18BB9DF805309D
:1072A000DBB9F420234601220DF107018DF8060019
:1072B000FFF7CAFDB0B99DF8070020F0030305F001
:1072C000030018438DF80700234601220DF1070142
:1072D0000DF10600FFF7D3FD04E02046FFF76FFF36
:1072E0000028DED003B030BD437802781B0143EAAA
:1072F0000233827843EA12130B600379C2781B01D0
:1073000043EA0233427943EA12134B60C3885BBA03
:107310009BB28B60704700002DE9F04F85B093461B
:1073200001909A460091002900F06A82002A00F03C
:107330006782BAF1000F00F0638200220023CBE9DC
:107340000223CBE90023CBE90423420772D048682B
:1073500001F05EF80646BAF800000F4601F058F852
:10736000E54B8046894600223046394600F05CFEF7
:10737000E24B04460D4600224046494600F054FECA
:1073800002460B462046294600F04AFEDC4B0446E6
:107390000D4600223046394600F046FED94B0646DF
:1073A0000F4600224046494600F03EFE02460B468C
:1073B0003046394600F034FE02460B4600F034FEFB
:1073C0000646BAF902000F4601F00EF822462B4697
:1073D00000F02AFE0446BAF904000D4601F004F854
:1073E00032463B4600F020FE02460B462046294628
:1073F00000F0F4FC04460D4600F0D0FFC24BCAF882
:10740000240000222046294600F0AAFEBF4B00229D
:1074100004460D4600F0A6FF002840F0E781BC4B73
:1074200000222046294600F081FF08B1B84D002413
:10743000CBE90245019BDB0740F10181DAF824002A
:1074400000F0D2FFB34B002200F0EEFDB24B002261
:1074500000F0E6FD04460D46BAF90A0000F0C4FF4C
:1074600022462B4600F0E0FD22462B4600F0DCFDD4
:1074700000224FF07B5300F0D7FD0646BAF9080012
:107480000F4600F0B1FF22462B4600F0CDFD02462C
:107490000B463046394600F0A1FC00224FF07B53EA
:1074A00000F0C2FD00224FF07C5300F0BDFD9B4B6D
:1074B000002200F093FC02460B46BAF80600CDE924
:1074C000022300F0A5FFDDE9022300F0ADFD00225C
:1074D00000238046894600F029FF002800F08981BA
:1074E000BAF9100000F080FF224606460F462B46F0
:1074F0002046294600F098FD02460B4630463946A4
:1075000000F092FD00224FF07C5300F08DFD064606
:10751000BAF90E000F4600F067FF22462B4600F036
:1075200083FD02460B4600F059FC32463B4600F014
:1075300055FC00227A4B00F077FD009B044618684A
:107540000D4600F065FF02460B460020754900F02D
:1075500067FD0646BAF90C000F4600F045FF724B76
:10756000002200F061FD22462B4600F037FC6F4BF5
:10757000002200F059FD02460B463046394600F025
:107580004FFD57A3D3E9002300F04EFD42464B4682
:1075900000F0E6FD04460D46BAF9160000F024FF9F
:1075A00022462B4600F040FD22462B4600F03CFDD3
:1075B00000224FF0785300F037FD0646BAF9140068
:1075C0000F4600F011FF22462B4600F02DFD002251
:1075D0004FF07C5300F028FD02460B4630463946FA
:1075E00000F0FCFB0646BAF912000F4600F0FCFE64
:1075F00002460B463046394600F0F0FB4C4B002269
:1076000000F012FD02460B462046294600F0E6FB3C
:1076100035A3D3E9002304460D4600F0A3FE00285D
:1076200040F0E78032A3D3E900232046294600F04A
:107630007DFE10B12EA5D5E90045CBE90045019BA3
:1076400013F0040000F0CF80DAF8240000F0CCFE44
:10765000384B002200F0E4FC04469AF81C000D466A
:1076600000F0D6FE344B002200F0DEFC22462B4612
:1076700000F0DAFC294B002200F0B0FB06469AF934
:1076800022000F4600F0B0FE2B4B002200F0CCFC95
:1076900022462B4600F0C8FC32463B4600F0C4FCB4
:1076A0001E4B002200F09AFB32463B4600F0BCFC29
:1076B000009B064698680F4600F0AAFE8046BAF97D
:1076C0002000894600F090FE0B4B002200F0ACFC3D
:1076D00022462B4600F0A8FC04462FE0AFF30080C2
:1076E00000000000006AB84000000000004CDD40CF
:1076F0000000000000DBFA400000103F0000503F97
:107700000000E03E0000203F0000B440000044C004
:10771000004055400000E03F0040EF400000F03FD7
:107720000000D03F000030410000F0400000303F3A
:107730000000B03F00C0F2400000503EBAF91E0009
:107740000D4600F051FE324B002200F06DFC024667
:107750000B462046294600F041FB02460B464046B8
:10776000494600F05DFC0446BAF91A000D4600F0E7
:107770003BFE284B002200F057FC02460B462046F9
:10778000294600F051FC32463B4600F04DFC0446D1
:107790000D469AF8180000F03BFE22462B4600F0FA
:1077A00043FC00224FF07B5300F03EFC02460B46A8
:1077B0000020194900F034FC22462B4600F034FC2E
:1077C000164B002204460D4600F0B0FDA8B9002279
:1077D00000232046294600F0C5FD08B100240025FD
:1077E000CBE90445002005B0BDE8F08F0C4D002426
:1077F0001EE605A5D5E900451FE7084D0024EFE783
:107800004FF0FF30EFE700BF00000000004CDD400C
:10781000000050400000F03E0000F03F00005940E2
:10782000000044C070B586B0002306461046CDE97E
:107830000133CDE903330D4614460593FFF7B0FA43
:1078400098B991B1134601A90822F720FFF7FCFA75
:1078500048B901A803A9FFF747FD04F118032A4618
:107860003046FFF759FD06B070BD4FF0FF30FAE724
:1078700037B576238DF807300DF1070343600A4BC7
:10788000C3600A4B03610125094B0572044643613D
:10789000FFF712FC074B236484F8445021461F2055
:1078A000FFF7C0FC03B030BDBD6D0100F56D0100F8
:1078B0002D6E0100050201041FB500238DF80C0098
:1078C0008DF80D10009303AA022319210448FEF736
:1078D00093F9B0FA80F0400905B05DF804FB00BFF1
:1078E000D49E0100F0B585B000240E4F8DF80F0036
:1078F0000D4616460C48009401230DF10F02192184
:107900003C70FEF779F958B93870334606482A4674
:107910001921FEF787F9B0FA80F0400905B0F0BDF3
:107920002046FBE781180020D49E010013B50122F8
:107930000DF107010F20FFF7D5FF0D4B04460D4851
:107940001B1ADB081B0443F0030074B19DF80730D9
:10795000332B06D00849FBF777F80024204602B005
:1079600010BD0649FBF770F8F8E70549FAE700BFD4
:10797000948E0100648E0100589E01007B9E0100E0
:107980009D9E010008B5FFF7D1FFFFF7CFFF78B14B
:107990005F212020FFF790FF00212120FFF78CFFBF
:1079A00000212220FFF788FF00212320FFF784FF1A
:1079B000002008BDF0B585B007460E4615460021EB
:1079C0004EF6054201A800F019F901A9024662200D
:1079D00000F01CF90446B8B94FF47A7000F06AF967
:1079E000062201A9622000F016F9044660B901A838
:1079F00000F069F838800DF1060000F064F830807E
:107A000002A800F060F82880204605B0F0BD37B528
:107A10000D46144601A90DF10602FFF7CBFF80B910
:107A2000BDF8043045F2735253435B13A3F52F4363
:107A3000C83B2B60BDF8063043F2D40253435B13BE
:107A4000236003B030BD000013B542F29D12002147
:107A500001A800F0D3F801A90246622000F0D6F890
:107A6000044610B9024800F025F9204602B010BDC6
:107A7000404B4C0013B543F2E062002101A800F036
:107A8000BDF801A90246622000F0C0F8044618B90A
:107A90004FF47A7000F00EF9204602B010BD07B521
:107AA00043F2F662002101A800F0A8F801A90246FD
:107AB000622000F0ABF844F6206000F0FBF80020F4
:107AC00003B05DF804FB008840BA80B270470068DC
:107AD00000BA704708B5FFF7FAFF00EE100A08BDBC
