:1000000000000120750300005D0300005F03000095
:1000100061030000630300006503000000000000AE
:100020000000000000000000000000006703000066
:1000300069030000000000006B0300006D03000076
:100040006F0300006F030000D91E00006919000053
:10005000791900006F0300006F0300002D160000E7
:10006000C11500006F0300006F0300006F03000064
:100070006F0300006F0300006F0300006F030000B8
:100080006F0300006F0300006F0300006F030000A8
:100090006F0300006F0300006F0300006F03000098
:1000A0006F0300006F0300006F0300006F03000088
:1000B0006F0300006F03000000000000000000005C
:1000C0006F0300006F0300006F0300006F03000068
:1000D0006F0300006F0300006F03000000000000CA
:1000E0000000000000000000000000000000000010
:1000F0000000000000000000000000000000000000
:1001000000000000000000000000000000000000EF
:1001100000000000000000000000000000000000DF
:1001200000000000000000000000000000000000CF
:1001300000000000000000000000000000000000BF
:1001400000000000000000000000000000000000AF
:10015000000000000000000000000000000000009F
:10016000000000000000000000000000000000008F
:10017000000000000000000000000000000000007F
:10018000000000000000000000000000000000006F
:10019000000000000000000000000000000000005F
:1001A000000000000000000000000000000000004F
:1001B000000000000000000000000000000000003F
:1001C000000000000000000000000000000000002F
:1001D000000000000000000000000000000000001F
:1001E000000000000000000000000000000000000F
:1001F00000000000000000000000000000000000FF
:10020000354936480A1A02D0072291438D463449AF
:1002100034480A1A06D00722914381F30988022242
:1002200082F3148830483149314A00F044F83148AB
:100230003149324A00F03FF831483249324A00F041
:100240003AF832483249334A00F035F832483349F7
:10025000334A00F030F833483349344A00F02BF881
:1002600033483449344A00F026F8344834490022EF
:1002700000F02CF833483449002200F027F83348C6
:100280003349091A082902DB002202604160314A21
:1002900090471F481F49884205D00268043003B4C4
:1002A000904703BCF7E700208646EC46002000217B
:1002B000294A9047FEE7884207D0521A05D00378B2
:1002C00001300B700131013AF9D17047884202D0F8
:1002D00002700130FAE770470000012000E00020C2
:1002E0000000012000000120E04600000000002086
:1002F0003C000020D0030000D00300009C3F000021
:10030000E04600000000002000000020084000003F
:1003100008400000084000000840000008400000BD
:10032000084000000840000008400000E0460000CF
:100330001C4700003C0000203C0000203C00002046
:10034000F4090020F4090020F4090020F409002039
:10035000F42900209D030000492A0000FEE7FEE783
:10036000FEE7FEE7FEE7FEE7FEE7FEE7FEE7FEE765
:1003700000F002B8FFF7FCBF0F484FF007018843B9
:1003800085460E4880470E48016841F470010160BF
:10039000BFF34F8FBFF36F8FFFF732BF09480A4992
:1003A0000A4A884207D0521A05D0037801300B70F0
:1003B0000131013AF9D1704700000120612B0000A2
:1003C00088ED00E008400000000000200000002050
:1003D000037813F0040216D003F00303012B03D0BB
:1003E000022B09D0012070470A6800880232C0F34E
:1003F000831002440A60F5E70B684288023303EB7E
:1004000092130B60EEE71046704700002DE9F04FA5
:10041000DFF810A10F4685B00446861C0020154663
:1004200000F00AFDDAF804203A60DAF8083003F543
:1004300080739B1A0AF21C470AF583690AF2144872
:10044000B34219D30020002D68D004F00F039B01A4
:1004500043F0050363F30F00DAF80430DAB2033235
:1004600033444AF822000020CAF8043000F0E6FCC9
:10047000012005B0BDE8F08F0121384600F003FDF2
:10048000484600F018FD404600F015FDDAF8080077
:100490000090C0B203300AEB80006946FFF798FF76
:1004A000009B30BBDAB20AEB8202D16801919A1C40
:1004B0000133DBB20AEB83030092D3F80CB001F0F6
:1004C0000303012B22D0022B15D08346404600F0B7
:1004D000F5FC10B1009BCAF808305946384600F0C8
:1004E000D2FCDAF80830DAF8042003F580739B1A9E
:1004F000A6E7D8B2CEE7BDF80630C3F389130333BD
:100500004FEA1B4B02EB93030093DFE7BDF8043087
:10051000C3F383134FEA1B4B1344F5E7A40544F0E0
:10052000060099E70C010020064B074810B5002291
:100530001A7000F02AFF044610B9044800F092FF38
:10054000204610BD0C010020F43F000020400000B8
:1005500030B50A4C71B10A4A0A49121BD20800236D
:100560009A4201D1002030BD31F82350854202D09B
:100570000133F5E7034654F83300F4E79C3F0000ED
:10058000D43F000000000020094B013903EBC000FC
:10059000032909D8DFE801F00A02040604207047A5
:1005A00000797047407970470020704702207047FB
:1005B0009C3F000070470000034BD3E90130C31A91
:1005C00058425841704700BF0C0100202DE9FF41FF
:1005D000FFF7F2FF0546002840F0E980754CC4F8AB
:1005E0001804BFF34F8FA3680093DBB2033304EB0F
:1005F00083006946FFF7ECFE009B18B1D4F818247D
:10060000002A5AD0DAB2991C013304EB8202DBB221
:1006100004EB8303D268DB68029302F00303022B2E
:100620000192009154D1BDF806306348C3F3891795
:10063000502F3E4628BF502606F1080166F38F135F
:10064000C1F30901ADF8063000F0B7FE05460028F9
:1006500000F0988000F0E0FE0023082201A928465F
:1006600000F0ECFE0099CB43DBB20133C9B2033199
:10067000B6EB830F4FEA830204EB810125D95FFAC1
:1006800082F80823A6EB0806284600F0D7FEF6B24B
:1006900008F10803494903F0FC033246284600F0FC
:1006A000CDFE009B033703EB97070097D4F818346F
:1006B000002B43D1D4F8106453E062689A4294D876
:1006C000A260284604B0BDE8F08108233246E5E781
:1006D000012B57D1BDF804303748C3F383110629E5
:1006E00028BF062161F38913023101F00F0189004F
:1006F000ADF8043000F061FE0546002842D000F05D
:100700008BFE0023082201A9284600F097FE002650
:10071000BDF80420C2F38312B300964203F108032C
:10072000C4D200994A1CC9B20331009204EB810182
:100730000422284600F082FE0136E9E7284600F050
:100740006FFEFFF739FF80F00100C5B2B9E7F3682B
:100750005B7923B1336829461B6830469847F368B4
:100760001E68002EF3D1284600F05AFE304600F0F5
:1007700063FBD4F818340BB9009BA360002000F091
:100780005DFBDEE7D4F8104454B90D4B0D480E491B
:10079000C01AC008000440F0020000F05FF8D0E783
:1007A000236820469B689847E3681C68ECE70025AF
:1007B00087E700BF0C010020F43F00001801002073
:1007C0009C3F0000CC3F0000084000002DE9F347AB
:1007D00004460E46924601A9012218469946FFF7A3
:1007E00015FE1C4F10B3019D4FF00008AA1CC84510
:1007F00008EB020125D11848002100F021FB80F30D
:100800001000000440EA1440E4006B1C04F03804BB
:10081000DBB2EDB244F0010407EB8303033544EA95
:10082000881444EA8624D86047F825403B781BB1F9
:10083000FFF7CCFE0028FBD1FFF7BCFE02B0BDE8FD
:10084000F087C9B207EB81015AF82830CB6008F174
:100850000108CCE70C0100202805002000231A46DF
:10086000FFF7B4BF07B50123019201AAFFF7AEFF5E
:1008700003B05DF804FB000030B50F4CD4F8102431
:1008800003460020114631B9D96808714AB9C4F845
:1008900010340A6030BDC9680D79854206D00968F8
:1008A000F1E7D26814680C601360F3E701300A289E
:1008B000E8D14FF0FF30EDE70C01002038B5084BD0
:1008C0000125D3F810441D7004B938BDE3685D718B
:1008D000236820465B689847E3681C68F4E700BF1C
:1008E0000C01002030B5C38885B004460D4633B1F5
:1008F000144A00921449154A284600F039FB217A1F
:1009000005291DD0637A4BB1A088FFF73DFE104B3F
:10091000104953F82020284600F02AFB227A0E4B7B
:10092000A08853F8222003920021FFF711FE039ABA
:100930000A490346284605B0BDE8304000F018BB20
:1009400005B030BD4C400000344000002C40000099
:10095000B840000051400000DC400000544000005E
:1009600007B503460846197A052911D05B7A2BB1E1
:10097000094A0A49019000F0FBFA019808490190E0
:1009800000F0F6FA019803B05DF804EB00F0E5BA68
:10099000002AF8D0F2E700BF4C40000051400000B0
:1009A000334400002DE9F04385B01F460C9D002321
:1009B00095F80C902B7306460C469046294638460F
:1009C000FFF790FFB8F1060F09D8DFE808F004122E
:1009D000181F283340003146284600F0C9FA00228B
:1009E00029463846FFF7BCFF85F80C9005B0BDE8F6
:1009F000F08322683146284600F0BAFAEFE7D4E9DE
:100A000000233146284600F0B3FAE8E7A3680093D4
:100A10003146D4E90023284600F0AAFADFE7E3686C
:100A20000193A36800933146D4E90023284600F0DF
:100A30009FFAD4E723690293E3680193A3680093C4
:100A40003146D4E90023284600F092FAC7E76369EB
:100A5000039323690293E3680193A36800933146EB
:100A6000D4E90023284600F083FAB8E708292DE9E5
:100A7000F74F80460E4617461C463DD800251B7B87
:100A80002573214610460193FFF72CFFDFF88CA059
:100A9000DFF88CB0AE4232D918F80520594620460E
:100AA00000F066FA0135082DF4D11B49DFF874A077
:100AB000DFF874B0204600F05BFA4FF000094E45B5
:100AC00024D918F809507E2D1ED8284602F0C0FE01
:100AD000002814BF2A462E225946204600F048FA24
:100AE00009F10109B9F1080FE9D10122214638467F
:100AF000FFF736FF019B237303B0BDE8F08F51462B
:100B0000204600F035FACDE72E22E5E75146204693
:100B100000F02EFAE4E700BF6840000064400000E7
:100B20005E400000664000006A40000038B50A4D93
:100B300000F051F804212846FFF79EFE074B0124E0
:100B40005C7100F021F9042105F11000FFF794FE1B
:100B5000034B5C7138BD00BFD43F00000000002093
:100B6000080000207047000007B5044B0093044ABA
:100B7000402300F032F803B05DF804FB850B000061
:100B8000C50500202DE9F84388461446B2B10F4B45
:100B90000F4E0325002743F00109224608EB070109
:100BA000002002F0A7F90744241A48B933782BB182
:100BB0004FF47A40C847013D02D13570BDE8F88353
:100BC00001233370002CE8D1F8E700BF204100007A
:100BD000C4050020704702F0E5B9F0B595B01D4698
:100BE000164608460C4600F017FC1A9B0D93CDE9FB
:100BF000086500252B46082205A920460A958DF890
:100C00002C500C9500F024FC079B0293069B039349
:100C10009DF814308DF8115003F00302012A1DD104
:100C2000BDF81420059DC3F3C203C2F383168DF8EB
:100C30001030B20008230EA9204600F009FCC5F3CD
:100C4000952508AB0093324602AB0EA92846FFF764
:100C5000A9FE204600F0E4FB15B0F0BD022AF8D151
:100C6000BDF81650C3F3C203C5F389158DF81030D3
:100C70000827082D2E4628BF08263B4632460EA9D7
:100C8000204600F0E5FBAD1B08AB02AA31460EA8DA
:100C90003744FFF7EBFE002DEBD1DAE7014B0122E1
:100CA0001A707047460600207047000070B50E4D60
:100CB00006460FCD88B06C460FC495E80F00002E95
:100CC00084E80F00094A0A484FF0060308BF0022D3
:100CD0006946009301F062F908B100F058F8054B3D
:100CE0001E7008B070BD00BF344100009D0C0000B4
:100CF000100000200506002007B5044B0093044AAD
:100D00004023FFF76AFF03B05DF804FB150D0000F8
:100D10000606002038B50D480D4C0E4D00232370FB
:100D20000378EB5CD2B263B1043001F0CFFD08B1BF
:100D300000F02DF8084B1A7812B12378002BFBD065
:100D400038BD0C3001F070FBF1E700BF100000204F
:100D500046060020100700200506002008B50848B8
:100D6000084A0378D35C3BB1043001F013FDBDE8C1
:100D700008400020FFF79ABF0C3001F0DFFAF6E7D9
:100D800010000020100700200120FFF78FBF1FB5C3
:100D90000021039001AA44F20100CDE9011100F005
:100DA00003F805B05DF804FB38B572B6FFF786FDB1
:100DB000FFF70CFC0028FBD1104B114C114D1249D0
:100DC000E41AE408240444F00100FFF747FDD5F8D5
:100DD000F030DB0700D500BE0C4944F00200FFF7FD
:100DE0003DFDBFF34F8FEA68094B02F4E062134305
:100DF000EB60BFF34F8F00BFFDE700BF9C3F0000DB
:100E0000CC3F000000ED00E0604100006C410000BC
:100E10000400FA0572B6024A136801331360704782
:100E200048060020034A1368013B136003B962B609
:100E3000704700BF48060020FFF7ECBFFFF7F2BF86
:100E400010B5034653E8000F0A4643E8002494F027
:100E5000000FF7D110BD10B5034653E8002F42EA4A
:100E6000010043E8000494F0000FF6D110BD10B566
:100E7000034653E8000F00EA010243E8002494F01F
:100E8000000FF6D110BD10B5034653E8002F02EB5A
:100E9000010043E8000494F0000FF6D110BD10B536
:100EA000034653E8002FA2EB010043E8000494F04E
:100EB000000FF6D110BD0121FFF7CDBF0021FFF7D4
:100EC000D6BF10B590B1D0E9012301689B1ADBB2FF
:100ED0000A60013BDBB2FF2B026802D100201071D7
:100EE00010BD11684C1C14600B70F2E70E20F7E780
:100EF00038B504460020FFF79FFF22686368116839
:100F0000994213D9481E106011F8013CE568218A06
:100F100001FB0355A36811791B1ADBB2994200D279
:100F200013710020FFF78AFF284638BD0025F8E737
:100F300038B5054600200C46FFF77EFF2A68136887
:100F4000591C1160E968641A298AB4FBF1F41C7019
:100F5000BDE838400020FFF771BF826810B5044635
:100F60002AB143690168006998470023A36010BD56
:100F70000EB403B5039921B104AB01AA019300F0AB
:100F800077F802B05DF804EB03B070470A2938B572
:100F900004460D4602D10D21FFF7F8FFA368226831
:100FA000591CA160D554D4E901329A4204D3204699
:100FB000BDE83840FFF7D1BF38BD00002DE9F84F3C
:100FC0009846DDE90A43154682460F460A464FF029
:100FD0000109AA420FD2C14538BFC14613F0010B27
:100FE00001D16CB900240126B8F1010F1BD908F119
:100FF000FF386E43F8E709F10109B2FBF5F2E8E7C3
:101000009B070ED5B8F1000F0CBF30262026A14556
:10101000E9D2013C31465046FFF7B8FF002CF6D12B
:10102000E0E72026F3E7B7FBF6F39D42E1D9DFF8CE
:101030003C80B7FBF6F3504618F8031006FB137715
:10104000FFF7A4FF3346AB42B6FBF5F6F1D2BBF196
:10105000000F02D00CB1A14501D3BDE8F88F2021CB
:101060005046013CFFF792FFF4E700BF79410000D2
:101070002DE9F74F054617468846002900F03E81C6
:1010800018F8011B49B92B7B002B00F0378128464B
:1010900003B0BDE8F04FFFF760BF252940F0B780EF
:1010A000002698F800302D2B424608F1010823D085
:1010B000302B24D02B2B25D000242A2B02F1010128
:1010C00023D13B681A1D1B683A601C440A461378FA
:1010D0002E2B26D101324FF0000A104610F8011BCA
:1010E000A1F1300CBCF1090F1DD80A2303FB0A1330
:1010F000A3F1300A0246F0E746F00106D1E746F0D8
:101100000206CEE746F00406CBE711F8013CA3F156
:1011100030000928DBD80A2202FB0434303C0A469E
:10112000CBE74FF0000A12F8011B01F0FB00682822
:101130009046F8D0782909D86F290CD8632962D055
:1011400022D8252963D0582900F0888098F80030EB
:10115000002B95D197E770390829F7D801A353F8E8
:1011600021F000BFD71200004D1100004D1100000A
:101170006D1200004D1100004B1200004D110000D7
:101180004D1100005D120000642901D06929DDD1F4
:101190003A68D2F80090111D89EAE9723960A2EB31
:1011A000E9724FF0010B092A35DCD34538BFD3462D
:1011B0002CB1B9F1000F01DB720700D5013CB30778
:1011C00002D5BAF1000F03D0F00701D44CBB0024C4
:1011D000B9F1000F2DDAC9F100092D212846FFF7DA
:1011E000D5FE06F00302022A04D1BAF1000F01D1A4
:1011F0001CBB0024CDE9004653460A224946284636
:10120000FFF7DCFEA2E73B681A1D19783A60284612
:10121000FFF7BCFE9AE70A230BF1010BB2FBF3F2D6
:10122000C1E7A345D4D220212846013CFFF7AEFEFA
:10123000CCE77107D5D52B21D0E7A345DAD23021F1
:101240002846013CFFF7A2FED2E73968CDE9004607
:101250000A1D3A6053460A220968D0E739680A1D18
:101260003A60CDE9004653461022F5E73B681A1D67
:101270003A6016F00106D3F8009024D1B9F1000FBE
:1012800003D0484602F05BFB0646B4421DD809F184
:10129000FF3919F8011F00293FF458AF2846FFF71E
:1012A00075FEF6E728460136FFF770FE19F80610BE
:1012B0000029F7D1A642BFF449AF20212846013CBE
:1012C000FFF764FEF6E70026F0E720212846013C00
:1012D000FFF75CFED9E73B681A1D3A6030212846CB
:1012E0001C68FFF753FE78212846FFF74FFE0022C7
:1012F0000823CDE900322146102280E703B0BDE883
:10130000F08F00BF2DE9F84FB0F806A04579D2F86C
:1013100000B09DF828900AFB05F5043D88460BEBCC
:101320000301A94203F1040488BFA5EB030BB4FB3E
:10133000FAF607460AFB1644C2F800B04EB9AAEB0B
:1013400004055D4528BF5D46BBF1000F04D1BDE833
:10135000F88F3F68013EF1E7043408EB06003C4497
:101360002A46B9F1000F0DD02146ABEB050B02F078
:101370009BFADA452E443F6855464FF0000428BFDB
:101380005D46E1E701462046EFE7FFF79ABDF8B575
:1013900046790146721E0546002393422D6803D309
:1013A0000024A64202D8F8BD0133F6E70F682846AC
:1013B000FFF7BEFD01343946F3E72DE9F843068A0D
:1013C000CD1C0746FFF794FD043E35440446B5FBAB
:1013D000F6F5F0B14FF48073EDB28380C680013D25
:1013E000076081464FF00008A84512D23846FFF743
:1013F0007FFD064648B163790133637108F1010846
:10140000C9F8000007608146EEE72046FFF7BFFFFE
:1014100034462046BDE8F88301210430FFF733BD90
:1014200010B5012104460430FFF739FDC0B220B9E0
:101430002046BDE81040FFF7AABF10BD1FB50392BC
:101440000022009203AAFFF75DFF05B05DF804FBE0
:101450001FB503920122009203AAFFF753FF05B0C4
:101460005DF804FB836800225A60C3E904229A6095
:10147000DA601A6070470000F7B506792F4D0C232B
:101480007343EF183C7A002C55D1EA504B687B60CF
:10149000477903682246A446D4B2A7423CD8CA780A
:1014A00043F307345201002CC3F30733D2B23DDBC0
:1014B000234F07EB040C8CF800230122640903F08E
:1014C0001F0302FA03F347F8243003684A78D3F87D
:1014D000040502F0030220F003000243C3F80425D0
:1014E000D3F808058A7820F0030002F003020243D3
:1014F000C3F80825D3F810050A7820F00F0102F090
:101500000F020A43C3F810250C2303FB06550123E1
:101510002B72002003B0F0BD940004F5A0740132DA
:1015200043F804C01C590194019CB5E7054C03F035
:101530000F03E254C9E70820ECE700BF4C06002087
:1015400000E100E014ED00E0036801221A60027976
:10155000034B0C2101FB023302221A72704700BFB9
:101560004C06002037B54FF4803400688C407BB1C6
:101570008B0003F5A0730025C550C3580193019B50
:10158000C0F8044301F5A87140F8212003B030BD34
:10159000C0F80843F6E770B4046840F20116D4F8C6
:1015A00000528E4025EA0605C4F80052D4F80052D5
:1015B0002B43C4F800329DF80C3070BCFFF7D2BF4B
:1015C0002DE9F341104C114F114E00254FF4803896
:1015D000236883B1D7F8043308FA05F21A420AD017
:1015E0000023236023680193A4F50040019B80B28F
:1015F000D6E9003198470135042D04F10404E7D100
:1016000002B0BDE8F08100BF408100400080004092
:101610004C06002000F1804000F5E040002382B03D
:10162000036003680193019B02B07047F0B5524B11
:10163000524CD3F8043185B0002B3DD094F82E20C5
:101640004FF48270FFF7E6FF2AB394F82F3013BBF4
:10165000494AD2F80031002B32D04FF48070FFF7A6
:10166000D9FF638B94F82D00834250D921891B1A2E
:101670009BB289B26383CB1A616801EB4303C2F862
:101680002C36C2F830064FF48270FFF7C3FF3A4B96
:1016900001225A6014E0636802932389ADF80C308C
:1016A000E36800218DF8041033BB2374236801A87C
:1016B0009847002384F82F3094F82E30002BC7D1A0
:1016C0002D4BD3F810315BB14FF48870FFF7A2FFB8
:1016D0000023237402238DF8043001A8236898475F
:1016E000254BD3F81431EBB14FF48A70FFF792FF1A
:1016F0000023237405B0F0BD208B608363602081DC
:10170000E160002AD2D11C4B01221A60CEE7BAD187
:10171000E368012184F82F1013B100216183AEE743
:101720006383B0E766694FF000470125002EE1D0E2
:10173000B6FA86F227FA02F34632920026EA030648
:1017400002F1804303F5E0431B68002BEED0104606
:10175000A2F58C72FFF75EFFD30882F00402C2F399
:1017600080028DF808308DF8045023688DF8092028
:1017700001A89847DAE700BF007000405806002033
:101780000023435082B043580193019B02B070473D
:101790000B7B032B2AD8DFE803F022261A028B6882
:1017A0005A0304D5D0F84C350A699A4207D18B68A0
:1017B0005B031BD4D0F84C354A699A4216D00023FB
:1017C0000622C0F80035C0F8002518467047D0F84A
:1017D0004C350A699A42F2D1D0F83C35ECE7D0F8A2
:1017E0004C350A69E9E7D0F83C35FAE70120704743
:1017F000F0B5D0F8243187B004460D46EBB14FF474
:101800009271FFF7BDFFD0F80431B3B9AB68C0F8EF
:1018100008330223AB60AB68C0F80433D0F8603102
:101820001BB1D0F800329B0502D40123236263610F
:10183000012385F82E3007B0F0BDD4F80431002B19
:1018400041D04FF482712046FFF79AFF2B6A5F0662
:1018500009D495F82E3033B92946FFF799FF80F067
:10186000010085F82E002B6A5E073ED405F10C07B7
:101870000FCF01AE0FC63B6833604FF4B071204606
:10188000FFF77EFF4FF4AE71FFF77AFF95F8303027
:1018900013B195F82E3043B30023C4F80032AB6087
:1018A0002F4BC4F8083344F30733002B4FEA1432AC
:1018B0001BDB02F01F015B0901228A4060332949CA
:1018C00041F8232011E04FF4A4712046FFF758FFA0
:1018D0002B7B23BB05F10C070FCF01AE0FC63B6876
:1018E000336095F83030002BD7D0D4F8C434C4F826
:1018F000C434980725D501238DF8003095F8303091
:101900000BB985F82F302B6A5B0703D595F82E307D
:10191000002B90D0D5E90031684698478BE74FF40B
:101920000073C4F8003240F20223AB6003F1CE73BF
:10193000C4F80833AB68C4F804330123A3602362FE
:1019400079E7590701D50223D6E7DA0701D5032342
:10195000D2E795F82E30002BCED00423CCE700BF81
:1019600002029C0100E100E001490248FFF740BF8C
:10197000880600200030004002494FF04020FFF769
:1019800037BF00BFBC0600202DE9F84F0679314D66
:101990004FF0340A0AFB06FA05EB0A079B4697F854
:1019A0002D3080460C469146002B4FD12A4B0068C3
:1019B00053F8261000F096FA002849D12168637B7D
:1019C00087F8323001F5E0724FF0A043B860C7F8F5
:1019D00004B087F82F0087F8300040F20C6745F814
:1019E0000A9043F82270626802F5E07C43F82C709C
:1019F000D8F80030C3F80815C3F80C25A268C3F85E
:101A00002425B9F1000F14D0227B43F30731520192
:101A10000029C3F30733D2B213DB104C671887F8E1
:101A200000230122490903F01F0302FA03F344F8DB
:101A30002130342303FB0655012385F82D30BDE802
:101A4000F88F074903F00F03CA54F2E70820F6E7BE
:101A50001120F4E7880600209C41000000E100E02E
:101A600014ED00E0036802790621C3F80015044B69
:101A7000342101FB0233022283F82D20704700BF7E
:101A8000880600202DE9F843DFF8C88290F804901A
:101A90000468342606FB0986002386F82E30CB68BE
:101AA00003F06043B3F1005F0D46174603D01026E4
:101AB0003046BDE8F883A64BC4F8083396F82F30BB
:101AC00023B1B368C4F804331126F1E712F0140F00
:101AD0000CBF0123002386F82F308E46BEE80F008E
:101AE00006F10C0CACE80F00DEF80030CCF800304A
:101AF000C7F3001386F8303037626B78C4F8883546
:101B000020464FF48271FFF73BFE4FF49271FFF7CE
:101B100037FE4FF4B071FFF733FE4FF4A471FFF7B7
:101B20002FFE17F0010318BF0123C4F8503517F03A
:101B3000020318BF0123C4F840352B78032B00F2B1
:101B4000B580DFE803F084A069022B6903F06043ED
:101B5000B3F1005FABD14FF48073C4F80032EA6890
:101B60006B68C4F844254FF4A871C4F84835FFF7F2
:101B700007FE01232362A360D4F85031002BFBD071
:101B80004FF4A8712046FFF7FBFDAB682A69C4F843
:101B90004425C4F84835342303FB09834FF48022DD
:101BA0009A60082300263A0704D42A78032A1CBF27
:101BB0000122E250342303FB09F308EB030258F837
:101BC0000330002B75D10125D4F84821D4F8043115
:101BD000002B40F08980003A18BF0122D4F824314C
:101BE000002B00F088804FF492712046FFF7C8FD6B
:101BF000D4F86011D4F8003209B1980504D42562F4
:101C000065610029E0D00022D90574D54FF4A47194
:101C10002046FFF7B5FDD7E76B68EA68C4F84425AE
:101C2000C4F848352B6903F06042B2F1005F7FF4DD
:101C30003EAFAA68C4F834354FF48453C4F838254D
:101C4000C4F80032342303FB0983022212E06B68DC
:101C5000EA68C4F8442517F0200FC4F848354FF05F
:101C600034030BD04FF48072C4F8002203FB0983C5
:101C70004FF480229A600123236292E74FF40072AE
:101C8000C4F80022DFE76B68EA68C4F83425C4F8BA
:101C900038354FF48053C4F80032342303FB0983F2
:101CA00002229A600123236200237BE70823072690
:101CB00079E77B0744BF002393607D0606D4342375
:101CC00003FB09839A6842F002029A60342303FB03
:101CD0000988D8F8083043F40073C8F80830D8F8F9
:101CE0000830C4F80433E3E64FF482712046FFF76E
:101CF00047FD012272E7002A3FF466AF3421D4F891
:101D0000C434C4F8C43401FB0982002082F82F00D7
:101D100093B113F0010F14BF4FF40246032648F2AB
:101D2000012213F0020F18BF164613F0040F48F2F9
:101D3000022318BF1E46BBE67B063FF5B9AE09FB82
:101D400001812046FFF724FD002808BF0326AFE6E7
:101D500002029C018806002010B586B00024CDE95F
:101D600002349DF820308DF80510A342CDE90424FB
:101D700001A914BF202222468DF80440FFF782FEFD
:101D800006B010BD10B586B0012402930023CDE942
:101D900003328DF805101A4601A98DF80440059309
:101DA000FFF770FE06B010BD1FB503788DF8003048
:101DB0008388ADF8043083688DF80630C3688DF8E9
:101DC0000730036902934369054A0393054B68464C
:101DD00053F8213052F82110984705B05DF804FB04
:101DE000F0060020F8060020024B4FF4807043F00C
:101DF00001031847B04100002DE9F047154690F85F
:101E00000090324A42F82950314A42F829304B7B3F
:101E100007460C466BB30868496882008B0002F1E4
:101E2000A04203F1A04340F20C66C2F800674FF0F5
:101E3000010AC3F800674FF0A0460AFA00F00AFA58
:101E400001F1C6F80805C6F8081540F20D61C2F8A0
:101E50000017C3F80017FFF7C7FF4FF00008D6F8C8
:101E60001025636822FA03F3DB070DD5B8F1000FE4
:101E70001DD1002D174A4B4608BF2A462146381D62
:101E8000BDE8F047FFF780BD23680AFA03F3C6F800
:101E90000C35FFF7A9FF23680AFA03F3C6F80835E3
:101EA00008F10108FFF7A0FFB8F1090FD7D1636867
:101EB00001264FF0A04806FA03F3C8F80C35FFF7E7
:101EC00093FF63689E40C8F80865D2E7F8060020D3
:101ED000F0060020A91D0000014B1B68184700BF39
:101EE0000007002038B50B4B98420C4601D000206B
:101EF00038BD0020FEF7A0FF074B1D7915B9012260
:101F00001C601A710020FEF799FF002DEFD0112000
:101F1000EEE700BF0020004000070020034B98427E
:101F200001BF034B00221A601A7170470020004065
:101F3000000700201FB503788DF800304368019337
:101F400083688DF80830C368054A0393054B6846DB
:101F500053F8213052F82110984705B05DF804FB82
:101F6000080700200C0700201FB503788DF800300B
:101F70004368019383688DF80830C368054A03936A
:101F8000054B684653F8213052F82110984705B0A8
:101F90005DF804FB080700200C070020F0B5194B82
:101FA00090F800C091F81DE043F82C20164B16461F
:101FB0000A6943F82C20154B03F80CE00C46074641
:101FC0000FCC89B06D460FC594E80F0085E80F006F
:101FD000CDF810C0BEF1000F09D0002E0C4A6946A2
:101FE00008BF3246381D00F013FB09B0F0BD002ECB
:101FF000084A694608BF324607F10C0000F0EAF8CB
:10200000F3E700BF0C07002008070020100700209E
:10201000351F0000691F00000023435082B0435861
:102020000193019B02B070470A4610B54FF48E71C0
:10203000FFF7F2FF136A9168C95C136A01331362F8
:10204000C0F81C1510BD8B690A4610B54FF4847199
:1020500023B9FFF7E1FFD0F8183510BDFFF7DCFF1B
:10206000536AD168D0F81805C854536A01335362D3
:10207000F3E700001FB501238DF80030044BCDE9D4
:102080000110D3E900126846904705B05DF804FBE3
:102090001407002030B54D4DD5F804339A0585B0AE
:1020A00051D5D5F82431002B4DD04FF492712846EC
:1020B000FFF7B2FF4FF40173C5F80833444B93F8B0
:1020C00029200AB901226A60404902228DF80020C5
:1020D000D1F88024C1F8802403929A690292DA68C8
:1020E00001920022C3E906226846D3E90012904714
:1020F0003648D0F81C315BB1354A5169136A9942B0
:102100004DD992F82830002B49D11146FFF78CFFAA
:102110002E48D0F84431002B56D04FF4A271FFF76F
:102120007BFF2B4B93F829200AB1012202609A69A8
:10213000002A49D0586AD96800229A6105B0BDE8E2
:102140003040FFF797BFD5F804335B07D0D5D5F8FB
:102150000831002BCCD01E4C1C482146FFF773FFE2
:10216000636AA2699A42C3D1E369E1684BB1A36192
:102170002369E3600023606AE3616362FFF77AFF2B
:10218000B6E794F829300BB901236B600F4B4FF47D
:102190000172C3F808230023606AA361EEE70B48CD
:1021A0004FF48E71FFF738FF5369002BB0D051699F
:1021B0000291002391688DF80030019153616846C7
:1021C000D2E900139847A3E705B030BD00200040D6
:1021D000140700202DE9F843534D90F804802C2378
:1021E00003FB0853064693F82A300C469146002B11
:1021F00040F096804D490068FFF774FE07460028BE
:1022000040F0908022683068511C0BD04FF0A04104
:1022100001239340C1F8083502F5E0734FF0030C39
:1022200041F823C061684B1C1FBF01F5E0734FF0FC
:10223000A04C4FF0000E4CF823E0A369C0F8243501
:1022400094F814C0637DBCF1010F4CEA0303C0F89D
:102250006C35C0F81415C0F80C251DD1A268531CAC
:102260001FBF02F5E0734FF0A0414FF0000C41F8A2
:1022700023C0E368591C0BD04FF0A04C01219940BA
:10228000CCF8081503F5E0714FF0030E4CF821E08F
:10229000C0F80835C0F810252C2202FB08F2AB1854
:1022A000C3F804902369AB50B9F1000F20D04FF46C
:1022B0008E71247FFFF7B0FE4FF4A2713068FFF7F4
:1022C000ABFE32681A4BC2F80433130B42F30732E9
:1022D0006101002AC9B21EDB1648841884F8001375
:1022E0000121520903F01F0301FA03F340F82230E1
:1022F00033680422C3F800252C2303FB0853002273
:10230000C3E9062283F829205A61012283F82A2092
:102310003846BDE8F883084A03F00F03D154E7E7D5
:102320000827F5E71127F3E71407002095200000A0
:102330008000020000E100E014ED00E0F8B5036861
:102340000579304C0022C3F800252C2202FB0542FF
:102350005268A2B12C4AC3F808231A0B43F307337F
:10236000002B0CDB02F01F015B0901228A402033A5
:10237000264941F82320BFF34F8FBFF36F8F0068CA
:10238000D0F80C65D0F81415D0F80835D0F8102521
:102390004FF0FF37BE42C0F8147518BF06F5E0765F
:1023A000C0F80C75C0F80875C0F810751EBF4FF066
:1023B000A0474FF0020C47F826C04E1C1FBF4FF03D
:1023C000A04601F5E071022746F82170511C1FBF9D
:1023D0004FF0A04102F5E072022641F822605A1C3B
:1023E0001FBF03F5E0734FF0A042022142F8231013
:1023F000FFF794FD2C2303FB0544002384F82A30C7
:102400006360F8BD140700208402020000E100E0D0
:102410000279044B2C2101FB02335869003818BFA4
:1024200001207047140700202DE9F84F064690F868
:10243000048089469246FFF7EBFF044600283CD112
:10244000204F2C2508FB057B4FF48E71CBF814A090
:10245000CBF80890CBF820008BF828003068FFF705
:10246000DBFD3068012383605946FFF7DDFDDBF8B3
:1024700004305D461BBB3068DBF814402B6A9C427D
:1024800011D83368D3F81C21002AFBD00122DA606E
:1024900000202C2303FB087700237B61BDE8F88F25
:1024A00095F828303BB9D0F81C31002BF8D05946AC
:1024B000FFF7BAFDE2E70F20EBE71120EEE7204639
:1024C000ECE700BF140700200023435082B04358BC
:1024D0000193019B02B070471FB501238DF80030B6
:1024E000044BCDE90110D3E900126846904705B0CE
:1024F0005DF804FB400700207FB5434AD2F8246111
:10250000002E60D010464FF49271FFF7DDFF0223DA
:102510008DF80030D2F88034C2F880340393D2F8BA
:102520003C350293394BDA6801920022C3E9062256
:102530006846D3E9001290473348D0F8443173B16C
:102540004FF4A271FFF7C0FF304B9A693AB10022F5
:10255000C3E90622D968D0F83C05FFF7BDFF2A4839
:10256000D0F82031ABB14FF49071FFF7ADFF0123EC
:10257000C360264B5A6962B1D0F84C150291002213
:1025800099688DF8002001915A616846D3E90012DC
:1025900090471D48D0F858319BB14FF4AC71FFF70C
:1025A00093FF1A4B5A6962B1D0F84C150291002280
:1025B00099688DF8002001915A616846D3E90012AC
:1025C000904704B070BDD2F81031002BB4D04FF456
:1025D00088711046FFF778FF0C4BD2F83C059969DB
:1025E0008842A9D1DC69D96864B1D2F8005225F0DB
:1025F0002005C2F800521A699C61DA60DE61FFF7BB
:102600006BFF99E79C61FAE700200040400700203B
:102610002DE9F8435A4E90F80480242303FB086305
:10262000044693F820300D469146002B40F0A380DD
:1026300054490068FFF756FC0746002840F09D808B
:102640002A682068511C0BD04FF0A0410123934011
:10265000C1F8083502F5E0734FF0030C41F823C0D0
:1026600069684B1C1FBF01F5E0734FF0A04C4FF0A1
:10267000000E4CF823E0AB69C0F8243595F814C07F
:102680006B7DBCF1010F4CEA0303C0F86C35C0F858
:102690000C25C0F814151DD1AA68531C1FBF02F5E4
:1026A000E0734FF0A0414FF0000C41F823C0EB68FD
:1026B000591C0BD04FF0A04C01219940CCF80815C3
:1026C00003F5E0714FF0030E4CF821E0C0F8083537
:1026D000C0F81025242202FB08F2B318C3F80490B6
:1026E0002B69B350B9F1000F2FD04FF488712A7FB6
:1026F000FFF7EAFE20684FF49071FFF7E5FE2068CF
:102700004FF49271FFF7E0FE20684FF4A271FFF7DB
:10271000DBFE4FF4AC712068FFF7D6FE23681A4940
:10272000C3F80413190B43F307335201002BD2B241
:102730001CDB1648C51885F8002301225B0901F04F
:102740001F0102FA01F140F8231023680822C3F8A0
:102750000025242303FB08660023C6E906337361C2
:10276000012386F820303846BDE8F883084B01F095
:102770000F015A54E9E70827F5E71127F3E700BFEF
:1027800040070020F92400001003420000E100E0AF
:1027900014ED00E0F8B5444C0579242303FB054310
:1027A00002465B680068ABB1404BC0F8083340F3A9
:1027B0000733002B4FEA10310CDB01F01F065B09D9
:1027C0000121B14020333A4E46F82310BFF34F8F1A
:1027D000BFF36F8FD0F8003223F02003C0F800322F
:1027E000242303FB05439B692BB14FF4A271FFF730
:1027F0006BFE012343604FF4AC71FFF765FE0123CC
:10280000C360242303FB0543D0F858110029FBD0F3
:10281000996919B1D0F844110029F5D00023C0F806
:1028200000351368D3F80C75D3F81465D3F8082570
:10283000D3F810154FF0FF3C6745C3F80CC518BF1F
:1028400007F5E077C3F814C5C3F808C5C3F810C589
:102850001EBF4FF0A0434FF0020C43F827C0771C77
:102860001FBF4FF0A04306F5E076022743F826701D
:102870004E1C1FBF01F5E0714FF0A043022643F844
:102880002160531C1FBF4FF0A04302F5E0720221EC
:1028900043F82210FFF742FB242303FB05440023E7
:1028A00084F820306360F8BD400700201003420028
:1028B00000E100E00279044B242101FB0233586956
:1028C000003818BF012070474007002001F0604326
:1028D000B3F1005F2DE9F0470646884692463BD1AA
:1028E00090F80490FFF7E6FF0446002836D11D4F0C
:1028F0003068242505FB09754FF49071C5F814A0C4
:10290000C5F80880FFF7E0FD4FF4AC713068FFF7C1
:10291000DBFD33686A69A968C3F84415C3F8482524
:1029200001229A606A68DAB9D3F82021D3F85801F5
:102930001AB90028F8D00F2007E00028FBD10122A7
:10294000DA60D3F85821002AFBD0242303FB09774F
:1029500000237B61BDE8F0871020FBE71120F9E739
:102960002046F7E740070020B0F5A07F13D10A4BBF
:1029700019684FF0A04201311960D2F80435D843EC
:1029800000F0800003F08003C2F808050348C2F895
:102990000C3500F009BB704764070020C5410000FA
:1029A0001FB513221223CDE900234FF0CC7102236F
:1029B000CDE90213002307481A466946FFF71CFABF
:1029C00008B1FEF7E4F90448FFF74CF805B05DF8EC
:1029D00004FB00BF484200004C420000002108B543
:1029E0000846FDF7A1FD08B1FEF7D1F9BDE80840A2
:1029F000FEF79CB81FB50F4A92E8030002AB83E8CC
:102A000003000D4A0D481946FEF736FD08B1FEF7E2
:102A1000BEF90B4B0B49D3F8102508480123D2B25D
:102A200021FA02F200930021FEF7B5FD05B05DF832
:102A300004FB00BF3042000069290000384200005A
:102A4000008000400024F4004FF0A04303222DE951
:102A5000F341C3F81C278022C3F80825FFF7BEFF07
:102A6000224C234EFFF79CFF224B2349E41AE40833
:102A7000240444F003042046FDF7F0FE40F6B83588
:102A800046F001064FF47A40B047013DFAD11B4FA2
:102A9000DFF87480012601230DF10702F1B23846F8
:102AA000FFF770F928B9324641462046FDF7DAFEB5
:102AB0000125FDF78BFD0028FBD10136802EEAD1E0
:102AC0003DB90F492046FDF7C9FEFDF77FFD0028FF
:102AD000FBD1FFF78FFF0B48FEF736FD032000F018
:102AE00085FA012000F00CFB30BFFDE7CC3F000071
:102AF000404200009C3F0000CA4100004C420000E0
:102B00000442000038420000DF4100004FF08053D3
:102B1000D3F83001421C04BF4FF0704393F8E00F2C
:102B2000831F5842584170474FF0704393F8E02F8D
:102B3000062A09D1D3F8E83FC3F30313033B042B60
:102B400002D8024AD05C70470020704767420000FC
:102B5000024AD2F80034002BFBD0704700E001405D
:102B600010B5FFF7D3FF40B14FF08053944AD3F82C
:102B70002433C3F30423C2F84035FFF7D5FF10B167
:102B8000904B914A5A67FFF7C1FF48B14FF080530D
:102B90004FF08042D3F84432C3F34233C2F83C359D
:102BA000FFF7C2FF30B1894AD2F8FC3023F08073BE
:102BB000C2F8FC30FFF7AAFF40B14FF0804300227B
:102BC000C3F80C21C3F81021C3F83825FFF7ACFF78
:102BD00020B14FF080430322C3F8A025FFF7A4FFE4
:102BE00060B17B4B0522C3F810260122C3F888266A
:102BF0000022C3F818263F22C3F814264FF0805352
:102C0000D3F83021511C09BF4FF07043D3F8343151
:102C100093F8E02FD3F8E83F08BFC3F30313062A65
:102C20004DD1033B042B03D86A4AD35C002B46D01A
:102C30004FF08052684BD2F80414C3F82015D2F834
:102C40000814C3F82415D2F80C14C3F82815D2F8C8
:102C50001014C3F82C15D2F81414C3F83015D2F898
:102C60001814C3F83415D2F81C14C3F84015D2F860
:102C70002014C3F84415D2F82414C3F84815D2F828
:102C80002814C3F84C15D2F82C14C3F85015D2F8F8
:102C90003014C3F85415D2F83414C3F86015D2F8C0
:102CA0003814C3F86415D2F83C14C3F86815D2F888
:102CB0004014C3F86C15D2F84424C3F87025FFF70C
:102CC00025FF48B14FF080534FF08042D3F858327F
:102CD00003F04F03C2F8E43EFFF718FF48B14FF08E
:102CE0008043D3F80024D20744BF6FF00102C3F839
:102CF00000244FF08053D3F83021062A0ED1D3F8A8
:102D00003431033B042B02D8344AD35C33B1344A08
:102D1000D2F83C3743F48063C2F83C372B4AD2F8F0
:102D2000883043F47003C2F88830BFF34F8FBFF38D
:102D30006F8F4FF08053D3F83021062A0FD1D3F88C
:102D40003431033B042B02D8264AD35C3BB14FF00D
:102D50001023D3F808224FF08043C3F858254FF0D2
:102D60001023D3F80022002A03DBD3F80432002B0F
:102D700022DA1D4901234FF01020C1F80435152433
:102D8000FFF7E6FEC0F80042FFF7E2FEC0F804429B
:102D9000FFF7DEFE0023C1F80435FFF7D9FEBFF3CD
:102DA0004F8F0A49114BCA6802F4E0621343CB60AB
:102DB000BFF34F8F00BFFDE70D4B0E4A1A6010BDE9
:102DC0000030014000C007400DF0ADBA00ED00E05A
:102DD000005000405842000000C000405D4200002A
:102DE000001000406242000000E001400400FA05CB
:102DF000240000200090D0030369C26893429CBF66
:102E000080681B18013B981A70472DE9F843D0E9F8
:102E100002940546A9EB04084068904520440F46FB
:102E2000144404D900F040FDEC60BDE8F88342464C
:102E3000A4EB090400F038FD6868224607EB08019E
:102E4000F0E72DE9F843C5680646894617464FF076
:102E500000083469B3687068A54228BFE418013CD3
:102E6000621B5C1BBC4228BF3C46944228BF1446F0
:102E700049462844224600F017FDB3682544AB427A
:102E800008BF00253F1BA044A144F560E1D14046A6
:102E9000BDE8F88310B5114C114AA2610223C4E9C0
:102EA0000433104BE361A2644FF400730E4A0F49E0
:102EB0002362E26400231022E01DA3626362E362E6
:102EC000A3656365E365226500F017FD08492046A8
:102ED00000F013FD2023A37110BD00BF6807002080
:102EE0006C420000F0070020E0070020754200005F
:102EF0007942000070B5164B182400FB04451D44B0
:102F000004FB00331646DC6A012C0ED0022C18D0CC
:102F1000E4B92846FFF770FF864204D832462846B7
:102F2000FFF773FF3446204670BD2846FFF764FF65
:102F30008642344628BF044622462846FFF765FFEE
:102F4000F1E72846BDE87040FFF77BBF0024EAE7C1
:102F50006807002070B50B4B1B7804460D461646DB
:102F60000BB9FFF797FF0020FDF766FF32462946B1
:102F70002046FFF7BFFF04460020FDF75FFF204615
:102F800070BD00BF6807002013B5044608460191D4
:102F900000F0D5FC01990246204602B0BDE8104081
:102FA000FFF7D8BFFFF776BF0FB410B5A2B024ABC0
:102FB000802153F8042B019302A800F065FC8028BF
:102FC00004460ADD802202A90020FFF7C3FF204645
:102FD00022B0BDE8104004B070470028F7DD02467B
:102FE000F1E701460020FFF7CFBF00002DE9FF47C2
:102FF000314D064600F0BDF900F06AF900F0A4F981
:103000004FF47A7445F001054FF47A40A847013C2B
:10301000FAD100F0FFF8A8B12848294FDFF8BC80AA
:10302000DFF8BC90FFF7DDFF2648FFF7DAFF00244A
:10303000A64209DC00F04CF9234804B0BDE8F04793
:10304000FFF7CFBF2148E8E74CF2503000F09CFA80
:1030500000238DF8053041F2883A4FF47A40A847B2
:10306000BAF1010AF9D10DF1050000F047F9013478
:10307000014618B11648FFF797FFD9E79DF80530CC
:103080001BB91448FFF7ADFFD2E702A903AA0DF15F
:10309000060000F001F9014608B10F48EBE7BDF862
:1030A00006300BB94846EDE721463846FFF77CFF6E
:1030B000BDF806104046DEE7904300008042000065
:1030C0005C430000A54200007D43000087420000F1
:1030D000CF420000004300000B430000704300009B
:1030E0003943000038B5054D044645F001054FF45D
:1030F0007A40A847013CFAD138BD00BF50440000D7
:103100002DE9F0412DED028B8AB0064600F06AFAF7
:10311000374D002400F0CDFAB0BB3648FFF744FF2E
:1031200000F04CFA10B13448FFF73EFF42F2107045
:10313000FFF7D8FF314F9FED328ADFF8D4800025AA
:10314000AE4229DC4FF47A70FFF7CCFF4FF47A706F
:10315000FFF7C8FF002C02DB2A48FFF742FF4FF4BD
:103160007A70FFF7BFFF00F03DFA04464FF47A7023
:10317000FFF7B8FF002C02DB2348FFF715FF0AB06A
:10318000BDEC028BBDE8F0812846FFF70DFF4FF440
:103190007A70FFF7A7FFBDE740F6B830FFF7A2FF50
:1031A000684600F02CFA041E05F1010503DA174801
:1031B000FFF7FAFEC4E729463846FFF7F5FEDDEDD6
:1031C000017ABDEEE77A404617EE103A19B207EEE3
:1031D000101AB8EEC77A77EEC77A67EE887AFDEEF6
:1031E000E77A17EE903A1AB2FFF7DEFEA8E700BFC3
:1031F00096430000A5430000B7430000EE430000E3
:103200000000C8422044000036440000D4430000BF
:103210000444000013B542F2B112002101A800F0ED
:1032200057F901A90246622000F05AF9044618B97C
:103230004FF47A7000F0A8F9204602B010BDF0B546
:1032400085B007460E46154600214EF6054201A8F8
:1032500000F03EF901A90246622000F041F904465F
:10326000B8B94FF47A7000F08FF9062201A96220F4
:1032700000F03BF9044660B901A800F08EF83880F0
:103280000DF1060000F089F8308002A800F085F802
:103290002880204605B0F0BD37B50D46144601A97B
:1032A0000DF10602FFF7CBFF80B9BDF8043045F2FF
:1032B000735253435B13A3F52F43C83B2B60BDF8F8
:1032C000063043F2D40253435B13236003B030BD96
:1032D00013B543F68672002101A800F0F9F801A9A0
:1032E0000246622000F0FCF8044610B9024800F0E3
:1032F0004BF9204602B010BD20A1070037B54EF2B1
:10330000B8420021054601A800F0E2F801A90246F2
:10331000622000F0E5F8044698B94FF47A7000F0A6
:1033200033F9022201A9622000F0DFF8044640B917
:1033300001A800F032F8C0F30A03003B18BF0123D4
:103340002B70204603B030BD13B543F24662002116
:1033500001A800F0BDF801A90246622000F0C0F803
:10336000044618B944F6206000F00EF9204602B079
:1033700010BD07B543F2F662002101A800F0A8F8DD
:1033800001A90246622000F0ABF844F6206000F08C
:10339000FBF8002003B05DF804FB008840BA80B25F
:1033A0007047006800BA704708B5FFF7FAFF00EEF3
:1033B000100A08BD10B502460144FF20914200D119
:1033C00010BD12F8013B0824584010F0800F4FEA5E
:1033D000400318BF83F03103D8B2631E13F0FF041B
:1033E000F3D1EBE710B51446FFF7E4FF001B18BF5D
:1033F000012010BDF8B51D460B0A0370417016463A
:10340000841C02EB4507BE4203D105EB4505A81C11
:10341000F8BD33881B0A237036F8023B63702046E0
:103420000221FFF7C7FF033404F8010CEBE72DE995
:10343000F04302EB420291B096B2884632466946AA
:1034400000F086F805B21DB92F462C46B44203D3CE
:10345000284611B0BDE8F08304F140030DEB0309E9
:10346000022119F83E2C0DEB0400FFF7BBFF00B260
:1034700070B97B1C1DF8042008F807209BB219F8CE
:103480003F2C08F8032002370334BFB2A4B2DDE7B3
:103490000546DDE713B500231A46044601A8FFF7E9
:1034A000A9FF022201A9204600F05EF800B202B096
:1034B00010BD10B588B00446DBB26846FFF79AFF2E
:1034C00069460246204600F04FF800B208B010BD31
:1034D000130A43544B1C9BB20231C25488B270474A
:1034E00008B500F041F800B208BD2DE9F84312F02C
:1034F0000107884627D1520802EB420294B22246C5
:1035000000F026F805B215B92E46A64202D3284689
:10351000BDE8F88308EB0609022199F80220484625
:10352000FFF760FF00B280B918F8062008F80720FE
:103530007B1C9BB299F8012008F803200237033660
:10354000BFB2B6B2E1E70425E1E70546DFE70000D8
:1035500008B5D3B20A4601460248FEF713FC40B252
:1035600008BD00BF6C44000007B500230093D3B230
:103570000A4601460348FEF7EFFB40B203B05DF890
:1035800004FB00BF6C44000020B1034B800143F0FA
:1035900001031847704700BF6044000038B54DF282
:1035A000330104466920FFF775FF054628B910224C
:1035B00021466920FFF73BFFE57738BD13B54FF48F
:1035C0004073ADF806300DF1060201231021692089
:1035D000FFF76FFF044641F28830FFF7D5FF204622
:1035E00002B010BD10B54FF482716920FFF752FF91
:1035F000044641F28830FFF7C7FF204610BD30B5C2
:103600004FF440718BB004466920FFF743FF054635
:10361000002838D1142269466920FFF708FF0546C3
:1036200088BB6846FFF7C0FE01A884ED000AFFF7DB
:10363000BBFE02A884ED010AFFF7B6FE03A884EDE5
:10364000020AFFF7B1FE04A884ED030AFFF7ACFEFF
:1036500005A884ED040AFFF7A7FE06A884ED050A75
:10366000FFF7A2FE07A884ED060AFFF79DFE08A853
:1036700084ED070AFFF798FE09A884ED080AFFF712
:1036800093FE84ED090A28460BB030BD10B541F217
:1036900003116920FFF7FEFE41F203116920FFF7D5
:1036A000F9FE044618B941F28830FFF76DFF204655
:1036B00010BD00B589B0FFF7E9FF6846FFF76EFF60
:1036C00009B05DF804FB00007F2805D8034A044BCD
:1036D000105C5B5C18407047002070478444000019
:1036E00004450000A0F16103192B98BF20387047F2
:1036F000A0F14103192B98BF203070477F299ABF52
:10370000017001206FF02E00704700BF5AB10A7897
:103710007F2A0AD800B102600021501AC3E90011C3
:1037200018BF01207047104670476FF02E00704799
:10373000A0F16103192B98BF20387047A0F1410315
:10374000192B98BF203070477F2805D8034A044BB7
:10375000105C5B5C18407047002070478444000098
:103760000445000038B585680446084645B122681E
:103770006168531C8B4208BF00208A420AD2A854B9
:10378000E26823682AB161688B4202D221469047E1
:1037900023680133236038BD70B54D1E22D41368F1
:1037A0001446C6B20EE0D0542368E2682AB16168BC
:1037B000994202D9214690472368013D01336A1C92
:1037C00023600FD0A26872B1616803F1010C8C45CF
:1037D00014BF304600209942E5D8013D63466A1C7B
:1037E0002360EFD170BD3046DFE700BFC3062BD4A6
:1037F00010F4007F70B514BF302620264D1E22D451
:1038000013681446F6B20EE0D0542368E2682AB179
:103810006168994202D9214690472368013D0133EE
:103820006A1C23600FD0A2687AB1616803F1010CB1
:103830008C4514BF304600209942E5D8013D6346CF
:103840006A1C2360EFD170BD70473046DEE700BFD1
:10385000024B5B689B6809211B6818472800002001
:10386000027862B169B100EB010C034601E06345E7
:1038700003D013F8011F0029F9D1181A7047104618
:1038800070470846704700BF30B5944685B00025A4
:10389000CDE902050C461A4661466846019400F0DF
:1038A0007FF805B030BD00BF844640EA010313F045
:1038B000030F18D18446202A0BD32DE9F007B1E875
:1038C000F807A0E8F807A2F12002202AF7D2BDE805
:1038D000F007042A07D351F8043B40F8043BA2F157
:1038E0000402042AF7D2002A05D011F8013B00F89F
:1038F000013B013AF9D160467047024610F0030FD0
:1039000016D111F0030F13D12DE9F0004FF001375C
:103910004FF0803351F8044BA4EB070525EA04056A
:103920001D4002D142F8044BF4E7A1F10401F0BCC0
:1039300011F8013B02F8013B002BF9D1704700F16F
:10394000010110F0030F11D010F8012B002A23D031
:1039500010F0030F0AD010F8012B002A1CD010F031
:10396000030F03D010F8012B002A15D02DE97000A9
:103970004FF001324FF0803350F8044BA4EB0205B6
:1039800025EA04051D4000D1F6E7A0F1040070BC53
:1039900010F8012B002AFBD1A0EB010070470000BA
:1039A0002DE9F04F00230C46036089B014F8011B89
:1039B00003920746002900F0E582DFF8DC9507E076
:1039C0003846FFF7CFFE14F8011B002900F058819C
:1039D0002529F5D12246002612F8010B302800F2E5
:1039E0009E801F280ED9A0F12003102B0AD8DFE8F3
:1039F00003F0AC0909A8090909A4090909A0099C4F
:103A000009098D002A2840F0FC80039B10781D686E
:103A10000433002D0393BCBF6D4246F01006A21C78
:103A20002E2800F004810021742800F092807A286A
:103A300000F08F806C2800F032814C2800F0358136
:103A4000682800F0BE811446002800F08880A0F1AC
:103A50002503DAB2532A00F22B81532B00F228817E
:103A6000DFE813F0EB0126012601260126012601DD
:103A7000260126012601260126012601260126010E
:103A800026012601260126012601260126012601FE
:103A900026012601260126012601260126012601EE
:103AA00026012601260126012601260126012601DE
:103AB00026012601260126012601260126012601CE
:103AC0002601260126012601260182002601260163
:103AD00026012601260126012601260126012601AE
:103AE000D601F6002601260126012601F600260150
:103AF0002601260126015002480213022601260152
:103B0000ED012601CB0126012601840046F4007652
:103B10001446224612F8010B30287FF662AF5E2869
:103B20006FD146F480561446F3E746F0100614466B
:103B3000EFE746F020061446EBE746F4004614464D
:103B4000E7E746F080061446E3E746F040061446F1
:103B5000DFE7144614F8010B00287FF478AF4FF02C
:103B6000FF3009B0BDE8F08F46F4005616F0800A29
:103B700006D043F2780A43F25803782818BF9A46D1
:103B800016F4807307BF06F48042B04626F400782E
:103B900006F48042002A61D1039A18F0040F02F162
:103BA00004060396126800F0A08092B2002B65D044
:103BB00028F400785838202800F29D80DFE810F0C3
:103BC00073019B009B009B009B009B009B009B0044
:103BD0009B009B009B009B00D4009B009B009B00D4
:103BE0009B00D4009B009B009B009B009B00090155
:103BF00073019B009B009B009B00D4009B009B00DB
:103C00007301A0F13004E3B2092B4FF000053FF639
:103C100007AF12F8010B05EB850504EB4505A0F194
:103C20003004E3B2092BF4D92E287FF4FCAE1078CF
:103C30002A2840F07781039B50781968941C04333C
:103C4000002903932246FFF6EFAE46F48076EBE6BA
:103C500046F4804806F480734FF0000A039A18F087
:103C6000040F02F104060396126830D012B2002A43
:103C700031DA52424FF02D0A002B99D1012199E7F8
:103C80003868BB68002B3FF46CAF7A6882427FF6DD
:103C900068AF00221A54386809B0BDE8F08F1446A6
:103CA00046F0010614F8010BCEE646F00106144674
:103CB000B54BD3F80080B8F1000F3FF484AE00910B
:103CC00003A901912B4632463946C0477BE618F0DE
:103CD000080FCCD0D2B218F0200F40F03E8118F07F
:103CE000400F18BF4FF0200A60E718F0080F3FF4AC
:103CF0005DAFD2B25AE74FF0FF36002321EAE17BF5
:103D0000A5EB0B05BAF1FF0FA5EB030540F204810B
:103D1000CAF307213846023DFFF724FD5FFA8AF116
:103D20003846FFF71FFD40463A462946FFF75EFD3D
:103D30003A4659463020FFF72FFD731C0AD0013652
:103D40000DF1140A564416F8011D3846FFF70AFD16
:103D5000B245F8D118F0100F3FF435AE29463A4677
:103D60002020FFF719FD2EE61046002A00F00681FC
:103D700008F4004C624600238C464FF02C0E11468E
:103D800003F0030209B1032A14D01E46A9FB003236
:103D9000D20802EB820306F1200BA0EB4303EB44B5
:103DA000303309280BF80C3C06F1010340F2D280B5
:103DB0001046E5E703F120026A445E1C02F80CECB1
:103DC000E4E71078682800F0D480541C46F004061C
:103DD0003AE61046002A00F0D1800DF1140C0023C1
:103DE00002F007023032C0080CF8012B1E460246D2
:103DF00001330028F4D1C91A80E716F4807300F06B
:103E0000AF8026F4007806F480424FF0000AC1E645
:103E1000039B013D191D93F8008003913A46294602
:103E20003046FFF7E3FC41463846FFF79BFCB346BC
:103E30001BF0100F3FF4C7AD90E72521C0E5039BB1
:103E4000524A181D0390D3F800A0BAF1000F08BF22
:103E50009246F205D04626F4007B504640F185801C
:103E6000FFF7FEFC0646AD1B3A4629465846FFF7CB
:103E7000BDFC002EDCD018F8011B3846FFF772FCA1
:103E8000AAEB0803F342F6D1D2E7039B1A1D039273
:103E900016F0800F1A6846F480780CBF4FF0000AC5
:103EA0004FF0230A08211046002A67D008F4005C6E
:103EB000634605AA8C460026A346194609E0344B02
:103EC000000913F80E3002F8013B06F101030DD092
:103ED0001E4600F00F0E0029F1D12E4C000914F8F7
:103EE0000E3002F8013B06F10103F1D161465C4658
:103EF000C91A03E716F0800F0CBF4FF0000A4FF00D
:103F0000300A3DE6039B3A68191D03911B6831078F
:103F10004CBF1A701A6056E5BAF1000F3FF403AFB8
:103F2000013DFBE6A0F13004E3B2092B02F10102EE
:103F30004FF000013FF689AE12F8010B01EB810151
:103F400004EB4101A0F13004E3B2092BF4D946F4AB
:103F5000807669E56146C91AD0E64FF02B0A25E65E
:103F600006F48042B0469A4614E6FFF7E8FC06469F
:103F700079E7507846F00806941C65E513464FF043
:103F8000FF36BBE608467CE6F0090020D846000074
:0C3F9000C8460000B8460000CDCCCCCCE8
:103F9C00B6410000000000008F410000000000004E
:103FAC008941000000000000954100000000000065
:103FBC00BA41000000000000BF41000000000000FA
:083FCC0019400000000003038E
:103FD4002841000000000000014100000000002012
:103FE4005441000000000000F040000008000020E0
:103FF4003C000020040100200C01002044000020AB
:0440040018000000A0
:104008004261636B656E647320666C757368656482
:1040180000617070000000002C0500207F00000087
:10402800AC0500201B5B313B33316D0025734C6FB1
:1040380067732064726F7070656420282564292571
:10404800730D0A001B5B306D002573003C25733E21
:104058002025733A200020253032780020202000C7
:104068007C002563001B5B313B33306D001B5B31EB
:104078003B33326D001B5B313B33336D001B5B31CF
:104088003B33346D001B5B313B33356D001B5B31BB
:104098003B33366D001B5B313B33376D0077617204
:1040A8006E696E6700696E666F00646562756700A9
:1040B8004C4000006D4000002C400000754000009E
:1040C8007D400000854000008D40000095400000C4
:1040D8009D4000000000000066410000A54000006F
:1040E800AD400000B2400000756172745F6C6F678C
:1040F8005F6261636B656E64007274745F6C6F6796
:104108005F6261636B656E64000000000000000080
:1041180000000000000000000338FDD870470000D0
:10412800690B0000D50B0000650B0000FFFFFFFFC7
:10413800FFFFFFFFFFFFFFFFFFFFFFFF0000000083
:10414800000000000000D60106010000F90C000084
:104158005D0D0000A90C0000466174616C20657259
:10416800726F720053797374656D2072657365742C
:1041780000303132333435363738394142434445DB
:104188004654494D45520053414144430054574910
:104198004D000000691900007919000000000000B6
:1041A80000000000000000000338FDD8704750529E
:1041B8005300554152540055415254450025640A54
:1041C8000D005374617274696E672074686520709D
:1041D800726F6772616D0054574920646576696330
:1041E8006520646574656374656420617420616426
:1041F800647265737320307825782E004E6F2064C2
:1042080065766963652077617320666F756E642EC5
:104218000000000000000000020000030000000091
:104228000002000004000000000003060000000077
:1042380000800040000400000338FDD870470000EB
:1042480000000000003000400000000001000000F5
:10425800000001010100000001010000000001014F
:10426800000000005465726D696E616C0052545410
:1042780000534547474552006572726F726500509A
:104288006572696F646963206D6561737572656DC8
:10429800656E7420737461727465640A005761698D
:1042A80074696E6720666F72206669727374206D18
:1042B8006561737572656D656E742E2E2E202835B6
:1042C80020736563290A004572726F7220657865EC
:1042D800637574696E672073636434785F676574A7
:1042E8005F646174615F72656164795F666C616760
:1042F80028293A2025690A00736F6E6F207175614D
:104308002020004572726F72206578656375746944
:104318006E672073636434785F726561645F6D658E
:1043280061737572656D656E7428293A2025690A6E
:1043380000496E76616C69642073616D706C6520EC
:1043480064657465637465642C20736B6970706947
:104358006E672E004D6561737572656D656E7420AC
:104368006EB02025643A0A00434F323A2025752062
:1043780070706D0A0046494E45204D4953555241CB
:104388005A494F4E490A0A000338FDD870477072DF
:104398006F6265206661696C65640A0D0070726FF2
:1043A8006265207375636365656465640A0D0065FD
:1043B80072726F72207374617274696E67206D65B2
:1043C80061737572656D656E740A0D00726561645E
:1043D800206D6561737572656D656E7420666169BF
:1043E8006C65640A0D004D6561737572656D656E67
:1043F80074206EEFBFBD2025643A2000504D203256
:104408002E353A2025642E2564205BEFBFBD672F2B
:104418006DEFBFBD5D0A0D0046616E206D616E7562
:10442800616C20636C65616E696E670D0A004D658D
:1044380061737572656D656E742073746F707065E5
:10444800640A0A0D000000000338FDD87047000018
:1044580000000000000000000338FDD8704700008D
:1044680000000000003000400000000001000000D3
:1044780043000000504F53495800000020202020DE
:1044880020202020206828282828202020202020BC
:10449800202020202020202020202020481010101C
:1044A8001010101010101010101010108484848434
:1044B80084848484848410101010101010818181E9
:1044C8008181810101010101010101010101010154
:1044D80001010101010101101010101010828282E7
:1044E8008282820202020202020202020202020224
:1044F800020202020202021010101020000703201C
:10450800041702010857104080000000784400009A
:104518007C4500009046000053756E004D6F6E009C
:1045280054756500576564005468750046726900E3
:1045380053617400000000004A616E004665620025
:104548004D617200417072004D6179004A756E00CC
:104558004A756C0041756700536570004F637400BD
:104568004E6F76004465630000000000414D005026
:104578004D000000B4460000B0460000B046000000
:10458800B0460000B0460000B0460000B04600004B
:10459800B0460000B0460000B0460000FFFFFFFF35
:1045A800FFFFFFFFFFFFFFFFFFFF0000F0450000D8
:1045B800204500002C4600004045000074450000DE
:1045C800D445000084460000E0450000256D2F25F5
:1045D800642F2579000000002561202562202565CB
:1045E800202554202559000053756E646179004DCB
:1045F8006F6E6461790054756573646179005765FD
:10460800646E657364617900546875727364617966
:1046180000467269646179005361747572646179E6
:10462800000000004A616E75617279004665627229
:1046380075617279004D6172636800417072696CCE
:10464800004D6179004A756E65004A756C790041C4
:1046580075677573740053657074656D6265720073
:104668004F63746F626572004E6F76656D62657236
:1046780000446563656D62657200000025483A254F
:104688004D3A255300000000C9360000E536000009
:10469800F136000049370000313700003D3700008F
:1046A800FD3600000D370000000000002E0000005D
:1046B8003031323334353637383961626364656690
:1046C8003031323334353637383941424344454640
:0846D800286E756C6C290000CE
:1046E00000000000FF00000000000000FF000000CC
:1046F00000000000002000400000000000200040FA
:10470000000000000090D003144500001445000094
:0C47100014450000144500001445000092
:040000030000037581
:00000001FF
