:020000021000EC
:1020000000000120752301005D230100E938010073
:10201000612301006323010065230100000000002B
:102020000000000000000000000000006723010025
:1020300069230100000000006B2301006D230100F3
:102040006F2301006F230100B5470100C154010057
:10205000D15401006F230100694601008551010040
:102060006F2301006F2301006F2301006F23010024
:102070006F2301006F2301006F2301006F23010014
:102080006F230100D53801006F2301006F23010089
:102090006F2301006F230100996101006F2301008C
:1020A0006F2301006F2301006F2301006F230100E4
:1020B0006F2301006F2301000000000000000000FA
:1020C0006F2301006F2301006F2301006F230100C4
:1020D0006F2301006F2301006F2301000000000047
:1020E00000000000000000000000000000000000F0
:1020F00000000000000000000000000000000000E0
:1021000000000000000000000000000000000000CF
:1021100000000000000000000000000000000000BF
:1021200000000000000000000000000000000000AF
:10213000000000000000000000000000000000009F
:10214000000000000000000000000000000000008F
:10215000000000000000000000000000000000007F
:10216000000000000000000000000000000000006F
:10217000000000000000000000000000000000005F
:10218000000000000000000000000000000000004F
:10219000000000000000000000000000000000003F
:1021A000000000000000000000000000000000002F
:1021B000000000000000000000000000000000001F
:1021C000000000000000000000000000000000000F
:1021D00000000000000000000000000000000000FF
:1021E00000000000000000000000000000000000EF
:1021F00000000000000000000000000000000000DF
:10220000354936480A1A02D0072291438D4634498F
:1022100034480A1A06D00722914381F30988022222
:1022200082F3148830483149314A00F044F831488B
:102230003149324A00F03FF831483249324A00F021
:102240003AF832483249334A00F035F832483349D7
:10225000334A00F030F833483349344A00F02BF861
:1022600033483449344A00F026F8344834490022CF
:1022700000F02CF833483449002200F027F83348A6
:102280003349091A082902DB002202604160314A01
:1022900090471F481F49884205D00268043003B4A4
:1022A000904703BCF7E700208646EC46002000215B
:1022B000294A9047FEE7884207D0521A05D0037892
:1022C00001300B700131013AF9D17047884202D0D8
:1022D00002700130FAE770470000012000E00020A2
:1022E0000000012000000120387E0100800B00204A
:1022F000600C0020D0230100D02301007C6C010081
:10230000387E0100800B0020800B0020206D010032
:10231000206D0100206D0100206D0100206D010085
:10232000206D0100206D0100206D0100387E01004C
:10233000187F0100600C0020600C0020600C002061
:10234000A0170020A0170020A0170020A017002031
:10235000A03700209D2301000D5A0100FEE7FEE793
:10236000FEE7FEE7FEE7FEE7FEE7FEE7FEE7FEE745
:1023700000F002B8FFF7FCBF0F484FF00701884399
:1023800085460E4880470E48016841F4700101609F
:10239000BFF34F8FBFF36F8FFFF732BF09480A4972
:1023A0000A4A884207D0521A05D0037801300B70D0
:1023B0000131013AF9D1704700000120A55D01000B
:1023C00088ED00E0206D0100800B0020800B0020D4
:1023D000F0B595B01D46164608460C4601F0A8FE1D
:1023E0001A9B0D93CDE9086500252B46082205A907
:1023F00020460A958DF82C500C9501F0B5FE079BF0
:102400000293069B03939DF814308DF8115003F04E
:102410000302012A1DD1BDF81420059DC3F3C20398
:10242000C2F383168DF81030B20008230EA920469F
:1024300001F09AFEC5F3952508AB0093324602AB36
:102440000EA9284600F0BEFB204601F075FE15B02F
:10245000F0BD022AF8D1BDF81650C3F3C203C5F38C
:1024600089158DF810300827082D2E4628BF08261C
:102470003B4632460EA9204601F076FEAD1B08AB66
:1024800002AA31460EA8374400F000FC002DEBD123
:10249000DAE70000014B01221A707047A10C0020FE
:1024A0007047000070B50E4D06460FCD88B06C46E3
:1024B0000FC495E80F00002E84E80F00094A0A486F
:1024C0004FF0060308BF00226946009301F05AFF4F
:1024D00008B100F035FE054B1E7008B070BD00BF9E
:1024E000206D010095240100800B0020600C00206D
:1024F00007B5044B0093044A4023FFF769FF03B07C
:102500005DF804FB0D250100610C002038B50D4875
:102510000D4C0E4D002323700378EB5CD2B263B1F7
:10252000043002F0D5FD08B100F00AFE084B1A781D
:1025300012B12378002BFBD038BD0C3002F076FBB3
:10254000F1E700BF800B0020A10C00200C1300203D
:10255000600C002008B50848084A0378D35C3BB1FA
:10256000043002F019FDBDE808400020FFF79ABFD3
:102570000C3002F0E5FAF6E7800B00200C13002087
:102580000120FFF78FBF000008B5FFF7F9FF0448EF
:10259000042100F081FA034B01225A7108BD00BFEB
:1025A000FC6C0100940B0020037813F0040216D099
:1025B00003F00303012B03D0022B09D00120704745
:1025C0000A6800880232C0F3831002440A60F5E70B
:1025D0000B684288023303EB92130B60EEE7104660
:1025E000704700002DE9F04FDFF81CA187B00F46BF
:1025F00000230446861C0DF1070015468DF80730B0
:1026000000F0FAFFDAF804203A60DAF8083003F54F
:1026100080739B1A0AF21C470AF583690AF2144870
:10262000B3421AD30020002D69D004F00F039B01A0
:1026300043F0050363F30F00DAF80430DAB2033233
:1026400033444AF822009DF80700CAF8043000F02D
:10265000F7FF012007B0BDE8F08F0121384601F0F7
:1026600096FA484601F0ABFA404601F0A8FADAF8CB
:1026700008000290C0B203300AEB800002A9FFF705
:1026800093FF029B30BBDAB20AEB8202D16803915E
:102690009A1C0133DBB20AEB83030292D3F80CB02D
:1026A00001F00303012B22D0022B15D083464046B4
:1026B00001F088FA10B1029BCAF808305946384632
:1026C00001F065FADAF80830DAF8042003F58073CF
:1026D0009B1AA5E7D8B2CEE7BDF80E30C3F3891335
:1026E00003334FEA1B4B02EB93030293DFE7BDF882
:1026F0000C30C3F383134FEA1B4B1344F5E7A405D7
:1027000044F0060098E700BF740D0020064B074810
:1027100010B500221A7001F0C4FC044610B9044838
:1027200001F08EFD204610BD740D00200C6D0100DF
:10273000746D010030B50A4C71B10A4A0A49121B86
:10274000D20800239A4201D1002030BD31F8235035
:10275000854202D00133F5E7034654F83300F4E72D
:10276000846C0100F46C0100800B0020094B0139DE
:1027700003EBC000032909D8DFE801F00A020406D0
:1027800004207047007970474079704700207047F7
:1027900002207047846C010070470000034BD3E9AE
:1027A0000130C31A58425841704700BF740D0020D1
:1027B0002DE9F04186B0FFF7F1FF0546002840F013
:1027C000ED80774CC4F81804BFF34F8FA3680293D1
:1027D000DBB2033304EB830002A9FFF7E5FE029BA3
:1027E00018B1D4F81824002A5AD0DAB2991C01334F
:1027F00004EB8202DBB204EB8303D268DB68049350
:1028000002F00303022B0392029154D1BDF80E3063
:102810006448C3F38917502F3E4628BF502606F15F
:10282000080166F38F13C1F30901ADF80E3001F012
:1028300050FC0546002800F09C8001F079FC002344
:10284000082203A9284601F085FC0299CB43DBB29C
:102850000133C9B20331B6EB830F4FEA830204EBB5
:10286000810125D95FFA82F80823A6EB08062846DD
:1028700001F070FCF6B208F108034B4903F0FC03C9
:102880003246284601F066FC029B033703EB9707AC
:102890000297D4F81834002B43D1D4F8106453E0D5
:1028A00062689A4294D8A260284606B0BDE8F081DA
:1028B00008233246E5E7012B5BD1BDF80C303948DF
:1028C000C3F38311062928BF062161F3891302315E
:1028D00001F00F018900ADF80C3001F0FAFB05465C
:1028E000002846D001F024FC0023082203A9284632
:1028F00001F030FC0026BDF80C20C2F38312B300B7
:10290000964203F10803C4D202994A1CC9B20331AA
:10291000029204EB81010422284601F01BFC0136DF
:10292000E9E7284601F008FCFFF738FF80F00100D6
:10293000C5B2B9E7F3685B7923B1336829461B68F0
:1029400030469847F3681E68002EF3D1284601F000
:10295000F3FB0DF107008DF8076000F04DFED4F891
:1029600018340BB9029BA3609DF8070000F068FEC5
:10297000DAE7D4F8104454B90C4B0D480D49C01A8D
:10298000C008000440F0020000F05EF8CCE72368C5
:1029900020469B689847E3681C68ECE7002583E7BE
:1029A000740D00200C6D0100800D0020846C01006E
:1029B000B46C01005D6D01002DE9F34704460E463D
:1029C000924601A9012218469946FFF70BFE1C4FBB
:1029D00010B3019D4FF00008AA1CC84508EB020186
:1029E00025D11848002101F0AFF880F31000000451
:1029F00040EA1440E4006B1C04F03804DBB2EDB292
:102A000044F0010407EB8303033544EA881444EAE5
:102A10008624D86047F825403B781BB1FFF7C8FEF5
:102A20000028FBD1FFF7B8FE02B0BDE8F087C9B2BD
:102A300007EB81015AF82830CB6008F10108CCE798
:102A4000740D00209011002000231A46FFF7B4BF38
:102A500007B50123019201AAFFF7AEFF03B05DF8AD
:102A600004FB1FB5CDE90123069B039301AA0323B1
:102A7000FFF7A2FF05B05DF804FB1FB5CDE9002309
:102A8000069B0293079B03936A460423FFF794FF78
:102A900005B05DF804FB000030B50F4CD4F81024ED
:102AA00003460020114631B9D96808714AB9C4F803
:102AB00010340A6030BDC9680D79854206D00968B6
:102AC000F1E7D26814680C601360F3E701300A285C
:102AD000E8D14FF0FF30EDE7740D002038B5084B1A
:102AE0000125D3F810441D7004B938BDE3685D7149
:102AF000236820465B689847E3681C68F4E700BFDA
:102B0000740D002030B5C38885B004460D4633B13E
:102B1000144A00921449154A284601F0B6F8217A61
:102B200005291DD0637A4BB1A088FFF71FFE104B1B
:102B3000104953F82020284601F0A7F8227A0E4BBE
:102B4000A08853F8222003920021FFF7F3FD039A97
:102B50000A490346284605B0BDE8304001F095B863
:102B600005B030BDA06D0100886D0100806D0100D1
:102B70000C6E0100A56D0100306E0100A86D010012
:102B800007B503460846197A052911D05B7A2BB19F
:102B9000094A0A49019001F078F801980849019022
:102BA00001F073F8019803B05DF804EB01F062B82E
:102BB000002AF8D0F2E700BFA06D0100A56D01006A
:102BC0009D6D01002DE9F04385B01F460C9D00234B
:102BD00095F80C902B7306460C46904629463846CD
:102BE000FFF790FFB8F1060F09D8DFE808F00412EC
:102BF000181F283340003146284601F046F80022CD
:102C000029463846FFF7BCFF85F80C9005B0BDE8B3
:102C1000F08322683146284601F037F8EFE7D4E91F
:102C200000233146284601F030F8E8E7A368009316
:102C30003146D4E90023284601F027F8DFE7E368AE
:102C40000193A36800933146D4E90023284601F09C
:102C50001CF8D4E723690293E3680193A368009307
:102C60003146D4E90023284601F00FF8C7E763692D
:102C7000039323690293E3680193A36800933146A9
:102C8000D4E90023284601F000F8B8E708292DE927
:102C9000F74F80460E4617461C463DD800251B7B45
:102CA0002573214610460193FFF72CFFDFF88CA017
:102CB000DFF88CB0AE4232D918F8052059462046CC
:102CC00000F0E3FF0135082DF4D11B49DFF874A0B3
:102CD000DFF874B0204600F0D8FF4FF000094E45F1
:102CE00024D918F809507E2D1ED8284603F0DAFBA7
:102CF000002814BF2A462E225946204600F0C5FF60
:102D000009F10109B9F1080FE9D10122214638463C
:102D1000FFF736FF019B237303B0BDE8F08F5146E8
:102D2000204600F0B2FFCDE72E22E5E751462046CF
:102D300000F0ABFFE4E700BFBC6D0100B86D01001F
:102D4000B26D0100BA6D0100BE6D0100054A4FF081
:102D5000A043105CD3F8043523FA00F0C04300F020
:102D600001007047446E0100044B1A5C012393403C
:102D70004FF0A042C2F80C35704700BF446E01000E
:102D8000044B1A5C012393404FF0A042C2F808356F
:102D9000704700BF446E010008B50020FFF7F0FF48
:102DA0000120FFF7EDFF0220FFF7EAFFBDE8084032
:102DB0000320FFF7E5BF08B50020FFF7D5FF01208E
:102DC000FFF7D2FF0220FFF7CFFFBDE80840032046
:102DD000FFF7CABF074A4FF0A041105CD1F8043595
:102DE0000122824022EA03001340C1F80805C1F81D
:102DF0000C357047446E01000D2809D00E2809D00B
:102E00000F2809D010280CBF03204FF0FF30704767
:102E1000002070470120704702207047C20708B5A4
:102E200001460CD54FF0A0430322C3F84427C3F852
:102E30004827C3F84C27C3F85027FFF7ADFF8B078F
:102E40000AD54FF0A0430C22C3F83427C3F8382723
:102E5000C3F83C27C3F8402708BD0000C30710B5DE
:102E600007D4F023054A4008145C23401943115449
:102E700010BD0901C9B20F23F4E700BF40120020C2
:102E800030B5094B1C78094B196800239C4202DCC1
:102E90000022104630BD11F83350854201EBC302C9
:102EA000F7D00133F2E700BF2C12002050120020AF
:102EB00013B504460191FFF7E3FF38B143682BB126
:102EC0000199204602B0BDE81040184702B010BD7D
:102ED000034B044819680022490800F055BA00BFA6
:102EE00030120020A00B002010B5C0B2FFF7C8FFC1
:102EF0000446007801F0AEFB63785A1E53425341FA
:102F0000834208D1044BD3E90023134303D1BDE826
:102F10001040FFF7DDBF10BD3812002037B5430861
:102F2000374AD35CC2074CBF1B0903F00F030446AA
:102F30000D46042B25D8DFE803F003262F3C400084
:102F4000F9B10121FFF78AFF00230DF107008DF889
:102F5000073000F051FB0120A4F12003C4F120014F
:102F6000284A20FA01F100FA03F30B43A040D2E90A
:102F7000004120430B43C2E900039DF8070000F025
:102F80005FFB03B030BD002918BF0221204603B00B
:102F9000BDE83040FFF762BF49B10321FFF75EFF94
:102FA0000121204603B0BDE83040FFF781BF012179
:102FB000ECE70029E5D10421E8E709B10321E5E7C1
:102FC000FFF74CFF29462046FFF772FF0DF107007F
:102FD0008DF8075000F010FB0120A4F12003C4F18C
:102FE0002001084A20FA01F100FA03F30B43A04044
:102FF000D2E9004124EA000021EA0303BBE700BF55
:1030000040120020381200202DE9F041124E134FDB
:1030100000243378A34208DC114BD3E90023134387
:1030200018D0BDE8F041FFF753BF3D6805EBC40879
:1030300015F8340001F00EFB98F801305A1E534287
:103040005341181A4142414115F83400FFF766FF19
:103050000134DEE7BDE8F0812C1200205012002080
:1030600038120020092AF7B505460C4616463ED907
:1030700001F028FAE8B11F4B1F481D601F4B204F7D
:103080001C70204B002110221E6003F070FA1E4BB2
:1030900000200021C3E90001013CE4B20326FF2C1B
:1030A0000DD11A4A1A48002103B0BDE8F04000F0E3
:1030B00059B901F0CFF90028DDD003B0F0BD9DF87B
:1030C000063015F834008DF8046005EBC40223F0D7
:1030D00007038DF8063001A993788DF805303A463C
:1030E00001F0FAF9013CE4B20028D8D0E5E7072066
:1030F000E3E700BF50120020401200202C120020F5
:10310000E92E0100301200203812002009300100A1
:10311000546E010070B5084D084E00242B789C4277
:1031200001D3002070BD3368012113F8340001F091
:103130004BFA0134F2E700BF2C120020501200209D
:103140001FB50021039001AA44F20100CDE901114D
:1031500000F004F805B05DF804FB000038B572B665
:10316000FFF7BCFCFFF724FB0028FBD1104B114CF0
:10317000114D1249E41AE408240444F00100FFF759
:1031800063FCD5F8F030DB0700D500BE0C4944F0F5
:103190000200FFF759FCBFF34F8FEA68094B02F4B6
:1031A000E0621343EB60BFF34F8F00BFFDE700BF4A
:1031B000846C0100B46C010000ED00E0586E010069
:1031C000646E01000400FA0510B5D0E90243D1E9AC
:1031D0000202A04272EB03032CBF0120002010BDAD
:1031E00008B50A4800F05FFB094AD2E90031C0186F
:1031F000084BD3E9002341F10001904271EB030336
:1032000003D210F1807041F1000108BDC00B002015
:1032100058120020D012002037B505460C460A4847
:1032200001A900F01CFC60B10570446001A90648CA
:1032300000F03FFC18B1054800F03AFB002003B055
:1032400030BD0420FBE700BFBC120020C00B0020F3
:10325000294B73B51E7804461EB90026304602B0CD
:1032600070BD0028F9D0FFF7BBFFD4E902239042DC
:10327000994139D300230DF107008DF8073000F094
:10328000BBF923692BB94FF0FF324FF0FF33C4E98C
:1032900002239DF8070000F0D3F9D4E905309847E0
:1032A00000250DF107008DF8075000F0A5F92369FE
:1032B000C3B1D4E90212B2F1FF3F08BFB1F1FF3F41
:1032C00005D05B1842F10002C4E9023235469DF890
:1032D000070000F0B5F9002DBFD00848214600F0E6
:1032E000CEFFBBE71D46F2E7B3F1FF3F08BFB2F1E7
:1032F000FF3FB2D0F1E700BF60120020806E0100F6
:1033000013B5114B11491868019008231048582231
:1033100000F092FB044698B90E4A0F4801A900F04C
:10332000B3F9044660B90C48012100F09FFA01236B
:103330000A4A0948194600F001FA094B01221A709D
:10334000204602B010BD00BF7C6E01006412002058
:10335000BC12002041340100C00B0020FFFF7F00A1
:103360006012002030B56AB103684FF0FF344FF0AF
:10337000FF355A614A1E5142C3E902455141196164
:10338000002030BD0720FCE7F7B5044600250DF10D
:10339000070017460E468DF8075000F02DF9D4E9C6
:1033A0000223B3F1FF3F08BFB2F1FF3F07D1FFF7A0
:1033B00017FF301841F10001C4E9020101259DF811
:1033C000070000F03DF955B12369A76103B12661FB
:1033D0002146002003B0BDE8F040FFF71DBF28469E
:1033E00003B0F0BD37B5054600240DF107008DF898
:1033F000074000F001F9D5E90223B3F1FF3F08BF10
:10340000B2F1FF3F1FBF4FF0FF324FF0FF33C5E96E
:10341000022301249DF8070000F012F934B1294677
:10342000012003B0BDE83040FFF7F6BE204603B0F0
:1034300030BD0000014800F036BA00BFC00B0020CC
:103440002DE9F743064600F019FA40B1624AD2E985
:10345000003113F1807341F10001C2E90031002114
:10346000304600F01AFA38B15C4C236823B120686A
:10347000FFF7EEFE002323600121304600F00DFA35
:1034800020B1FFF7ADFE564BC3E900015548534C40
:1034900001A900F01EFB4FF0FF384FF0FF39A0B933
:1034A000DFF844814D4D404600F0FFFE002800F05B
:1034B0008580D0E90223B3F1FF3F08BFB2F1FF3F9F
:1034C00032D1404600F0EBFEEDE70378012B20D02F
:1034D000022B08D1444D284600F0E1FE002877D0A9
:1034E000C0E90289F7E75BB94168D1E90223B3F18A
:1034F000FF3F08BFB2F1FF3F02D03B4800F0BFFEE4
:1035000001A9384800F010FB01A9364800F0E1FAA3
:10351000C5E741682368994202D100232360EFE7A1
:10352000314800F0C5FEEBE7296891B12968D1E97F
:10353000020182428B412FD22B68D3E90223B3F1DF
:10354000FF3F08BFB2F1FF3F03D02968404600F0BB
:1035500096FE404600F0A3FED0E902490746FFF779
:103560003FFE201A69EB0109012879F1000318DBFD
:10357000B0F5350F13D3FFF75DFF1C4A02441C481A
:103580004FF49603002100F0F9F890B92B6813B9B5
:10359000304600F0CBF82F6003B0BDE8F083224640
:1035A000EDE71348002100F06EF93846FFF750FEB2
:1035B00001E00D28F9D000232B6074E7074B1B684E
:1035C000002BE9D1304603B0BDE8F04300F0B2B8BB
:1035D000084B01221A7093E758120020D8120020DD
:1035E000D0120020BC120020806E0100FFFFB4004A
:1035F000C00B00206012002070B5EFF3108672B689
:103600000C4A946801239CB993600B4B0B4DD3F883
:10361000801029401160C3F88050D3F884105160A5
:103620004FF0FF32C3F88420047006B962B670BD53
:103630000370FAE7DC12002000E100E0FC06FFBDA9
:10364000084B9A6810B55AB150B9EFF3108172B6B1
:10365000054A1C6814605C685460986001B962B6E1
:1036600010BD00BFDC12002000E100E0435882B032
:103670003BB10023435043580193019B012002B00A
:1036800070471846FBE70000F8B5204B4479204E00
:1036900043F824201F4A204B06EBC4049B1A2279CE
:1036A000DB081B0432B143F002001C49FFF7CCF9E0
:1036B0000820F8BD02680C88C2F8084590F904504B
:1036C0008A7804795201002DD2B219DB14494F19BE
:1036D00087F8002301226D0904F01F0402FA04F4A4
:1036E00041F82540427906EBC201012446F8320038
:1036F0000C7143F003000B49FFF7A6F90020D8E74F
:10370000094904F00F040A55ECE700BFF01200204D
:10371000E8120020846C0100C46C01008C6E010072
:1037200000E100E0AE6E010014ED00E0036801224C
:103730001A607047036801225A60704773B501F13F
:103740005005AD000068ADB24FF480348C400026C7
:10375000C0F80843C0F84843465101F5A8714559DF
:10376000019522F07F42019D40F82120C0F844439A
:103770000BB1C0F8044302B070BD00002DE9F74F53
:103780000D4622F07F4402684FF4803705F1500661
:103790008F408046B60002EB8500C2F84873B6B28F
:1037A000C2F80873D2F8041599464FF0000BD0F810
:1037B0004035C0F8401542F806B05B1A92590092A5
:1037C00023F07F43012B009A4FEA850A0CD1264B48
:1037D0004FF4806043F001039847D8F8003043F875
:1037E00006B09B590193019BD8F80010D1F80465ED
:1037F000C1F84473A31B23F07F43012B1CD11A4B48
:1038000005F5A875013443F0010341F825404FF454
:1038100080609847D8F80030D3F804359E4209D12B
:10382000D8F800300020C3F84473C3F8047303B021
:10383000BDE8F08F0D20FAE78A44C9F1FF13CAF8FA
:103840004045D1F80405221A013A22F07F4203F5DF
:103850007F439342EED3002AE2D10134CAF84045B7
:10386000D1F804359842DAE7C06E010003680222FD
:10387000C3F8442309B1C3F80423704700684FF428
:103880008271FFF7F3BE4FF4803303FA01F103684E
:10389000C3F84813C3F80813704750318900006813
:1038A00089B2FFF7E3BE0368D3F804057047000050
:1038B00090F90430002B09DB5A09012103F01F03A2
:1038C00001FA03F34032024941F82230704700BF49
:1038D00000E100E0024B034A1B681068184700BF74
:1038E000F0120020E81200201EF0040F1CBFEFF3BE
:1038F00009800AE0EFF308800549064A884201D8AA
:10390000904202D88D464FF00000034B184700004C
:103910000000012000E0002041390100BFF34F8F7B
:103920000549064BCA6802F4E0621343CB60BFF35B
:103930004F8F00BFFDE700BF00ED00E00400FA0577
:103940002DE9F3470546FFF7C9F8FEF731FF0028D8
:10395000FBD12D4C2D482E4B241AE40824049F6AD9
:1039600044F00104002D49D0AA692A492046FFF7F6
:103970006FF8EB680193AB68274900932046D5E9BF
:103980000023FFF77AF8EB6900932449D5E9042373
:103990002046FFF766F81E4BDB6A990703D52049DE
:1039A0002046FFF751F8DFF88890DFF888A000265E
:1039B0004FF0010808FA06F33B4206D059F82620DA
:1039C0001AB151462046FFF743F801361A2EF1D1BD
:1039D0003A0605D50E4B13495A6B2046FFF738F8C7
:1039E0003B0405D50A4B10499A6B2046FFF730F887
:1039F0002846FFF793FF02B0BDE8F0870B49204649
:103A0000FFF722F8C7E700BFCC6C0100846C01000F
:103A100000ED00E0C66E0100DB6E0100106F0100DA
:103A20006B6F0100BA6F0100DA6F0100386F01009F
:103A3000B4740100AF6F010010B561B1B2FBF3F4D3
:103A400003FB1424A4B244B9C0E900148460828149
:103A5000C381204610BD0E20FCE70920FAE737B5E8
:103A600050E8013F9DB2C48925448489A54228BFFE
:103A70002D1B0489A54202BFBFF32F8F002207E050
:103A8000C5EA030540E80154002CE9D14FF00102DA
:103A90008DF803200193019A0A609DF8031001F04C
:103AA000FF0321B1006810FA82F003B030BD184660
:103AB000FBE70A884B889A4209D150E8012FC2EAF5
:103AC000024240E80123002BF7D10120704700207B
:103AD000704737B550E8023F1FFAA3F5C488A542E6
:103AE00002BFBFF32F8F00220DE0C48925448489D3
:103AF000A54228BF2D1BC3EA054540E80254002C0F
:103B0000E8D14FF001028DF803200193019A0A6079
:103B10009DF8031001F0FF0321B1006800EB124093
:103B200003B030BD1846FBE70A884B889A4209D19A
:103B300050E8022FC2EA224240E80223002BF7D1CC
:103B4000012070470020704710B5034653E8000F6E
:103B50000A4643E8002494F0000FF7D110BD10B5D9
:103B6000034653E8002F42EA010043E8000494F0C2
:103B7000000FF6D110BD10B5034653E8000F00EA60
:103B8000010243E8002494F0000FF6D110BD10B5F7
:103B9000034653E8002F02EB010043E8000494F0D1
:103BA000000FF6D110BD10B5034653E8002FA2EB6D
:103BB000010043E8000494F0000FF6D110BD01218C
:103BC000FFF7CDBF0021FFF7D6BF10B590B1D0E908
:103BD000012301689B1ADBB20A60013BDBB2FF2BB9
:103BE000026802D10020107110BD11684C1C1460D5
:103BF0000B70F2E70E20F7E737B5054600240DF10C
:103C000007008DF80740FFF7F7FC2A686B6811681A
:103C100099420ED9481E106011F8013CEC68298ABF
:103C200001FB0344AB6811791B1ADBB2994238BF20
:103C300013719DF80700FFF703FD204603B030BD68
:103C400037B5054600230DF107000C468DF8073007
:103C5000FFF7D2FC2A681368591C1160E968641ADE
:103C6000298AB4FBF1F41C709DF80700FFF7E8FC0B
:103C700003B030BD826810B504462AB143690168BB
:103C8000006998470023A36010BD0EB403B50399E3
:103C900021B104AB01AA019300F076F802B05DF8FF
:103CA00004EB03B070470A2938B504460D4602D12B
:103CB0000D21FFF7F8FFA3682268591CA160D554B5
:103CC000D4E901329A4204D32046BDE83840FFF7D8
:103CD000D1BF38BD2DE9F84F9846DDE90A431546B6
:103CE00082460F460A464FF00109AA420FD2C1454B
:103CF00038BFC14613F0010B01D16CB90024012675
:103D0000B8F1010F1BD908F1FF386E43F8E709F14C
:103D10000109B2FBF5F2E8E79B070ED5B8F1000FF9
:103D20000CBF30262026A145E9D2013C3146504641
:103D3000FFF7B9FF002CF6D1E0E72026F3E7B7FB49
:103D4000F6F39D42E1D9DFF83C80B7FBF6F350462D
:103D500018F8031006FB1377FFF7A5FF3346AB42B5
:103D6000B6FBF5F6F1D2BBF1000F02D00CB1A145C4
:103D700001D3BDE8F88F20215046013CFFF793FFA7
:103D8000F4E700BF1C7501002DE9F74F0546174603
:103D90008846002900F03E8118F8011B49B92B7BA9
:103DA000002B00F03781284603B0BDE8F04FFFF745
:103DB00061BF252940F0B780002698F800302D2BF0
:103DC000424608F1010823D0302B24D02B2B25D0DC
:103DD00000242A2B02F1010123D13B681A1D1B6824
:103DE0003A601C440A4613782E2B26D101324FF03C
:103DF000000A104610F8011BA1F1300CBCF1090FAC
:103E00001DD80A2303FB0A13A3F1300A0246F0E788
:103E100046F00106D1E746F00206CEE746F004067A
:103E2000CBE711F8013CA3F130000928DBD80A22C6
:103E300002FB0434303C0A46CBE74FF0000A12F88C
:103E4000011B01F0FB0068289046F8D0782909D8BA
:103E50006F290CD8632962D022D8252963D058292C
:103E600000F0888098F80030002B95D197E77039E2
:103E70000829F7D801A353F821F000BFEF3F010054
:103E8000653E0100653E0100853F0100653E010081
:103E9000633F0100653E0100653E0100753F010082
:103EA000642901D06929DDD13A68D2F80090111D4A
:103EB00089EAE9723960A2EBE9724FF0010B092A35
:103EC00035DCD34538BFD3462CB1B9F1000F01DB47
:103ED000720700D5013CB30702D5BAF1000F03D039
:103EE000F00701D44CBB0024B9F1000F2DDAC9F161
:103EF00000092D212846FFF7D6FE06F00302022A0C
:103F000004D1BAF1000F01D11CBB0024CDE9004659
:103F100053460A2249462846FFF7DCFEA2E73B68E3
:103F20001A1D19783A602846FFF7BDFE9AE70A2362
:103F30000BF1010BB2FBF3F2C1E7A345D4D2202170
:103F40002846013CFFF7AFFECCE77107D5D52B2102
:103F5000D0E7A345DAD230212846013CFFF7A3FE83
:103F6000D2E73968CDE900460A1D3A6053460A2275
:103F70000968D0E739680A1D3A60CDE90046534622
:103F80001022F5E73B681A1D3A6016F00106D3F8D7
:103F9000009024D1B9F1000F03D0484602F03CFB59
:103FA0000646B4421DD809F1FF3919F8011F00294E
:103FB0003FF458AF2846FFF776FEF6E7284601366D
:103FC000FFF771FE19F806100029F7D1A642BFF4D9
:103FD00049AF20212846013CFFF765FEF6E70026A1
:103FE000F0E720212846013CFFF75DFED9E73B685A
:103FF0001A1D3A60302128461C68FFF754FE7821CC
:104000002846FFF750FE00220823CDE90032214662
:10401000102280E703B0BDE8F08F00BF2DE9F84F14
:10402000B0F806A04579D2F800B09DF828900AFBB8
:1040300005F5043D88460BEB0301A94203F1040496
:1040400088BFA5EB030BB4FBFAF607460AFB164440
:10405000C2F800B04EB9AAEB04055D4528BF5D4625
:10406000BBF1000F04D1BDE8F88F3F68013EF1E7D6
:10407000043408EB06003C442A46B9F1000F0DD089
:104080002146ABEB050B02F049FADA452E443F68B6
:1040900055464FF0000428BF5D46E1E70146204643
:1040A000EFE7FFF792BDF8B546790146721E054667
:1040B000002393422D6803D30024A64202D8F8BD02
:1040C0000133F6E70F682846FFF7BAFD0134394699
:1040D000F3E72DE9F843068ACD1C0746FFF78CFD70
:1040E000043E35440446B5FBF6F5F0B14FF4807359
:1040F000EDB28380C680013D076081464FF0000825
:10410000A84512D23846FFF777FD064648B16379D5
:104110000133637108F10108C9F8000007608146A6
:10412000EEE72046FFF7BFFF34462046BDE8F883A0
:1041300001210430FFF72BBD10B5012104460430E6
:10414000FFF731FDC0B220B92046BDE81040FFF7AF
:10415000AABF10BD1FB503920022009203AAFFF769
:104160005DFF05B05DF804FB1FB5039201220092CC
:1041700003AAFFF753FF05B05DF804FB41DF70476A
:104180000D4B10B500241C700C4B1C60BFF35F8FEF
:104190000B490C4800F05DF80B4A136943F010031B
:1041A00013614FF0A0434FF08072C3F80C25032237
:1041B000C3F86027204610BDFC1200200013002029
:1041C00038750100F412002000ED00E013B5002462
:1041D0000DF107008DF80740FFF70EFAF1EE103AE7
:1041E00023F09F03E1EE103ABFF35F8F134B4022A1
:1041F000C3F884219DF80700FFF722FA8DF80740E5
:104200000DF107004FF0A044FFF7F6F94FF080736F
:10421000C4F8083501F0A6FF58B1FFF7AFFF4FF023
:104220008073C4F80C359DF80700FFF709FA02B057
:1042300010BD20BF40BF20BFF1E700BF00E100E09C
:10424000836800225A60C3E904229A60DA601A6027
:1042500070470B684A684360934208BF00230160BF
:1042600008BF43607047436843B102689168526871
:104270000B449342436004BF00234360704770B512
:10428000446806460D46206818B1B3682946984729
:1042900018B923682B60256070BD2468F3E7436874
:1042A000186808B102681A60704743681868704758
:1042B0004368186800B97047884203D102681A60E1
:1042C0000120704703460068F4E7000010B50D496F
:1042D000A1F59472914201D800200FE08C1AE30FEF
:1042E00003EBE4035B1002EBC30452F83330834268
:1042F00005D802D204F10802ECE7606810BD21463F
:10430000E8E700BF447A010008B5FFF7DFFF024B82
:10431000002808BF184608BD077901001FB50378BB
:104320008DF800304368019383688DF80830C368C6
:10433000054A0393054B684653F8213052F8211083
:10434000984705B05DF804FB041300200813002013
:104350001FB503788DF800304368019383688DF8AA
:104360000830C368054A0393054B684653F821306B
:1043700052F82110984705B05DF804FB04130020A3
:1043800008130020F0B5194B90F800C091F81DE01B
:1043900043F82C20164B16460A6943F82C20154B7F
:1043A00003F80CE00C4607460FCC89B06D460FC5EC
:1043B00094E80F0085E80F00CDF810C0BEF1000FA3
:1043C00009D0002E0C4A694608BF3246381D00F05D
:1043D00021FD09B0F0BD002E084A694608BF3246EB
:1043E00007F10C0000F0F8FAF3E700BF0813002013
:1043F000041300200C1300201D4301005143010051
:1044000000F1804000F5C040002382B003600368E3
:104410000193019B02B07047800000F1A040D0F8EA
:10442000002722F44032C0F80027D0F8003743EAD2
:104430000141C0F800177047054B4FF0FF320728C5
:1044400043F8202084BFC01880F84820704700BF80
:104450001013002010B5184991F8583053BB4FF095
:10446000FF3222FA03F0C00748BFC81803F1010366
:1044700048BF80F83020202BF3D10024E0B2013473
:10448000FFF7DAFF0C2CF9D10C4B0022C0204A6553
:1044900083F80603402018604FF4BE70FFF7B0FFAA
:1044A000074B4FF00040C3F80403012381F8583054
:1044B000104610BD0820FCE71013002000E100E0CA
:1044C00000600040034B93F85800003818BF0120EB
:1044D000704700BF10130020F0B5394E331893F920
:1044E0003030002B69DA8D78C5F34005002D0BBF05
:1044F000082300230C240824A34201D10420F0BD8A
:1045000056F82370013743D137185CB246F82320A0
:1045100087F8304015B9F21882F848008A785507B4
:1045200016D4D70736D5820002F1A042D2F8005740
:1045300025F00205C2F80057224FC50800F0070C0D
:10454000012202FA0CF217F805C042EA0C027A5571
:104550008A780D7812F0020225D09B0003F1804387
:1045600003F5C0430002D3F8102522F4473222F4A9
:104570004072C3F810252D04D3F8102500F4F8502C
:1045800005F4403528431043C3F810050020B6E772
:104590000133B1E74D7800F5E0724FF0A047AD0070
:1045A00047F82250C8E7083C46FA84F494F85000D3
:1045B00040EA851584F85050E8E708209FE700BFDF
:1045C000101300206413002038B5204C251895F9ED
:1045D0003020072A18DD083A44FA82F494F8503063
:1045E0009B09032B0BD14FF0A043D3F81015C1400A
:1045F00001F001010231BDE83840FFF70DBF012B8A
:104600000CBF02210321F6E7D3B2072B1DD893007C
:1046100003F1804303F5C043D3F8100540F00100D7
:10462000C3F8100502F1400040B2800080B2FFF7ED
:10463000E7FE51B195F9303054F823302BB1012306
:1046400003FA02F2024BC3F8042338BD1013002012
:10465000006000404FF0A043D3F8103523FA00F07B
:1046600000F00100704700002DE9F74F00244E4D87
:1046700001944FF48072012102F1804303F5C0439D
:1046800090B21B68012B06D1D5F804330B4202D03F
:10469000FFF7B6FE0C430432B2F5907F4FEA4101BA
:1046A000EAD1414BD3F87C31012B0CD14FF4BE70D1
:1046B000FFF7A6FE4FF0A04344F00044D3F82025B6
:1046C0000192C3F82025E3B2D3B1384F002501266B
:1046D000344210D0AB0003F1804303F5C043D3F85C
:1046E0001005D3F8101557F8253023B1C1F3014157
:1046F000C0F3042098470135082D4FEA4606E7D15C
:10470000002C48DA294D4FF0A048294E4FF00009FF
:10471000012716F9013B5A1C31D0C3F3C2020832FB
:104720006A44DCB212F8042C03F03F0A03F00703DA
:1047300007FA03F31A4222D00AF5E073504658F8FC
:104740002330C3F3014BBBF1020F0CBF0321022145
:10475000FFF762FE07FA0AF3C8F8203505EB0A03F3
:1047600093F9303055F823304BB1A109032904D017
:10477000BBF1020F12D1012901D15046984709F12E
:104780000109B9F1040FC4D1D8F820350193C8F854
:104790002035002BB9D103B0BDE8F08FBBF1030F7A
:1047A000EDD10229E8E700BF0060004010130020AF
:1047B00060130020014B1B68184700BF6C130020DA
:1047C0000E4B984237B50C4602D0002003B030BDE6
:1047D00000230DF107008DF80730FEF70DFF084BA1
:1047E0001D7915B901221C601A719DF80700FEF7AA
:1047F00027FF002DE9D01120E8E700BF002000408E
:104800006C130020034B984201BF034B00221A6037
:104810001A717047002000406C13002000234350A1
:1048200082B043580193019B02B070470A4610B50D
:104830004FF48E71FFF7F2FF136A9168C95C136A37
:1048400001331362C0F81C1510BD8B690A4610B500
:104850004FF4847123B9FFF7E1FFD0F8183510BD8C
:10486000FFF7DCFF536AD168D0F81805C854536AC3
:1048700001335362F3E700001FB501238DF80030C8
:10488000044BCDE90110D3E900126846904705B00A
:104890005DF804FB7413002030B54D4DD5F804339A
:1048A0009A0585B051D5D5F82431002B4DD04FF461
:1048B00092712846FFF7B2FF4FF40173C5F8083331
:1048C000444B93F829200AB901226A604049022228
:1048D0008DF80020D1F88024C1F8802403929A69D1
:1048E0000292DA6801920022C3E906226846D3E9FF
:1048F000001290473648D0F81C315BB1354A5169F7
:10490000136A99424DD992F82830002B49D11146AB
:10491000FFF78CFF2E48D0F84431002B56D04FF4CF
:10492000A271FFF77BFF2B4B93F829200AB10122DC
:1049300002609A69002A49D0586AD96800229A61AF
:1049400005B0BDE83040FFF797BFD5F804335B07EB
:10495000D0D5D5F80831002BCCD01E4C1C482146B0
:10496000FFF773FF636AA2699A42C3D1E369E16802
:104970004BB1A3612369E3600023606AE361636272
:10498000FFF77AFFB6E794F829300BB901236B6083
:104990000F4B4FF40172C3F808230023606AA36130
:1049A000EEE70B484FF48E71FFF738FF5369002B89
:1049B000B0D051690291002391688DF800300191C7
:1049C00053616846D2E900139847A3E705B030BDAC
:1049D00000200040741300202DE9F843534D90F857
:1049E00004802C2303FB0853064693F82A300C4618
:1049F0009146002B40F096804D490068FFF7E0FE9D
:104A00000746002840F0908022683068511C0BD087
:104A10004FF0A04101239340C1F8083502F5E0733F
:104A20004FF0030C41F823C061684B1C1FBF01F518
:104A3000E0734FF0A04C4FF0000E4CF823E0A36958
:104A4000C0F8243594F814C0637DBCF1010F4CEA22
:104A50000303C0F86C35C0F81415C0F80C251DD13F
:104A6000A268531C1FBF02F5E0734FF0A0414FF046
:104A7000000C41F823C0E368591C0BD04FF0A04C48
:104A800001219940CCF8081503F5E0714FF0030EB1
:104A90004CF821E0C0F80835C0F810252C2202FBA4
:104AA00008F2AB18C3F804902369AB50B9F1000FBA
:104AB00020D04FF48E71247FFFF7B0FE4FF4A27127
:104AC0003068FFF7ABFE32681A4BC2F80433130BA1
:104AD00042F307326101002AC9B21EDB164884186E
:104AE00084F800130121520903F01F0301FA03F3B4
:104AF00040F8223033680422C3F800252C2303FB3E
:104B000008530022C3E9062283F829205A610122B2
:104B100083F82A203846BDE8F883084A03F00F03DB
:104B2000D154E7E70827F5E71127F3E774130020CE
:104B3000994801008000020000E100E014ED00E06F
:104B4000F8B503680579304C0022C3F800252C2203
:104B500002FB05425268A2B12C4AC3F808231A0B83
:104B600043F30733002B0CDB02F01F015B0901222A
:104B70008A402033264941F82320BFF34F8FBFF3EB
:104B80006F8F0068D0F80C65D0F81415D0F8083590
:104B9000D0F810254FF0FF37BE42C0F8147518BF8B
:104BA00006F5E076C0F80C75C0F80875C0F8107509
:104BB0001EBF4FF0A0474FF0020C47F826C04E1C16
:104BC0001FBF4FF0A04601F5E071022746F82170A3
:104BD000511C1FBF4FF0A04102F5E072022641F8C0
:104BE00022605A1C1FBF03F5E0734FF0A042022160
:104BF00042F82310FFF706FE2C2303FB0544002395
:104C000084F82A306360F8BD741300208402020027
:104C100000E100E00279044B2C2101FB02335869CA
:104C2000003818BF01207047741300202DE9F84F99
:104C3000064690F8048089469246FFF7EBFF04464B
:104C400000283CD1204F2C2508FB057B4FF48E71AA
:104C5000CBF814A0CBF80890CBF820008BF82800F4
:104C60003068FFF7DBFD3068012383605946FFF7AA
:104C7000DDFDDBF804305D461BBB3068DBF814401B
:104C80002B6A9C4211D83368D3F81C21002AFBD030
:104C90000122DA6000202C2303FB087700237B61CC
:104CA000BDE8F88F95F828303BB9D0F81C31002BBF
:104CB000F8D05946FFF7BAFDE2E70F20EBE71120E5
:104CC000EEE72046ECE700BF7413002000234350BA
:104CD00082B043580193019B02B070471FB5012376
:104CE0008DF80030044BCDE90110D3E9001268467D
:104CF000904705B05DF804FBA01300207FB5434A40
:104D0000D2F82461002E60D010464FF49271FFF764
:104D1000DDFF02238DF80030D2F88034C2F88034F1
:104D20000393D2F83C350293394BDA6801920022A2
:104D3000C3E906226846D3E9001290473348D0F809
:104D4000443173B14FF4A271FFF7C0FF304B9A6941
:104D50003AB10022C3E90622D968D0F83C05FFF732
:104D6000BDFF2A48D0F82031ABB14FF49071FFF766
:104D7000ADFF0123C360264B5A6962B1D0F84C15D0
:104D80000291002299688DF8002001915A616846CD
:104D9000D3E9001290471D48D0F858319BB14FF429
:104DA000AC71FFF793FF1A4B5A6962B1D0F84C15FA
:104DB0000291002299688DF8002001915A6168469D
:104DC000D3E90012904704B070BDD2F81031002B27
:104DD000B4D04FF488711046FFF778FF0C4BD2F82F
:104DE0003C0599698842A9D1DC69D96864B1D2F8D7
:104DF000005225F02005C2F800521A699C61DA6061
:104E0000DE61FFF76BFF99E79C61FAE70020004045
:104E1000A01300202DE9F8435A4E90F80480242373
:104E200003FB0863044693F820300D469146002B9F
:104E300040F0A38054490068FFF7C2FC07460028F1
:104E400040F09D802A682068511C0BD04FF0A04193
:104E500001239340C1F8083502F5E0734FF0030CCD
:104E600041F823C069684B1C1FBF01F5E0734FF088
:104E7000A04C4FF0000E4CF823E0AB69C0F824358D
:104E800095F814C06B7DBCF1010F4CEA0303C0F828
:104E90006C35C0F80C25C0F814151DD1AA68531C38
:104EA0001FBF02F5E0734FF0A0414FF0000C41F836
:104EB00023C0EB68591C0BD04FF0A04C0121994046
:104EC000CCF8081503F5E0714FF0030E4CF821E023
:104ED000C0F80835C0F81025242202FB08F2B318E8
:104EE000C3F804902B69B350B9F1000F2FD04FF4E1
:104EF00088712A7FFFF7EAFE20684FF49071FFF770
:104F0000E5FE20684FF49271FFF7E0FE20684FF451
:104F1000A271FFF7DBFE4FF4AC712068FFF7D6FEFD
:104F200023681A49C3F80413190B43F307335201DA
:104F3000002BD2B21CDB1648C51885F800230122CD
:104F40005B0901F01F0102FA01F140F82310236808
:104F50000822C3F80025242303FB08660023C6E9C2
:104F600006337361012386F820303846BDE8F883A4
:104F7000084B01F00F015A54E9E70827F5E711271C
:104F8000F3E700BFA0130020FD4C01001003420016
:104F900000E100E014ED00E0F8B5444C057924236D
:104FA00003FB054302465B680068ABB1404BC0F8A9
:104FB000083340F30733002B4FEA10310CDB01F0CC
:104FC0001F065B090121B14020333A4E46F82310F9
:104FD000BFF34F8FBFF36F8FD0F8003223F0200361
:104FE000C0F80032242303FB05439B692BB14FF427
:104FF000A271FFF76BFE012343604FF4AC71FFF722
:1050000065FE0123C360242303FB0543D0F8581138
:105010000029FBD0996919B1D0F844110029F5D0C5
:105020000023C0F800351368D3F80C75D3F8146565
:10503000D3F80825D3F810154FF0FF3C6745C3F8A7
:105040000CC518BF07F5E077C3F814C5C3F808C549
:10505000C3F810C51EBF4FF0A0434FF0020C43F839
:1050600027C0771C1FBF4FF0A04306F5E07602274C
:1050700043F826704E1C1FBF01F5E0714FF0A043AE
:10508000022643F82160531C1FBF4FF0A04302F5D6
:10509000E072022143F82210FFF7B4FB242303FB44
:1050A0000544002384F820306360F8BDA01300207D
:1050B0001003420000E100E00279044B242101FBCF
:1050C00002335869003818BF01207047A013002030
:1050D00001F06043B3F1005F2DE9F04706468846D2
:1050E00092463BD190F80490FFF7E6FF0446002873
:1050F00036D11D4F3068242505FB09754FF490719A
:10510000C5F814A0C5F80880FFF7E0FD4FF4AC71B6
:105110003068FFF7DBFD33686A69A968C3F8441596
:10512000C3F8482501229A606A68DAB9D3F82021C9
:10513000D3F858011AB90028F8D00F2007E000284A
:10514000FBD10122DA60D3F85821002AFBD02423B6
:1051500003FB097700237B61BDE8F0871020FBE7A4
:105160001120F9E72046F7E7A013002000F1804066
:1051700000F5E040002382B0036003680193019BC7
:1051800002B07047F0B5524B524CD3F8043185B0A1
:10519000002B3DD094F82E204FF48270FFF7E6FFED
:1051A0002AB394F82F3013BB494AD2F80031002BB0
:1051B00032D04FF48070FFF7D9FF638B94F82D0045
:1051C000834250D921891B1A9BB289B26383CB1ABF
:1051D000616801EB4303C2F82C36C2F830064FF485
:1051E0008270FFF7C3FF3A4B01225A6014E06368F4
:1051F00002932389ADF80C30E36800218DF8041088
:1052000033BB2374236801A89847002384F82F3008
:1052100094F82E30002BC7D12D4BD3F810315BB151
:105220004FF48870FFF7A2FF0023237402238DF848
:10523000043001A823689847254BD3F81431EBB10B
:105240004FF48A70FFF792FF0023237405B0F0BD7E
:10525000208B608363602081E160002AD2D11C4BE7
:1052600001221A60CEE7BAD1E368012184F82F1039
:1052700013B100216183AEE76383B0E766694FF045
:1052800000470125002EE1D0B6FA86F227FA02F394
:105290004632920026EA030602F1804303F5E0431A
:1052A0001B68002BEED01046A2F58C72FFF75EFF54
:1052B000D30882F00402C2F380028DF808308DF822
:1052C000045023688DF8092001A89847DAE700BF49
:1052D00000700040C41300200023435082B04358A4
:1052E0000193019B02B070470B7B032B2AD8DFE8A8
:1052F00003F022261A028B685A0304D5D0F84C35E5
:105300000A699A4207D18B685B031BD4D0F84C35ED
:105310004A699A4216D000230622C0F80035C0F828
:10532000002518467047D0F84C350A699A42F2D1E8
:10533000D0F83C35ECE7D0F84C350A69E9E7D0F80D
:105340003C35FAE701207047F0B5D0F8243187B03A
:1053500004460D46EBB14FF49271FFF7BDFFD0F854
:105360000431B3B9AB68C0F808330223AB60AB6853
:10537000C0F80433D0F860311BB1D0F800329B057F
:1053800002D4012323626361012385F82E3007B024
:10539000F0BDD4F80431002B41D04FF48271204687
:1053A000FFF79AFF2B6A5F0609D495F82E3033B9C0
:1053B0002946FFF799FF80F0010085F82E002B6A3F
:1053C0005E073ED405F10C070FCF01AE0FC63B6858
:1053D00033604FF4B0712046FFF77EFF4FF4AE719B
:1053E000FFF77AFF95F8303013B195F82E3043B3BC
:1053F0000023C4F80032AB602F4BC4F8083344F3E9
:105400000733002B4FEA14321BDB02F01F015B094C
:1054100001228A406033294941F8232011E04FF4EA
:10542000A4712046FFF758FF2B7B23BB05F10C0727
:105430000FCF01AE0FC63B68336095F83030002BBC
:10544000D7D0D4F8C434C4F8C434980725D5012380
:105450008DF8003095F830300BB985F82F302B6A75
:105460005B0703D595F82E30002B90D0D5E900319D
:10547000684698478BE74FF40073C4F8003240F257
:105480000223AB6003F1CE73C4F80833AB68C4F8F1
:1054900004330123A360236279E7590701D502236E
:1054A000D6E7DA0701D50323D2E795F82E30002B93
:1054B000CED00423CCE700BF02029C0100E100E053
:1054C00001490248FFF740BFF413002000300040BC
:1054D00002494FF04020FFF737BF00BF28140020DB
:1054E000C2DF7047CDDF7047D1DF7047D3DF704731
:1054F00010B504468378827A41780078FFF7F0FF90
:10550000A8B923796279E1882078FFF7EFFF70B9B5
:10551000E1782078FFF7E6FF48B9A378DB0706D4E7
:10552000218921B12078BDE81040FFF7DDBF10BD13
:105530000220FDF74FBC00002DE9F04780460D46E4
:10554000FDF75AFC0328044610D8012D10D0022D77
:1055500030D05DB91A48FDF745FF1A4B04EB440201
:1055600013449D78184B1B5DAB4219D0BDE8F08702
:10557000144E00EB4003F218F55C5378470053B12A
:10558000DFF84C900E484A464FF48041FDF7FCFE90
:1055900008B989F8008027443E440B4BB2781A556D
:1055A000002DE3D0094B1B68002BDFD02846BDE857
:1055B000F047184700EB4004024804446578EFE7E1
:1055C000E80B00205E1400207914002074140020E1
:1055D0005C14002000780221FFF7AEBF08B5094B2C
:1055E0001B7853B10020FDF7CBFB0120FDF7C8FB72
:1055F000BDE808400320FDF7C3BBBDE80840FDF748
:10560000CBBB00BF5D140020F8B57A4C237805466B
:105610001BB100232370FFF7E1FF172D00F28780F5
:10562000DFE805F00C1717425364757F878C878C71
:10563000949999999999C3C8D0D8E3E3FFF7CEFF1D
:105640006D48FDF7CFFE6D4B002204461A702046D0
:10565000F8BD0020FDF77AFBF0B10020FDF790FBCC
:10566000022D0CBF4FF4E1644FF47A64634B1D705C
:1056700000254FF400464FF47A7029464FF4FA6241
:105680000023E4FB060100F0E1FD2A460146BDE8E7
:10569000F8405948FDF778BEFDF766FB022D0CBFB8
:1056A000C8244FF4C874E1E70020FDF74FFB40B178
:1056B0000020FDF765FB4FF44874504B03221A702D
:1056C000D6E7FDF751FBC824F7E70020FDF73EFBC6
:1056D00038B10020FDF754FB4FF47A64474B0422A5
:1056E000EDE7FDF741FB4FF4C874F7E70020FDF745
:1056F0002DFB48B10020FDF743FB404B05221A70FB
:1057000040F6CD410022C2E7FDF72EFBF5E7002071
:10571000FDF760FB394B06221A70002240F26661E9
:10572000B5E70020FDF720FB344B07221A70002458
:105730008DE701202070FDF74DFBEEE70120207082
:10574000FDF748FB00224FF40051A0E7FDF733FBC3
:105750002A4B0C22EAE72A482A4EFDF743FED5F1F0
:10576000110504461CD0D8B9012D13D0C8204543DB
:1057700021464FF400474FF47A704FF4FA62002349
:10578000C5FB070100F062FD224601461C48FDF7FB
:10579000FBFD04460220FDF7E7FA0123337056E7CC
:1057A0000220FDF7EDFA0023F8E7FFF717FF134B90
:1057B0001222BBE7FFF712FF0020FDF7D5FA0F4BCF
:1057C0001322B3E7FFF70AFF0120FDF7CDFA0B4BD9
:1057D0001422ABE7FFF702FF0020FDF7C5FA012016
:1057E000FDF7C2FA054B1522A0E7FDF7E4FA034BDB
:1057F0001D709CE770140020080C00207814002015
:10580000C80B00205D140020044B1B68DB0703D588
:10581000034B1878FFF7F8BE704700BF6C140020E8
:105820007814002038B51C4B18601C4B10F0020493
:10583000054619601AD01A4B1A480E221A700F2208
:10584000DA7010229A7111225A72042140F2333216
:10585000FDF708FC044648B9FDF75CFC044628B98E
:105860000146114A1148FDF77DFD0446EB0711D5AD
:105870000120FDF7D3FA6CB921460D4A0D48FDF71A
:1058800071FD044630B9BDE838400B4A0B48012190
:10589000FDF768BD204638BD6C140020741400204C
:1058A0005E140020687A0100D55501008C7A010051
:1058B00009580100907A010031550100887A0100F1
:1058C000C4DF7047C7DF7047CADF7047CFDF70475C
:1058D0000B4A13684FF0A04101331360D1F804253F
:1058E000D04300F4806002F48062DB07C1F8080551
:1058F000C1F80C2502D4034800F009BA704700BF74
:1059000088140020947A010007B508218DF8000062
:105910008DF801008DF802008DF803008DF8040069
:105920008DF805008DF806008DF807006A46002006
:10593000FFF7C8FF08B1FDF703FC03B05DF804FBF7
:10594000F8B590F82C100446002950D190F82D306D
:10595000012B42D0802B4AD1254800F0D8F963783A
:105960004E2B44D12348244F00F0B4F9E51C04F138
:105970000B0615F8011B384600F0ACF9B542F8D11A
:105980000A2000F097FD1D4A1368042B1EDC01332A
:105990001B48136000F0BBF90120FFF7B5FF0021A1
:1059A0000846FFF791FFE578022D05D1154800F074
:1059B000AEF92846FFF7A8FFE178C1B9A37A802B9A
:1059C00015D1BDE8F8400846FFF77EBF0D4800F04E
:1059D0009EF90220FFF798FFE5E70846FFF770FF02
:1059E000094A106018B1BDE8F840FDF7A9BBF8BD41
:1059F0009B7A0100AE7A0100BA7A0100841400207B
:105A0000BD7A0100D17A0100801400201FB53B4807
:105A100000F07DF94FF0A0430322C3F828274FF48C
:105A20008062C3F808254FF480410020FCF76EFE29
:105A300008B1FDF785FBFCF7A7FD314800F067F9D9
:105A400000F050FB08B1FDF77BFB00F0D5FB08B17F
:105A5000FDF776FB2B4A1068516801AB03C39068D1
:105A6000186001A8FFF744FD08B1FDF769FB0021AC
:105A70000846FFF725FF08B1FDF762FBFDF740FC84
:105A800008B1FDF75DFB00210120FFF7CBFE08B157
:105A9000FDF756FBFEF774FB08B1FDF751FB002242
:105AA00004211046FFF712FFFDF72AFC164A17489B
:105AB000174C0121FDF756FC206008B1FDF740FBB3
:105AC0004FF0A0434FF48062C3F80C25FEF758FB5B
:105AD000206008B1FDF734FB0E4800F018F90E48BD
:105AE00000224FF48041FDF74FFC206008B1FDF724
:105AF00027FBFEF76BFB30BFFBE700BFE87A010036
:105B0000EF7A0100FC7A0100D1580100087B010006
:105B100080140020F57A0100280C00200369C26877
:105B200093429CBF80681B18013B981A70472DE96F
:105B3000F843D0E902940546A9EB04084068904573
:105B400020440F46144404D900F0E8FCEC60BDE8A2
:105B5000F8834246A4EB090400F0E0FC68682246A2
:105B600007EB0801F0E72DE9F843C56806468946CA
:105B700017464FF000083469B3687068A54228BF23
:105B8000E418013C621B5C1BBC4228BF3C469442AB
:105B900028BF144649462844224600F0BFFCB3689B
:105BA0002544AB4208BF00253F1BA044A144F5603B
:105BB000E1D14046BDE8F88310B5114C114AA2610D
:105BC0000223C4E90433104BE361A2644FF4007371
:105BD0000E4A0F492362E26400231022E01DA362F3
:105BE0006362E362A3656365E365226500F0F2FC2E
:105BF0000849204600F0EEFC2023A37110BD00BF31
:105C00008C1400200C7B01001415002004150020CA
:105C1000157B0100197B010070B5164B182400FBA1
:105C200004451D4404FB00331646DC6A012C0ED0EB
:105C3000022C18D0E4B92846FFF770FF864204D83A
:105C400032462846FFF773FF3446204670BD28468B
:105C5000FFF764FF8642344628BF044622462846A2
:105C6000FFF765FFF1E72846BDE87040FFF77BBF0F
:105C70000024EAE78C14002073B50E4B1B78044611
:105C80000D4616460BB9FFF797FF00230DF10700ED
:105C90008DF80730FDF7B0FC324629462046FFF765
:105CA000BBFF04469DF80700FDF7CAFC204602B082
:105CB00070BD00BF8C14002013B504460846019146
:105CC00000F0AAFC01990246204602B0BDE810404F
:105CD000FFF7D2BF0FB410B5A2B024AB802153F8A8
:105CE000042B019302A800F009FC802804460ADD79
:105CF000802202A90020FFF7BFFF204622B0BDE8A6
:105D0000104004B070470028F7DD0246F1E7014675
:105D10000020FFF7D1BF07B50122019001A90020A3
:105D2000FFF7AAFF019803B05DF804FBBFF34F8FA4
:105D30000549064BCA6802F4E0621343CB60BFF327
:105D40004F8F00BFFDE700BF00ED00E00400FA0543
:105D50004FF08053D3F83001421C04BF4FF0704322
:105D600093F8E00F831F5842584170474FF070433B
:105D700093F8E02F062A09D1D3F8E83FC3F30313C1
:105D8000033B042B02D8024AD05C704700207047C6
:105D90002F7B0100024AD2F80034002BFBD0704761
:105DA00000E0014010B5FFF7D3FF40B14FF0805342
:105DB0009A4AD3F82433C3F30423C2F84035FFF7DB
:105DC000D5FF10B1964B974A5A67FFF7C1FF48B10C
:105DD0004FF080534FF08042D3F84432C3F3423344
:105DE000C2F83C35FFF7C2FF30B18F4AD2F8FC3021
:105DF00023F08073C2F8FC30FFF7AAFF40B14FF0E8
:105E000080430022C3F80C21C3F81021C3F83825C1
:105E1000FFF7ACFF20B14FF080430322C3F8A02569
:105E2000FFF7A4FF60B1814B0522C3F810260122C1
:105E3000C3F888260022C3F818263F22C3F8142688
:105E40004FF08053D3F83021511C09BF4FF07043FD
:105E5000D3F8343193F8E02FD3F8E83F08BFC3F309
:105E60000313062A4DD1033B042B03D8704AD35C9D
:105E7000002B46D04FF080526E4BD2F80414C3F87A
:105E80002015D2F80814C3F82415D2F80C14C3F85E
:105E90002815D2F81014C3F82C15D2F81414C3F82E
:105EA0003015D2F81814C3F83415D2F81C14C3F8FE
:105EB0004015D2F82014C3F84415D2F82414C3F8BE
:105EC0004815D2F82814C3F84C15D2F82C14C3F88E
:105ED0005015D2F83014C3F85415D2F83414C3F85E
:105EE0006015D2F83814C3F86415D2F83C14C3F81E
:105EF0006815D2F84014C3F86C15D2F84424C3F8DE
:105F00007025FFF725FF48B14FF080534FF08042D6
:105F1000D3F8583203F04F03C2F8E43EFFF718FFFE
:105F200048B14FF08043D3F80024D20744BF6FF04C
:105F30000102C3F800244FF08053D3F83021062A21
:105F40000ED1D3F83431033B042B02D83A4AD35C48
:105F500033B13A4AD2F83C3743F48063C2F83C3755
:105F6000314AD2F8883043F47003C2F88830BFF366
:105F70004F8FBFF36F8F4FF08053D3F83021062A35
:105F80000FD1D3F83431033B042B02D82C4AD35C15
:105F90003BB14FF01023D3F808224FF08043C3F8F1
:105FA00058254FF01021D1F80C32DB0714D52548C5
:105FB0000123C0F80435FFF7EDFED1F80C3223F0D1
:105FC0000103C1F80C32FFF7E5FE0023C0F80435E9
:105FD000FFF7E0FEFFF7AAFED1F80032002B03DB4B
:105FE000D1F80432002B14DA164901234FF01020A7
:105FF000C1F804351524FFF7CDFEC0F80042FFF7C5
:10600000C9FEC0F80442FFF7C5FE0023C1F80435FD
:10601000DEE70D4B0D4A1A6010BD00BF0030014095
:1060200000C007400DF0ADBA00ED00E000500040A8
:10603000207B010000C00040257B010000100040D3
:106040002A7B010000E00140480C00200090D003B2
:1060500010DF704713B5044609496846FEF7F9F8A2
:10606000019808B902B010BDD0E900212046904740
:1060700018B16846FEF7F7F8F2E71120F2E700BF23
:10608000687B010013B5044607496846FEF7E1F84E
:10609000019B0BB902B010BD2046D3E90021904707
:1060A0006846FEF7E0F8F3E7807B01000B4991F8C2
:1060B00016335A09EC231341DB0706D5084B9A68BF
:1060C0003AB94FF480030B60704742F20200FDF7CB
:1060D00037B81A6842F480021A60704700E100E0A5
:1060E000DC120020F7B5194F3C786CBB184E012527
:1060F00020463570FFF7AEFF112822D02046FFF76B
:10610000C1FF144B8DF80340186801900DF1030096
:10611000FDF772FA104A114901A8FFF799FF0446EA
:10612000B0FA80F0400938709DF80300FDF788FA56
:106130003CB90B4B34701C70FFF7B8FF2846FFF7D3
:10614000A1FF204603B0F0BD0824FAE71517002090
:1061500014170020647B0100347B01005D310100D5
:1061600016170020014B1878704700BF1517002044
:1061700007B508496846FEF76CF8019B13B903B0F0
:106180005DF804FBD3E9002090476846FEF76BF802
:10619000F3E700BF747B0100FFF7EABFC1DF704780
:1061A000FADF704710B5124B1B788EB0EBB1114C73
:1061B00002AA0DF135010DA8FFF7F0FF70B92146D5
:1061C0006846FEF746F8019B002BF1D002A8D3E900
:1061D000002190476846FEF746F8F4E7052804D00A
:1061E0000EB0BDE81040FCF7ABBF0EB010BD00BF55
:1061F00098170020C47B01001FB50F4A07CA01ABE6
:1062000083E807001846FFF7CBFF044628B90B4B7D
:1062100001221A70204604B010BDFEF775F8084B35
:106220000849024608481B1ADB081B0443F001001A
:10623000FCF70EFCEEE700BFB87B010098170020CA
:10624000DC6C01008C7B0100846C010053EA020CC1
:1062500061D02DE9F04BB3FA83F51E0007BFB2FA07
:1062600082F502FA05F403FA05F41646C5F1200595
:106270001EBF22FA05F73C43203556EA044C4FEA8C
:10628000144418BF0134A3464FF00009C846904299
:1062900071EB030C39D3094207BFB0FA80F700FA5B
:1062A00007F6B1FA81F701FA07F6C7F120071EBF1A
:1062B00020FA07FC46EA0C062037B6FBFBFC7F1BE6
:1062C000103F07F01F04C4F120060CFA04F42CFA66
:1062D00006F644BF34460026202FA4BF26460024DD
:1062E00054EA060C08BF012418EB040849EB060920
:1062F000A4FB027CC01B06FB02CC04FB03CC71EBAD
:106300000C01904271EB030CC5D20B460246494684
:106310004046BDE8F08BB2FBF3F200007F2805D8C1
:10632000034A044B105C5B5C1840704700207047C8
:10633000DC7B01005C7C0100A0F16103192B98BF9C
:1063400020387047A0F14103192B98BF20307047C7
:106350007F299ABF017001206FF02E00704700BFA7
:106360005AB10A787F2A0AD800B102600021501A77
:10637000C3E9001118BF01207047104670476FF045
:106380002E007047A0F16103192B98BF2038704789
:10639000A0F14103192B98BF203070477F2805D802
:1063A000034A044B105C5B5C184070470020704748
:1063B000DC7B01005C7C010038B58568044608463A
:1063C00045B122686168531C8B4208BF00208A4295
:1063D0000AD2A854E26823682AB161688B4202D2CB
:1063E0002146904723680133236038BD70B54D1EA8
:1063F00022D413681446C6B20EE0D0542368E26873
:106400002AB16168994202D9214690472368013D2B
:1064100001336A1C23600FD0A26872B1616803F176
:10642000010C8C4514BF304600209942E5D8013D4F
:1064300063466A1C2360EFD170BD3046DFE700BFC2
:10644000C3062BD410F4007F70B514BF302620266D
:106450004D1E22D413681446F6B20EE0D0542368C1
:10646000E2682AB16168994202D9214690472368BF
:10647000013D01336A1C23600FD0A2687AB16168C4
:1064800003F1010C8C4514BF304600209942E5D839
:10649000013D63466A1C2360EFD170BD70473046F2
:1064A000DEE700BF024B5B689B6809211B68184749
:1064B0004C0C002000B583B0019000F0DBFB002104
:1064C0000198FFF728FC019000F0D6FB019803B07B
:1064D0005DF804FB027862B169B100EB010C034680
:1064E00001E0634503D013F8011F0029F9D1181A00
:1064F0007047104670470846704700BF30B5944655
:1065000085B00025CDE902050C461A46614668466D
:10651000019400F0B1F805B030BD00BF844640EAF8
:10652000010313F0030F18D18446202A0BD32DE961
:10653000F007B1E8F807A0E8F807A2F12002202A46
:10654000F7D2BDE8F007042A07D351F8043B40F81E
:10655000043BA2F10402042AF7D2002A05D011F864
:10656000013B00F8013B013AF9D16046704784468F
:10657000002A2DD010F0030F04D000F8011B013ABF
:1065800026D0F7E7C9B241EA012141EA0141202AB8
:1065900012D3A2F120022DE9F0030B460C460D4662
:1065A0000E460F4688468946A0E8FA03203AFBD2F9
:1065B000BDE8F00320320BD0042A05D340F8041BB9
:1065C000043A05D0042AF9D200F8011B013AFBD1A4
:1065D00060467047024610F0030F16D111F0030F0A
:1065E00013D12DE9F0004FF001374FF0803351F80F
:1065F000044BA4EB070525EA04051D4002D142F82F
:10660000044BF4E7A1F10401F0BC11F8013B02F8DE
:10661000013B002BF9D1704700F1010110F0030F8D
:1066200011D010F8012B002A23D010F0030F0AD04C
:1066300010F8012B002A1CD010F0030F03D010F823
:10664000012B002A15D02DE970004FF001324FF0D8
:10665000803350F8044BA4EB020525EA04051D40E5
:1066600000D1F6E7A0F1040070BC10F8012B002A5D
:10667000FBD1A0EB010070472DE9F04F00230C4641
:10668000036089B014F8011B03920746002900F04B
:10669000E582DFF8DC9507E03846FFF78DFE14F859
:1066A000011B002900F058812529F5D1224600263A
:1066B00012F8010B302800F29E801F280ED9A0F19D
:1066C0002003102B0AD8DFE803F0AC0909A8090958
:1066D00009A4090909A0099C09098D002A2840F08C
:1066E000FC80039B10781D680433002D0393BCBF0E
:1066F0006D4246F01006A21C2E2800F004810021F5
:10670000742800F092807A2800F08F806C2800F0C6
:1067100032814C2800F03581682800F0BE81144693
:10672000002800F08880A0F12503DAB2532A00F295
:106730002B81532B00F22881DFE813F0EB012601B7
:106740002601260126012601260126012601260111
:106750002601260126012601260126012601260101
:1067600026012601260126012601260126012601F1
:1067700026012601260126012601260126012601E1
:1067800026012601260126012601260126012601D1
:1067900026012601260126012601260126012601C1
:1067A0002601820026012601260126012601260156
:1067B0002601260126012601D601F6002601260122
:1067C00026012601F6002601260126012601500297
:1067D0004802130226012601ED012601CB01260104
:1067E0002601840046F400761446224612F8010B76
:1067F00030287FF662AF5E286FD146F4805614468B
:10680000F3E746F010061446EFE746F0200614467C
:10681000EBE746F400461446E7E746F080061446E8
:10682000E3E746F040061446DFE7144614F8010B90
:1068300000287FF478AF4FF0FF3009B0BDE8F08F4B
:1068400046F4005616F0800A06D043F2780A43F266
:106850005803782818BF9A4616F4807307BF06F4C9
:106860008042B04626F4007806F48042002A61D1C6
:10687000039A18F0040F02F104060396126800F060
:10688000A08092B2002B65D028F4007858382028D8
:1068900000F29D80DFE810F073019B009B009B00DD
:1068A0009B009B009B009B009B009B009B009B0010
:1068B000D4009B009B009B009B00D4009B009B008E
:1068C0009B009B009B00090173019B009B009B00A8
:1068D0009B00D4009B009B007301A0F13004E3B245
:1068E000092B4FF000053FF607AF12F8010B05EB3F
:1068F000850504EB4505A0F13004E3B2092BF4D97A
:106900002E287FF4FCAE10782A2840F07781039B74
:1069100050781968941C0433002903932246FFF62B
:10692000EFAE46F48076EBE646F4804806F48073DA
:106930004FF0000A039A18F0040F02F104060396C0
:10694000126830D012B2002A31DA52424FF02D0ACA
:10695000002B99D1012199E73868BB68002B3FF4DF
:106960006CAF7A6882427FF668AF00221A543868AA
:1069700009B0BDE8F08F144646F0010614F8010B8B
:10698000CEE646F001061446B54BD3F80080B8F1C8
:10699000000F3FF484AE009103A901912B463246CB
:1069A0003946C0477BE618F0080FCCD0D2B218F0B9
:1069B000200F40F03E8118F0400F18BF4FF0200A22
:1069C00060E718F0080F3FF45DAFD2B25AE74FF01E
:1069D000FF36002321EAE17BA5EB0B05BAF1FF0F9F
:1069E000A5EB030540F20481CAF307213846023DB6
:1069F000FFF7E2FC5FFA8AF13846FFF7DDFC40461C
:106A00003A462946FFF71CFD3A4659463020FFF723
:106A1000EDFC731C0AD001360DF1140A564416F829
:106A2000011D3846FFF7C8FCB245F8D118F0100F29
:106A30003FF435AE29463A462020FFF7D7FC2EE634
:106A40001046002A00F0068108F4004C624600233C
:106A50008C464FF02C0E114603F0030209B1032AB5
:106A600014D01E46A9FB0032D20802EB820306F1C5
:106A7000200BA0EB4303EB44303309280BF80C3C0C
:106A800006F1010340F2D2801046E5E703F120024F
:106A90006A445E1C02F80CECE4E71078682800F009
:106AA000D480541C46F004063AE61046002A00F052
:106AB000D1800DF1140C002302F007023032C0081F
:106AC0000CF8012B1E46024601330028F4D1C91AE6
:106AD00080E716F4807300F0AF8026F4007806F4A7
:106AE00080424FF0000AC1E6039B013D191D93F857
:106AF000008003913A4629463046FFF7A1FC414603
:106B00003846FFF759FCB3461BF0100F3FF4C7ADF2
:106B100090E72521C0E5039B524A181D0390D3F846
:106B200000A0BAF1000F08BF9246F205D04626F445
:106B3000007B504640F18580FFF7CCFC0646AD1B3C
:106B40003A4629465846FFF77BFC002EDCD018F861
:106B5000011B3846FFF730FCAAEB0803F342F6D1DD
:106B6000D2E7039B1A1D039216F0800F1A6846F4B1
:106B700080780CBF4FF0000A4FF0230A082110461E
:106B8000002A67D008F4005C634605AA8C460026FC
:106B9000A346194609E0344B000913F80E3002F8F9
:106BA000013B06F101030DD01E4600F00F0E002937
:106BB000F1D12E4C000914F80E3002F8013B06F119
:106BC0000103F1D161465C46C91A03E716F0800F54
:106BD0000CBF4FF0000A4FF0300A3DE6039B3A68C5
:106BE000191D03911B6831074CBF1A701A6056E5D6
:106BF000BAF1000F3FF403AF013DFBE6A0F1300412
:106C0000E3B2092B02F101024FF000013FF689AE19
:106C100012F8010B01EB810104EB4101A0F13004FA
:106C2000E3B2092BF4D946F4807669E56146C91AC6
:106C3000D0E64FF02B0A25E606F48042B0469A468D
:106C400014E6FFF7E9FC064679E7507846F00806B7
:106C5000941C65E513464FF0FF36BBE608467CE61C
:106C60009C170020307E0100207E0100107E010074
:0C6C7000CDCCCCCC704700BF704700BFFB
:086C7C00415901000000000075
:106C8400447A0100000000004B7A0100000000007B
:106C94005A7A010000000000607A01000000000040
:106CA4004F7A010000000000547A01000000000047
:106CB4006E6D010000000303486E01000000000037
:106CC400716E010000000000AA74010000000303BB
:106CD4005C7B010000000303A97B010000000303A7
:106CE4002C75010000000000447501000000000044
:086CF400A56101000000000091
:106CFC00406D0100000000004C6D0100940B002061
:106D0C00A40C00206C0D0020740D0020AC0C002095
:046D1C00180000005B
:106D2000FFFFFFFFFFFFFFFFFFFFFFFFFFFFFFFF73
:106D300000000000000000000000D6010601000075
:106D4000F124010055250100A12401007561727430
:106D50005F6C6F675F6261636B656E640042616365
:106D60006B656E647320666C757368656400617032
:106D700070000000941100207F0000001412002019
:106D80001B5B313B33316D0025734C6F677320649F
:106D9000726F70706564202825642925730D0A00C0
:106DA0001B5B306D002573003C25733E2025733A34
:106DB0002000202530327800202020007C00256330
:106DC000001B5B313B33306D001B5B313B33326D5D
:106DD000001B5B313B33336D001B5B313B33346D48
:106DE000001B5B313B33356D001B5B313B33366D34
:106DF000001B5B313B33376D007761726E696E67E4
:106E000000696E666F00646562756700A06D0100C1
:106E1000C16D0100806D0100C96D0100D16D0100DF
:106E2000D96D0100E16D0100E96D0100F16D010016
:106E3000000000005E6E0100F96D0100016E0100AE
:106E4000066E0100111213146170705F6275747424
:106E50006F6E0000A00B0020466174616C206572AB
:106E6000726F720053797374656D20726573657407
:106E7000006170705F74696D65720000010006004A
:106E80000000000054120020C93101005254432078
:106E9000696E7374616E636520616C72656164799B
:106EA00020696E697469616C697A65642E00525458
:106EB000433A20696E697469616C697A65642E0071
:106EC0000338FDD8704748415244204641554C5440
:106ED0002061742030782530385800202052303A14
:106EE0002020307825303858202052313A20203068
:106EF0007825303858202052323A202030782530FA
:106F00003858202052333A20203078253038580025
:106F100020205231323A2030782530385820204C09
:106F2000523A202030782530385820205053523A99
:106F30002030782530385800537461636B207669AF
:106F40006F6C6174696F6E3A20737461636B20704B
:106F50006F696E746572206F7574736964652073F0
:106F60007461636B20617265612E004361757365A6
:106F70003A204275734661756C74206F6E206120F3
:106F8000766563746F72207461626C6520726561EE
:106F90006420647572696E672065786365707469D2
:106FA0006F6E2070726F63657373696E672E004336
:106FB000617573653A2025732E004D656D4D616EC8
:106FC000616765204661756C742041646472657305
:106FD000733A203078253038580042757320466166
:106FE000756C7420416464726573733A203078253F
:106FF000303858005468652070726F636573736F22
:10700000722068617320617474656D7074656420AA
:10701000746F206578656375746520616E20756E88
:10702000646566696E656420696E737472756374F5
:10703000696F6E005468652070726F636573736F5B
:107040007220617474656D707465642061206C6F6A
:107050006164206F722073746F72652061742061A7
:10706000206C6F636174696F6E2074686174206452
:107070006F6573206E6F74207065726D6974207413
:107080006865206F7065726174696F6E00556E730C
:107090007461636B20666F7220616E206578636532
:1070A0007074696F6E2072657475726E206861739A
:1070B00020636175736564206F6E65206F72206D4B
:1070C0006F7265206163636573732076696F6C61AD
:1070D00074696F6E7300537461636B696E672066C9
:1070E0006F7220616E20657863657074696F6E20C1
:1070F000656E74727920686173206361757365646D
:10710000206F6E65206F72206D6F72652061636302
:107110006573732076696F6C6174696F6E7300417B
:10712000204D656D4D616E616765206661756C749B
:10713000206F6363757272656420647572696E672F
:1071400020666C6F6174696E672D706F696E742054
:107150006C617A79207374617465207072657365EF
:1071600072766174696F6E00496E737472756374C0
:10717000696F6E20627573206572726F7200446170
:10718000746120627573206572726F72202850439B
:107190002076616C756520737461636B656420662D
:1071A0006F722074686520657863657074696F6EAE
:1071B0002072657475726E20706F696E74732074BE
:1071C0006F2074686520696E737472756374696F7B
:1071D0006E207468617420636175736564207468DF
:1071E00065206661756C7429004461746120627564
:1071F00073206572726F72202872657475726E20CA
:107200006164647265737320696E207468652073AD
:107210007461636B206672616D65206973206E6FA7
:10722000742072656C6174656420746F2074686585
:1072300020696E737472756374696F6E207468610F
:10724000742063617573656420746865206572726B
:107250006F722900556E737461636B20666F7220C4
:10726000616E20657863657074696F6E20726574F5
:1072700075726E2068617320636175736564206F39
:107280006E65206F72206D6F726520427573466166
:10729000756C747300537461636B696E6720666FFD
:1072A0007220616E20657863657074696F6E206509
:1072B0006E747279206861732063617573656420F0
:1072C0006F6E65206F72206D6F7265204275734618
:1072D00061756C7473004120627573206661756C12
:1072E00074206F6363757272656420647572696E71
:1072F0006720666C6F6174696E672D706F696E745C
:10730000206C617A79207374617465207072657382
:107310006572766174696F6E005468652070726F73
:10732000636573736F722068617320617474656D37
:107330007074656420746F2065786563757465206A
:10734000616E20696E737472756374696F6E2074F8
:10735000686174206D616B657320696C6C65676131
:107360006C20757365206F662074686520455053E6
:1073700052005468652070726F636573736F72207A
:1073800068617320617474656D7074656420616EEA
:1073900020696C6C6567616C206C6F6164206F663E
:1073A000204558435F52455455524E20746F207407
:1073B00068652050432C20617320612072657375CD
:1073C0006C74206F6620616E20696E76616C6964F2
:1073D00020636F6E746578742C206F7220616E204C
:1073E000696E76616C6964204558435F5245545517
:1073F000524E2076616C7565005468652070726F1E
:10740000636573736F722068617320617474656D56
:107410007074656420746F206163636573732061A9
:1074200020636F70726F636573736F720054686569
:107430002070726F636573736F7220686173206D63
:1074400061646520616E20756E616C69676E65644C
:10745000206D656D6F72792061636365737300548D
:1074600068652070726F636573736F7220686173F3
:1074700020657865637574656420616E20534449A6
:1074800056206F72205544495620696E7374727588
:107490006374696F6E20776974682061206469760F
:1074A00069736F72206F6620300068617264666174
:1074B000756C7400F46F010034700100000000006E
:1074C0008D700100D67001001F71010000000000E6
:1074D00000000000687101007E710100E971010087
:1074E0005472010095720100D67201000000000084
:1074F00000000000F46F01001973010072730100B5
:10750000F97301000000000000000000000000000E
:10751000000000002D7401005F740100303132332F
:107520003435363738394142434445467077725FC7
:107530006D676D7400000000846C0100846C0100B4
:1075400004000000736F72746C697374004E5246CD
:107550005F53554343455353004E52465F45525285
:107560004F525F5356435F48414E444C45525F4D26
:10757000495353494E47004E52465F4552524F526F
:107580005F534F46544445564943455F4E4F545F01
:10759000454E41424C4544004E52465F4552524F83
:1075A000525F494E5445524E414C004E52465F4543
:1075B00052524F525F4E4F5F4D454D004E52465F07
:1075C0004552524F525F4E4F545F464F554E440006
:1075D0004E52465F4552524F525F4E4F545F535585
:1075E00050504F52544544004E52465F4552524F00
:1075F000525F494E56414C49445F504152414D0003
:107600004E52465F4552524F525F494E56414C4989
:10761000445F5354415445004E52465F4552524FC9
:10762000525F494E56414C49445F4C454E47544881
:10763000004E52465F4552524F525F494E56414CA2
:1076400049445F464C414753004E52465F455252B3
:107650004F525F494E56414C49445F4441544100AA
:107660004E52465F4552524F525F444154415F5320
:10767000495A45004E52465F4552524F525F544957
:107680004D454F5554004E52465F4552524F525F42
:107690004E554C4C004E52465F4552524F525F463B
:1076A0004F5242494444454E004E52465F45525265
:1076B0004F525F494E56414C49445F414444520049
:1076C0004E52465F4552524F525F42555359004EFB
:1076D00052465F4552524F525F434F4E4E5F434FAB
:1076E000554E54004E52465F4552524F525F5245DE
:1076F000534F5552434553004E52465F4552524FE9
:10770000525F4D4F44554C455F4E4F545F494E4973
:107710005449414C495A4544004E52465F455252E5
:107720004F525F4D555445585F494E49545F46414D
:10773000494C4544004E52465F4552524F525F4DB0
:10774000555445585F4C4F434B5F4641494C454467
:10775000004E52465F4552524F525F4D5554455868
:107760005F554E4C4F434B5F4641494C4544004E9C
:1077700052465F4552524F525F4D555445585F43F4
:107780004F4E445F494E49545F4641494C45440081
:107790004E52465F4552524F525F4D4F44554C45F5
:1077A0005F414C52454144595F494E495449414C0F
:1077B000495A4544004E52465F4552524F525F531C
:1077C000544F524147455F46554C4C004E52465F20
:1077D0004552524F525F4150495F4E4F545F494DA1
:1077E000504C454D454E544544004E52465F45521F
:1077F000524F525F464541545552455F4E4F545F7C
:10780000454E41424C4544004E52465F4552524F10
:10781000525F494F5F50454E44494E47004E5246D5
:107820005F4552524F525F4452565F5457495F452D
:1078300052525F4F56455252554E004E52465F458A
:1078400052524F525F4452565F5457495F4552520D
:107850005F414E41434B004E52465F4552524F529C
:107860005F4452565F5457495F4552525F444E4100
:10787000434B004E52465F4552524F525F424C4579
:107880005F495053505F52585F504B545F545255AC
:107890004E4341544544004E52465F4552524F526A
:1078A0005F424C455F495053505F4348414E4E45FF
:1078B0004C5F414C52454144595F455849535453DC
:1078C000004E52465F4552524F525F424C455F490F
:1078D0005053505F4C494E4B5F444953434F4E4EBB
:1078E0004543544544004E52465F4552524F525F05
:1078F000424C455F495053505F504545525F524599
:107900004A454354454400556E6B6E6F776E206553
:1079100072726F7220636F646500000000000000E7
:107920004D750100010000005975010002000000C2
:107930007775010003000000987501000400000045
:10794000AB75010005000000BC75010006000000D9
:10795000D075010007000000E87501000800000074
:107960000076010009000000187601000A000000FE
:10797000317601000B000000497601000C00000088
:10798000607601000D000000747601000E0000001A
:10799000867601000F0000009576010010000000BF
:1079A000A976010011000000C0760100120000005D
:1079B000CF76010013000000E47601008000000093
:1079C000F8760100810000001977010082000000B4
:1079D000357701008300000051770100840000002A
:1079E0006F7701008500000090770100860000009D
:1079F000B577010090000000CC77010091000000F5
:107A0000EA7701009200000008780100008200007F
:107A10001D780100018200003B7801000282000015
:107A20005778010000840000737801000184000091
:107A30009778010002840000C178010003840000EF
:107A4000E67801004750494F5445005052530055C5
:107A50004152540055415254450053414144430062
:107A60005457494D000000000D0003003955010036
:107A70000E000300395501000F00030039550100C5
:107A80001000030039550100C80B0020E80B00204E
:107A9000080C00200A32207365630070616363681C
:107AA0006574746F20617272697661746F000A5236
:107AB0006963657675746F3A2000256400536174BC
:107AC00075726174696F6E20636F6E6E6573736F2C
